:020000040800F2
:1000000058260020910A000C0362000C7D0A000CA7
:100010007D0A000C7D0A000C7D0A000C7D0A000C94
:10002000000000000000000000000000C50A000CF5
:100030007D0A000C00000000750C000CED3D000C6A
:10004000E10C000CE10C000CE10C000CE10C000CCC
:10005000E10C000CE10C000CE10C000CE10C000CBC
:10006000E10C000CE10C000CE10C000CE10C000CAC
:10007000E10C000CE10C000CE10C000CE10C000C9C
:020000040C00EE
:1000000053B94AB9002908BF00281CBF4FF0FF317F
:100010004FF0FF3000F00CB8ADF1080C6DE904CEE4
:1000200000F012F8DDF804E0DDE9022304B07047C7
:10003000704700BF10F8012B11F8013B012A28BFBF
:100040009A42F7D0D01A70472DE9F0478C468E4679
:10005000089E154604461946002B40F0D080724594
:1000600047D9B2FA82F74FB1C7F120030EFA07FC65
:10007000BD40BC4020FA03F343EA0C0C4FEA154E96
:10008000A8B2230CBCFBFEF80EFB18CC08FB00F951
:1000900043EA0C43994528D9EB1808F1FF3204D202
:1000A000994502D9A8F102022B44A3EB0903A4B29B
:1000B000B3FBFEFC0EFB1C330CFB00F044EA0344D4
:1000C000A04214D92C190CF1FF3304D2A04202D95A
:1000D000ACF102032C44241A43EA02401EB1FC4056
:1000E000002334607360BDE8F0874246DDE7634675
:1000F000F1E7002A79D0B2FA82F3002B3FD01946FB
:10010000C1F1200302FA01F500FA01F42EFA03F21C
:100110000EFA01FE20FA03F3AFB243EA0E034FEAF0
:10012000154EB2FBFEFC0EFB1C201A0C0CFB07F854
:1001300042EA004290455AD9AA180CF1FF3004D285
:10014000904502D9ACF102002A44A2EB08029BB20E
:10015000B2FBFEFC0EFB1C220CFB07F743EA02433A
:100160009F4246D9EB180CF1FF3204D29F4202D9CC
:10017000ACF102022B44DB1B42EA004202E0AEEB90
:10018000020301224FEA154EAFB2200CB3FBFEFC76
:100190000EFB1C330CFB07F840EA034398452AD9B1
:1001A000EB180CF1FF3004D2984502D9ACF10200F3
:1001B0002B44A3EB0803A4B2B3FBFEFC0EFB1C33E1
:1001C0000CFB07F744EA0344A74216D92C190CF19B
:1001D000FF3304D2A74202D9ACF102032C44E41B42
:1001E00043EA00400F46114678E71F2188E7604642
:1001F000ABE76246BFE76046DBE76346EFE7734580
:1002000006D916B9002108466DE7C6E9000EF9E7E0
:10021000B3FA83F787B9734501D3824207D8841AAA
:100220006EEB030301209C461EB900215BE73846B4
:10023000FAE7C6E9004CF8E7C7F1200CBB4000FA2A
:1002400007F422FA0CF520FA0CF1BA401D432EFAFD
:100250000CF30EFA07FE4FEA154941EA0E011FFAA8
:1002600085FEB3FBF9F809FB18300B0C08FB0EFAFE
:1002700043EA00439A4540D9EB1808F1FF3004D215
:100280009A4502D9A8F102002B44A3EB0A0389B2D4
:10029000B3FBF9F809FB183308FB0EFE41EA0341F2
:1002A0008E452CD9691808F1FF3304D28E4502D946
:1002B000A8F10203294443EA0040A1EB0E01A0FB90
:1002C00002984145CE46434602D306D14C4504D25E
:1002D0000138B9EB020E68EB0503002EA5D0B4EB94
:1002E0000E0261EB030101FA0CFC22FA07F3F9405C
:1002F0004CEA0303C6E9003197E74046C5E74346A9
:10030000D9E70000002313B50D4C0193019B4BB1BD
:100310000C490D4805F0CEFE002142F2107009F0A4
:10032000B1FEF5E7A3681B6D1BB10421204601AAAD
:10033000984700214FF47A7009F0A4FEE6E700BF69
:100340004CA5000CF6AC000CFAAC000C014B1B6881
:10035000184700BFD0000020014B1860704700BF55
:10036000D000002030B5044685B00D461022002193
:1003700068460AF02DF802238DF80230044B2A4615
:1003800021466846019305F07FF905B030BD00BFF6
:100390004D03000C80B505460E461746984604F0FE
:1003A00039FF034600F0AEFC0446DFF818904246E1
:1003B00049F8003039463046A84754F8090000F0A3
:1003C00043FC00BF08000000014B036000207047A1
:1003D00054AB000C0E4A0F4B13B5012818BF1A4638
:1003E000044601460C4806F0ACFB70B901232246D6
:1003F0000A49094806F0A0FC38B90123EF2200930E
:1004000021460223044805F0A4FF02B010BD00BF3E
:10041000D4000020E8000020600400200BAD000C98
:1004200008B51549154806F08AF820BB1449134849
:1004300006F085F8F8B91349104806F080F8D0B9ED
:1004400011490E4806F07BF8A8B90C4805F07AFF70
:1004500001280CD00020FFF7BDFF60B9074805F068
:10046000A1FF40B9BDE80840044805F0CBBFFFF745
:10047000B1FF0028EED008BD740100206004002008
:100480005C010020440100202C01002008B5034835
:10049000034A0021121A05F0ACFE08BD1005002029
:1004A00018110020074808B5074A0849121A05F034
:1004B000A2FEBDE808400648064A0749121A05F0A0
:1004C0009ABE00BF000000200C0500209CB3000C69
:1004D00000000020000000209CB3000C38B5054649
:1004E0000C4699B1D1E901230F48096805F0E2FDF6
:1004F000D4E90423E1680D4805F0DCFDE1690C480E
:1005000005F0D8FDA1690B4805F0D4FD012D05D1FA
:10051000EFF305810848103905F0CCFD2146284647
:10052000BDE8384003F046BD24AD000C54AD000CCE
:1005300084AD000C94AD000CC3AD000C30BFFFF7D0
:10054000FDBF00BF2DE9F04105460B4EDFF82C80C2
:10055000324606EB0807CC1B2046094909F02BFF61
:10056000A01942460021083C09F032FFAC6707F1B0
:100570000800BDE8F08100BF000000000800000096
:1005800054AB000C10B52A4C2A4805F093FDD4F862
:10059000E810D4F8E430580602D5274805F08AFD63
:1005A000D4F8E430D9070BD5244805F083FD262084
:1005B0001F4AD2F8E43043F0FF03C2F8E43010BD24
:1005C000D4F8E4309A0704D51D4805F073FD2720C0
:1005D000EEE7D4F8E4305B0704D51A4805F06AFD6D
:1005E0002820E5E7D4F8E430180704D5164805F0CC
:1005F00061FD2920DCE7D4F8E430D90604D513489E
:1006000005F058FD2A20D3E7D4F8E4309A0604D543
:100610000F4805F04FFD2B20CAE7D4F8E4301B0645
:1006200004D50C4805F046FD2C20C1E72520BFE786
:1006300000ED00E0D7AD000CF1AD000C02AE000CF7
:1006400019AE000C38AE000C54AE000C72AE000CAB
:1006500088AE000CA3AE000C10B5204C204805F06D
:1006600029FDA36A990137D51E4805F023FD1E20F8
:10067000A36ADA0103D51C4805F01CFD1F20174CA6
:10068000A36ADB0203D5194805F014FD2020A36AF4
:100690001C0303D5164805F00DFD21200F4CA36A5D
:1006A000590303D5134805F005FD2220A36A9A03D8
:1006B00003D5114805F0FEFC2320084CA36ADB0398
:1006C00003D50E4805F0F6FC2420A36A6FEA034325
:1006D0006FEA1343A36210BD1D20C9E700ED00E0DF
:1006E000B7AE000CD0AE000CE4AE000CFFAE000CB8
:1006F0002AAF000C49AF000C6FAF000C8AAF000CA2
:1007000070B5244C064624480D4605F0D3FCA36A78
:10071000D90435D5214805F0CDFC1720A36A1A0568
:1007200003D51F4805F0C6FC18201A4CA36A9B0588
:100730000FD51C4805F0BEFCA16BA36A180407D5B1
:10074000194805F0B7FC1EB1A36A23F40043A36265
:100750001920104CA36A590503D5144805F0AAFCCA
:100760001A20A36ADA050DD5114805F0A3FC1B2059
:10077000084A936A43F47F43936200232B7070BD51
:100780001620CBE7A36A9B04F2D50A4805F092FC39
:100790001C20EDE700ED00E0B6AF000CCDAF000C83
:1007A000DFAF000CF3AF000C0DB0000C23B0000C59
:1007B0003FB0000C58B0000C70B5264C06462648D9
:1007C0000D4605F077FCA36AD80640D5234805F00E
:1007D00071FC1120A36A190703D5214805F06AFCB2
:1007E00012201C4CA36A9A070FD51E4805F062FC24
:1007F000616BA36A1B0607D51B4805F05BFC1EB1A5
:10080000A36A23F08003A3621320124CA36ADE07BD
:1008100003D5164805F04EFC1420A36A9C0603D5A8
:10082000134805F047FC15200A4B9A6AD10658BFB9
:100830009A6A9A6A920642BF5A6A22F400525A622F
:100840009A6A42F0FF029A6200232B7070BD10205A
:10085000C0E700BF00ED00E088B0000C9FB0000CC6
:10086000DFAF000CD3B0000CECB0000C03B1000CF7
:1008700058B0000C2DE9F0416E4B04465F688AB019
:100880000023C7F3080683F31188BFF36F8F02F0CC
:100890007F40B0F17F4F34D112F0010532D012F019
:1008A000400502F0080804D0B8F1000F26D1012558
:1008B00012E0500748BF0C465F4B216858BF012526
:1008C0000B44012B98BF216C5C4805F0F3FBB8F199
:1008D000000F10D0EFF389844FF00008F31E8DF85D
:1008E0000780092B00F29680DFE803F00E8A8E7FE6
:1008F000869494949492EFF38884EDE70C461D4619
:10090000EAE71D462C46E7E74D484A4E05F0D2FB84
:100910008DF80780F36A9A0704D54A4805F0CAFBA8
:1009200000232AE0F36A002B01DA4748F6E7F36A6E
:100930005B00F5D5454805F0BDFB7369A26943F43A
:1009400080737361BFF34F8FBFF36F8F32F8023C38
:10095000726922F480727261BFF34F8FBFF36F8FA1
:1009600003F47F42B2F55F4F27D1DBB2022B24D1D3
:100970002168374805F09EFB23689DF80720CAB917
:1009800002AE04F12007324620686168083403C2D1
:10099000BC421646F7D1099A002D47D0C2F3080190
:1009A00021B96FEA52226FEA42220992184602A93F
:1009B000FFF794FD0AB0BDE8F0811E4B9A6AD2B2EF
:1009C0002AB101200DF10701FFF7F6FE16E09A6A41
:1009D00012F47F4F05D001200DF10701FFF790FEC3
:1009E0000CE09A6AB2F5803F02D3FFF735FE05E0CE
:1009F000D3F8E430002B93D0FFF7C4FD0346BCE7E7
:100A000000200DF10701DFE700200DF10701E5E708
:100A1000104883E7104B17F4F87F1049104808BFBF
:100A20001946A6F1100205F045FB79E76FF30802BD
:100A3000BBE700BF00ED00E0A6ED050151B1000CE1
:100A400071B1000C89B1000CABB1000CBAB1000C53
:100A5000DAB1000CF7B1000C23B1000C38B1000C76
:100A60001CB2000C044B5A6942F010025A615A69D8
:100A700022F008025A61704700ED00E0EFF30880B1
:100A8000EFF3098101B57246FFF7F4FE01BD00BF27
:100A90000A4880F30888202080F3118808484FF422
:100AA0000061401880F30988EFF3148002210843A5
:100AB00080F31488BFF36F8F00F05CF85826002095
:100AC000181900201EF0040F0CBFEFF30880EFF39D
:100AD0000980816911F8021C0229FFD001B5724614
:100AE00005F08BFB01BD00BF00B2002807DB01232E
:100AF0004109034A00F01F00834042F8213070474B
:100B000000E100E000B200280CDB012206494309A5
:100B100000F01F008240203341F82320BFF34F8FA5
:100B2000BFF36F8F704700BF00E100E000B2002804
:100B300001F10101ACBF00F16040064B4FEA4111E9
:100B4000C9B2ABBF00F5614000F00F0080F80013A0
:100B50001954704714ED00E0044B054A23F07F035D
:100B60009360BFF34F8FBFF36F8F70470000000893
:100B700000ED00E008B5FFF7EFFF0B4AD2F8883030
:100B800023F47003C2F88830EFF3148323F00403D6
:100B900083F31488BFF36F8FFFF778FCFFF782FCB5
:100BA00000F092F803F0CAFA00ED00E042F8203CB1
:100BB000009B0B4942F81C3C019B21F0010142F8CB
:100BC000183C029B42F8081C42F8143C4FF080731A
:100BD00042F8043C0023203A0265C367704700BF17
:100BE0009503000C00B50B4B15469860826F0A4BBD
:100BF0000E461A602C4686F309880020034B98475E
:100C00002046002100220023014C20471F62000CD7
:100C10009503000CE0100020200A00201022014B58
:100C20001A61704700ED00E0054B5A699B689A42D3
:100C30001FBF044A536843F080535360704700BF9E
:100C4000E010002000ED00E0084B9B6883420BD1D0
:100C5000EFF3058343B1064B5A6842F080525A6065
:100C60005A6A22F400425A6209F053B9E010002097
:100C700000ED00E011498A684FF030001044EFF3B6
:100C8000098C80E8F01F202080F31288BFF36F8F5B
:100C90000B4F4FF000664A698A603E60906F094CC6
:100CA0002060D06F0023D36780F3118802F13000F9
:100CB00090E8F01F8CF3098870470000E0100020D6
:100CC00004ED00E0200A0020002320210348C21880
:100CD00001339E2B82F80013F9D1704700E100E048
:100CE00008B5EFF30583064A103B02EBC30152F847
:100CF000330049688847BDE80840FFF795BF00BF4B
:100D0000A0A5000C0148006870470000200A0020E0
:100D10001FB50121094B0A4A0A4800F0F7F80023E1
:100D2000064A0393084B0121019301A8D31A0293A9
:100D300000F0F6F805B05DF804FB00BF00000820E5
:100D40000000002054AB000C100500200A7A0B684C
:100D500010B562F304031C46CB68520923F01F034D
:100D600043EA4203044A43F00103C2F89800C2F880
:100D70009C40C2F8A03010BD00ED00E010B5074B5C
:100D8000D3F89030C3F30723013B984202D8FFF712
:100D9000DDFF10BD6FF01500FBE700BF00ED00E0C8
:100DA0002DE9F04F0F46144606464FF000084B4D14
:100DB00085B0B84580F28E80D6F80490B9F1000F66
:100DC00035D0B9F11F0F40F2838019F01F0F7FD18A
:100DD000D6F800A01AF01F0F7AD1504605F033FA6A
:100DE000834609EB0A00013805F02DFA83456FD1DF
:100DF0001BF1160F6CD05C456ADDC5F898B0D5F8CC
:100E00009C10C5F898B0D5F8A03021F01F0143F030
:100E10001F0AD6E900321A44994202F1FF391BD168
:100E2000CA4508D131465FFA8BF005F015FA08F192
:100E300001080C36BDE73146C5F898B0D5F89C30AE
:100E4000E0B263F30402C5F89C2005F005FA10F146
:100E5000160F3DD0441CEAE7C5F898B0D5F8A0209D
:100E6000013B23F01F0302F01F021343CA45314622
:100E7000E0B2C5F8A030E8D005F0EEF910F1160F99
:100E800026D0C5F898B0D5F89C209DF808300AF116
:100E9000FF3A62F304038DF80830D5F8A0309DF8CE
:100EA00008205B0863F347128DF80820D6E900326A
:100EB0001344009323F01F035344A3EB09030130B1
:100EC00023F01F036946C0B20393FFF757FFBEE745
:100ED0006FF01504204605B0BDE8F08F00ED00E08E
:100EE0000522044BC3F89420BFF34F8FBFF36F8FDD
:100EF000704700BF00ED00E0BFF35F8F0022024BA0
:100F0000C3F89420704700BF00ED00E010B5034C1B
:100F10002278FFF745FF207010BD00BF141100209C
:100F20002DE9F74F294D8A4606464FF00008AB469B
:100F3000274FD0451BDAD6F80490B9F1000F3FD007
:100F400031680846019105F07EF90199044609EBE4
:100F50000100013805F077F984424FF014021D4B6F
:100F600008D002FB08F36FF015024BF8032003B022
:100F7000BDE8F08F14F1160F2C60F8D01978A1425B
:100F8000F5DD02FB08B0C7F89840C7F89840D7F8DD
:100F90009C4000F10801007B64F304000871D7F85D
:100FA000A0000C79400860F347140C71D7F89C102E
:100FB00021F01F016960D7F8A01021F01F012961FD
:100FC00008F1010814350C36B3E700BF240A0020ED
:100FD00000ED00E014110020F0B55349534DD1F855
:100FE00090302C68C3F307239C4287B000F29980AD
:100FF0000020FFF781FF4E4BC1F8C030844216D16C
:101000004C4D01A82C70FFF7DFF9002607464A4C2B
:10101000B74213D100202B784349D1F89020C2F376
:101020000722934277DBFFF75BFF002046E0696809
:1010300001EB0011FFF78AFE0130DFE70199300173
:1010400001EB0613DA682240B2F1807F52D00AD851
:10105000B2F5001F34D0B2F5800F3ED0B2F5801F3C
:1010600012D00136D4E7B2F1006F43D0B2F1805F05
:10107000F7D15A689B680958013B22F01F000344CE
:1010800023F01F03012032E05A689B680958013B96
:1010900022F01F0003440120844623F01F0340EA8E
:1010A0004C10CDE902218DF8100002A92878059393
:1010B000FFF764FE00282ADA6FF0150007B0F0BDD4
:1010C0005A689B680958013B22F01F0003444FF007
:1010D000020C012023F01F03E1E75A689B680958BE
:1010E000013B22F01F000344062023F01F034FF0B2
:1010F000000CD4E75A689B680958013B22F01F0096
:1011000003444FF0030C012023F01F03C7E72B78A3
:1011100001332B70A5E7C1F89830C1F8A000013366
:101120007BE74FF0FF30C9E700ED00E060AB000C5B
:10113000AAFF4400141100200000F0FF08B5024B84
:101140001B689847002008BD380A0020034B044A5A
:101150001860937843F0020393707047380A0020B8
:101160008C01002008B50649064821F00701C1F1AD
:10117000005202F5002204F049FF002008BD00BF24
:10118000DF3900203C0A002070B541690446867AA8
:101190000A4D59B1437ADB0706D4242303FB0653D7
:1011A000DB691B689B689847002363612420214604
:1011B00000FB0650BDE8704008F0AABD18040020EE
:1011C0002422024B02FB0030704700BF18040020AD
:1011D0002421827A054B01FB02331A6A1B7D801A97
:1011E0001B3323F00303B0FBF3F070471804002017
:1011F00038B52424827A064B04FB0233DB69D3E939
:1012000001240C601568FFF7E3FF04FB005038BDB4
:10121000180400202DE9F04385B005466846904645
:101220001C46039109F008F8DDE90067EFF3118926
:10123000202383F31288BFF36F8F6B8A002B41D07A
:101240002A8A9A4225D900220023284603F0D0F9A1
:101250000446F0B189F31188BFF36F8F039B002B15
:1012600041D032463B46684609F00BF82421A27A69
:10127000254B204601FB0233DB6903A91B681D686F
:10128000DDE90023A847606170BB2046FFF77CFFC3
:1012900024E0698A4B1E6B8289F31188BFF36F8F3C
:1012A0002B7D2A8A2C6A1B3323F00303521A02FB7C
:1012B0000344154B154AEB1A9B105343A3722B7D25
:1012C000E372CBE789F31188BFF36F8F2346424661
:1012D000284603F08DF904460028BFD1002420469B
:1012E00005B0BDE8F0836361012300252381039BE2
:1012F00029466382E27A656004F1180009F068F813
:1013000063692582E360EAE718040020398EE33838
:1013100070B524250C4C00B970BD037A4668002BCB
:10132000FAD0013BDBB20372002BF5D1C3604360FE
:10133000837A05FB03439B6913B198473046EAE77C
:10134000FFF722FFFAE700BF180400202DE9F04F55
:1013500085B08046894615461F4604F0EEFF0446D8
:1013600087B1404604F0EEFF012808D0FFF7CAFC21
:101370006FF085022D4B1A5005B0BDE8F08FB4FA1E
:1013800084F464096A1C21464046D2B205F060FB31
:1013900006460028EAD045684FB12868696801AB65
:1013A00003C32A7A01AD1A7007238DF8053009F1BD
:1013B0000C07384605F055F92A782946824228BF9D
:1013C0000246384604F086FFD6F80CA0BAF1000FAA
:1013D0000AD1B9F81010B8F82E309942CCD9384655
:1013E000C91A04F092FFC7E7DAF8040083681B6BA0
:1013F00013B9DAF800A0E9E7214698470028F8D0A9
:10140000051F55F804BFBBF1000FF2D09BF8006038
:10141000002EEED0384605F024F9B04234BF82B237
:1014200032465946384604F055FFEAE70C00000002
:101430002DE9F04190F82830044603F01F03012BFA
:101440000F4600F128062FD0022B18D08BB3204670
:1014500094F8291005F019F8024678B3304605F0E3
:1014600008F91D4D002834D113693BB33A46314683
:10147000204698470346FFF745FC2B5024E0818D1A
:10148000C9B205F01FFC05460028E0D0304605F043
:10149000F0F8024668688368CAB99B6873B13A4637
:1014A0003146BDE8F0411847818DC9B205F0F1FB26
:1014B000E9E790F8291005F028FCE4E7FFF722FCA3
:1014C0006FF08502044B1A500020BDE8F081DB6804
:1014D000E4E7D368C9E700BF0C0000002DE9F04F36
:1014E0000B7E044633F080080D46164693B040F05C
:1014F00081847AB10846FFF70BFF6B7EDF0703D4C8
:101500009E0711D52B7E7BB9204613B0BDE8F04F66
:1015100005F0DBB84A7E00F12809900708D5802B3A
:101520000CD12846FFF7F4FE404613B0BDE8F08F1B
:10153000910700F02384002B40F02084D2072FD5A0
:101540002B8A082B40F0FA83EA68294613680020AA
:10155000A3625368C9F8043004F0AAFE054610B12E
:10156000FFF7D6FEEFE0484605F083F8E28D70B94C
:10157000B2B12946A06906F00FFE0146002800F02E
:101580002984204613B0BDE8F04F05F03BBD3AB1C9
:101590001146204605F031FD0546002800F01A846A
:1015A000FFF7B0FB002394F82880B14F18F0600FCC
:1015B000C351C8F3411307D0032B40F0BB81FFF7A1
:1015C000A1FB6FF0850337E0484605F052F894F828
:1015D0002930002840F04E81013B0A2BEFD801A2B0
:1015E00052F823F05B17000CBF15000CE717000C36
:1015F000BF15000C1116000CBF15000CBF15000C18
:10160000BF15000C8116000CBF15000CE316000C72
:10161000618D7F29D3D8A38D002BD0D1E38D002BF2
:10162000CDD118F01F0FCAD194F83030022B05D15C
:10163000FFF768FB4FF0FF333B5076E0A06903698A
:1016400093F880301B0707D5C9B205F071F88046C2
:1016500028B1002D6CD167E7012384F8393094F864
:101660003030012B0AD1638D43B984F83030FFF755
:1016700049FB3B58002B00F0858056E00123F4E73E
:10168000204604F05AFE628D0146FF2A97D8E38D6A
:10169000002B94D194F82830D80690D194F83030AB
:1016A000002BC5D02AB12046D2B205F0F7F90028A8
:1016B000BED0618D94F838308B42D8D02046C9B264
:1016C00005F0F3F980460028C3D1628D0521002A78
:1016D00014BF02230123204684F8303005F01CFD9E
:1016E000C5E708F01F08B8F1010F7FF468AFE38D7C
:1016F000002B7FF464AF628DFF2A3FF660AFA18DAF
:10170000FF293FF65CAF94F83030022B90D1204691
:10171000D2B2C9B205F0F5FB10F1020F804640F0DD
:101720000E81FFF7EFFA47F8008065B14FF000082F
:101730002846FFF7EDFDB8F1000F7FF4F5AEFFF797
:10174000E1FA3B58F3B1484604F093FF0346A06921
:10175000002B00F04283802148E3E38D002B7FF4CF
:101760002EAF94F83030002B3FF462AF012BA18DE7
:1017700002D100297FF45CAF18F01F080CD0B8F13B
:10178000020F16D0E38D002B40F0CB82204604F0F0
:1017900086FF0028D7D1B7E600297FF449AF638DD3
:1017A000012BEFD194F86C3061F3C30384F86C30F3
:1017B000E8E7B4F82AA0BAF1000FE3D15FFA81F8A4
:1017C0004146204605F08EFC0346FFF79BFA3B504E
:1017D000013302D14FF0FF383BE7524641462046E5
:1017E00004F04DFF43E7E38D002B7FF4E8AE628DFC
:1017F000A38D022A5FFA83FA11D108F01F085AEA72
:1018000008087FF4DCAE0122A069190A04F070FF19
:1018100000287FF4D4AE012384F8393027E794F808
:10182000301000293FF404AF012902D1002B7FF4CE
:10183000FFAE18F01F0811D0B8F1020FA2D1002A94
:10184000A0D15146204605F039FC0346FFF75AFA6D
:101850003B500133BED001225146C0E7002B7FF43C
:10186000E7AE012A8ED194F86C3043F008039DE76F
:101870000C0000000A2B3FF6A2AE01A252F823F0A2
:10188000AD18000CBF15000CBF15000CBF15000CE7
:10189000BF15000CBF15000C2719000CBF15000C5C
:1018A0009F1C000CBF15000CC91C000CE38D022B03
:1018B0007FF485AE94F83030002B3FF4B9AE012BA5
:1018C000A18D02D100297FF4B3AE18F01F0811D00A
:1018D000B8F1020F1CD04FF0000805F10C0A504679
:1018E00004F0BFFEE38D984218D2FFF70BFA6FF0B9
:1018F0000B03A1E600297FF49BAE94F86C304FEA0D
:10190000930808F00208C3F3001348EA0308E4E769
:101910002046C9B205F0F5FB8046DEE74146504659
:1019200004F0E9FCA3E6628D18F01F0F4FEA1223C2
:10193000D2B209D029462046FFF77AFD8046B8F199
:10194000000F7FF486AE92E6013B0E2B3FF637AEDA
:1019500001A151F823F000BF9519000CD119000C1A
:10196000E119000CBF15000CBF15000C251B000C65
:10197000DD19000CBF15000CBF15000CBF15000CC5
:10198000BF15000CBF15000CBF15000CBF15000CD7
:10199000B91B000C05F10C08404604F062FE8346BA
:1019A0002046B4F82EA004F0C8FC20B101287FF432
:1019B00006AE616F00E0216F002900F01F82DA455A
:1019C00028BFDA460A78524528BF524640462FE0E3
:1019D000002329462046FFF7B9FC48E60123F8E733
:1019E0000321204604F091FD824600283FF4E7AD34
:1019F00004F032FEB4F82EB09AF81530D8B99AF83F
:101A000014808DF829308DF82880DAF8103005F12F
:101A10000C0A1B885046ADF82A3004F022FEC3455C
:101A20005A4628BF4246824228BF024650460AA96B
:101A300004F050FC1BE64FF00008DAF808208DF89F
:101A40001530BF4B8DF814801340BE4A934258D1D5
:101A5000102106A801F084FF021EFFF6B0AD0AA90E
:101A6000102A084628BF1022DFF8DCE20DF1180C1E
:101A7000424501F1020133D80346920002325FFA77
:101A800082F88DF8148005F10C0A5046029304F098
:101A9000E8FDD845424628BF5A46904228BF104626
:101AA00002288346804628BF4FF0020B50465A4614
:101AB000A8EB0B0805A904F00DFC4FEA58030193AD
:101AC000029B9B4603EB5802934521D118F0010F6E
:101AD0003FF4CDAD5046019A995C04F004FCC6E594
:101AE0001CF8013B08F101084FEA131A03F00F0339
:101AF0001EF80AA01EF8033001F802AC01F8013C00
:101B0000B6E79AF81480DAF810308DF81480BAE746
:101B100050461BF8011BCDE9022304F0ECFBDDE984
:101B20000223D1E7204604F008FCD4E91C830028F6
:101B300008BF98460023CDF82A30CDF82E300A236E
:101B40008DF82830062320468DF8293004F0FAFB62
:101B5000012805D0FFF7D6F86FF085033B5086E5E6
:101B6000B8F1000F00F04A81B8F80230ADF82A3021
:101B700098F804308DF82C3098F805308DF82D3019
:101B800098F806308DF82E3098F807308DF82F3001
:101B900098F8113005F10C0840468DF8303004F00B
:101BA00060FDE28D9DF828300AA99A4228BF1A46A6
:101BB000824228BF024609E7204604F0BEFB18B166
:101BC0000128C7D1636F00E0236F002B00F016815E
:101BD0005B88B3F5007FBDD95C4B04F14C0B0A93D5
:101BE00000238DF82C30E36C9B4508BF0023BDF823
:101BF0002A1093B15A7D0F2A08D11A7D0A44ADF8F4
:101C00002A209DF82C2001328DF82C20226D934241
:101C100001D01B68EBE7BDF82A1005F10C0A50460D
:101C2000019104F01EFDB4F82E800199884528BF6B
:101C30008846804528BF80464246052A28BF05229F
:101C400050460AA9019204F045FB019AB8EB02083C
:101C50003FF40DADE36C5B453FF409AD002B3FF461
:101C600006AD5A7D0F2A14D11A7D1969424528BF45
:101C700042465046019304F02DFB019B1A7D4245DC
:101C800094BFA8EB0208A8EB0808B8F1000F3FF4D6
:101C9000EEAC226D9A423FF4EAAC1B68DEE794F8A2
:101CA0003030002B3FF4C4ACE38D012B7FF487ACC4
:101CB00005F10C08404604F0D4FC00283FF415AEB2
:101CC00094F83810404608E708F01F08B8F1010FF3
:101CD0007FF4AEAC204604F0CFFE00283FF4A8AC61
:101CE000B4F82CA0BAF1FF0F3FF669AC43681B793A
:101CF0005345FFF464AC5FFA8AF30F2B3FF65FACF9
:101D0000E38D012B7FF45BAC05F10C08404604F039
:101D1000A8FC00283FF4E9AD04EB0A0393F83A105D
:101D2000D0E7484604F0A5FC18B92846FFF7F0FABA
:101D30002CE52946204605F065F948B128460FE410
:101D400000FF0200000302002CB3000C050F050089
:101D5000A069036993F8801011F004017FF4D4ABFB
:101D600006F02EFA054600283FF4EDAC0146204669
:101D700005F048F900283FF4C7ABDFE752077FF5CD
:101D8000E2AC002B3FF4CDAB2846FFF7C1FA94F844
:101D90003930002B3FF4C8AB94F82930052B05D11E
:101DA000618DA069C9B204F0C3FC064694F82930DD
:101DB000032B09D1638D022B06D1A18D0022A069CE
:101DC000090A04F095FC06460023B04684F8393031
:101DD000FFF7AABB6FF00B06B5E4E38D002B3FF4D1
:101DE000BAAC16F10C0118BF0121C90106F0EDF8DB
:101DF000FFF78ABB6FF00408FFF796BB6FF015087A
:101E000027E400BF0B7810B4062B14D10369D3F874
:101E10009C20EFF31184202383F31288BFF36F8F8C
:101E200000204B681860506A58B9C2E9083384F33F
:101E30001188BFF36F8F00220023034810BC07F006
:101E4000BDBE03605362F2E7F00300202DE9FF41BD
:101E500020264FF0FF334FF0FF325B4801A902F01C
:101E6000A1FA039B1B69D3F89C40236A93B1EFF35B
:101E7000118286F31288BFF36F8F216A29B1606ADD
:101E80000B688142236208BF636282F31188BFF34B
:101E90006F8FC9B99DF80430062BDAD0072BD8D83C
:101EA00001A252F823F000BFFB1E000CEF1E000C35
:101EB0001B1F000C011F000C3F1F000C351F000CE6
:101EC000531E000CC31F000C0B7E20465D06D1F88C
:101ED0001E2009D1FFF702FB02460028C5D00721CA
:101EE000204605F019F9C0E704F0E3FEF4E700220C
:101EF0000121204605F010F9ABE700221146F8E772
:101F000094F86C3001A943F00403204684F86C3047
:101F100004F033FC00220321EBE794F86C3001A9B4
:101F200023F00403204684F86C3004F026FC0022E1
:101F30000221DEE7204601A904F01FFC89E794F89E
:101F40006C30A76923F0040384F86C30D7F808805C
:101F50003B69A033D3E8AF3F9A072FD53846D8F86E
:101F60003C309847D8F82430002138469847054639
:101F7000D8F8403038469847ADB92946204604F095
:101F800094FD054678B9A06906F039F9831E5842D8
:101F9000584194F86C3084F8305023F0680343EAD9
:101FA000401384F86C3000220421204605F0B4F878
:101FB000002D3FF44EAF2A4607219AE74FF0FF3538
:101FC000F1E70621029A94E7F003002030B589B0CA
:101FD000002200230024CDE906236FF007034FF40D
:101FE0008062CDE90334CDE90144154B15490094D5
:101FF000154802F0F9FD1549134807F087FF144B07
:1020000014498B4207D30020134B14498B420CD345
:10201000002009B030BD03F11402D2E8EF0FC2E88E
:10202000E54F002DF9D11833EBE703F11402D2E8A4
:10203000EF4FC2E8E50F002DF9D11833E6E700BFF6
:102040004D1E000C18110020100500203FB2000C9E
:10205000DC040020F4040020F40400200C0500201F
:1020600038B5024605460949806906F026F9044656
:1020700048B985F83800284604F0B3FC044610B18E
:10208000A86906F049F9204638BD00BF051E000CBE
:1020900070B5054681B101290BD10E4C0E4E16E0EC
:1020A000636828461968FDF7C5FF18B11834B442B3
:1020B000F6D30024204670BD084C094EF7E763684C
:1020C00028461968FDF7B6FF0028F3D01834B4424B
:1020D000F5D3EEE7F40400200C050020DC0400201A
:1020E000F404002070B50646EFF31181202383F33A
:1020F0001288BFF36F8F1B4D2A6881F31188BFF3DD
:102100006F8F526892F86C20D20705D4BDE87040FA
:102110000A22002302F0F4BCEFF3118283F3128849
:10212000BFF36F8F2C682CB1696823688C422B60D9
:1021300008BF6B6082F31188BFF36F8F44B1606892
:1021400004F10801C36998472146074807F0E6FCF7
:102150002B6833B13046BDE870400022002302F006
:102160009BBC70BD480A0020C003002030B585B07C
:10217000CDE90012054600220023144803A902F00D
:102180007DF80246E8B9DDE90001039B5D60083394
:1021900083E80300EFF31180202383F31288BFF359
:1021A0006F8F039B1A600A4A516861B9C2E9003314
:1021B00080F31188BFF36F8F00220023054802F0DF
:1021C0006BFC05B030BD0B605360F1E7C00300202D
:1021D000480A00200000002038B54B780469202B05
:1021E0004568206908D0222B19D0FEF78BFD6FF0CF
:1021F0008502104B1A5010E0CB88072BF5D1D3681D
:102200001A6842609A8802819B79837204F0A9FF60
:1022100022460821284604F08DFF002038BD4B8857
:102220000921C3F34002838103F001030276437660
:102230002246EFE70C00000008B513464A78212A31
:1022400014D133B9FEF75EFD6FF00B020A4B1A5042
:102250000AE0CA880169072A096928BF07220431F0
:1022600003F10C0004F036F8002008BDFEF74AFD2B
:102270006FF08502004BEAE70C00000073B52025E3
:1022800004698DF80710EFF3118685F31288BFF308
:102290006F8F0122E06B0DF1070103F067FF86F3FA
:1022A0001188BFF36F8F01280CD007F029FE88B189
:1022B00001220C4BD3E8EF1F002903D1C3E8E02F24
:1022C0000028F7D10A22002304F1480002F0E4FBC1
:1022D00002B070BDA37E002BEAD000210A2007F0D7
:1022E000D1FED0E7500A002038B5002405690E4918
:1022F000EB6B05F14800C3E90144DC606B6BC3E99B
:102300000144DC6007F0C5FD05F17800074907F0DE
:1023100094FD074905F1240007F08FFD284604F0DD
:1023200020FF204638BD00BF3523000C0124000CDF
:102330006D75000C2DE9F04750F8483C00F140065F
:102340005B68074600213046D3F8009004F069FF2F
:10235000002851D00121304604F063FF8046002858
:102360004AD1D6E8EF3F43F02002C6E8E12F00292A
:10237000F7D19B0640D4484604F075FF002205467D
:1023800000231E4803F08CFF044650B93046052157
:1023900004F0E1FF3846BDE8F0470A22002302F0CE
:1023A0007BBB824605765AF80C1F428A57F80C0C04
:1023B00003F0FCFE05460146504603F085FF5DB183
:1023C000D9F8040004F0BEFFB5FBF0F303FB105591
:1023D000B5FA85F84FEA58182146484607F82D8C7B
:1023E00004F051FE40B12046FEF792FF3046BDE8B2
:1023F000F047052104F0AFBFBDE8F08718040020C6
:1024000070B550F8782C00F1100452680346002192
:102410002046156804F005FF00283DD00121204624
:1024200004F0FFFE002837D153F8442C68689388E5
:10243000918916695B1A9BB2F61A04F083FFB042C9
:102440002AD8D4E8EF3F43F01002C4E8E12F002976
:10245000F7D1DB0620D4284604F0F7FE002206461A
:1024600000230E4803F01CFF0446A8B106766868F6
:1024700004F068FF638A984203D2686804F062FF40
:1024800083B221462846638204F0FDFD20B1204638
:10249000BDE87040FEF73CBF70BD00BF18040020CF
:1024A00070B5054601F072FD0446064E6B6823B117
:1024B00001F06CFD031BB34200D970BD022007F090
:1024C00069FAF3E7BFD40100F8B5144687680546FA
:1024D000FB6B0E4698472146002200230548FEF775
:1024E00099FE044600B1067628463B6C9847204684
:1024F000F8BD00BF3C040020042903D849B96FF09F
:1025000015007047052914BF6FF015006FF08500A6
:10251000704762B9436803291B6803F5805308D0EC
:10252000042908D0022914BF02220422DA730020F1
:1025300070470122FAE708499A7311F8010B01323A
:10254000352A83F82000F8D10822DA739A7C42F009
:1025500002029A74EBE700BF3DB3000C2DE9F04393
:10256000056989B006464468D5F8A47005F1840071
:1025700007F033FB07F1880007F007FF5B49C7F856
:10258000D86107F5F07007F084FC95F880304FF0C3
:10259000400923F0760343F0760385F88030A36981
:1025A000022B01BF95F880304FF4806843F001039F
:1025B00085F8803018BF40F2FF38002563689D42DF
:1025C0002BD300254FF0400963689D4258D3002566
:1025D00087F89C50A7F8C851A7F8CC51D4E9041249
:1025E0004FF000084FF000096FF007030120CDE91C
:1025F0000689CDE90330CDE9015538463C4B0096BC
:1026000002F0F2FA3168384607F080FC3046636A1F
:102610009847284609B0BDE8F083E2686B0102EBF9
:102620004512917C41F040019174E26895B9917C2A
:1026300041F001019174E268A2F81090E26830461E
:102640001A441576E168194405F039FB0028E1D1F8
:102650000135B3E71A44917C41F004019174E268BA
:102660001A44917C41F002019174E2681A44917C11
:1026700041F008019174E2681A44A2F81080DDE785
:10268000A2686B0102EB4512917C41F0200191742C
:10269000A268A5B9917C41F001019174A268A2F8E9
:1026A0001090A26865F07F011A441176A168304647
:1026B000194405F004FB0028ACD1013584E71A4425
:1026C000917C41F004019174A2681A44917C41F01C
:1026D00002019174A2681A44917C41F0080191743E
:1026E000A2681A44A2F81080DBE700BF8F84000CB8
:1026F000438C000C70B503699022D3F8A450436852
:10270000002105F1A0001C6807F062FE4022FF21B5
:1027100005F5987007F05CFE4021284605F006FF9D
:102720004FF6FF7398425CD02F4AA5F83001A5F808
:102730005001D369372043F48033D36106F00EF99A
:10274000012342F2107623602368DB0702D4E36999
:10275000D80708D5013E02D26FF0730070BD01208A
:1027600006F0FCF8F0E7002EF6D042F2107623686F
:1027700043F400732360236843F480732360236869
:1027800043F002032360E369990705D5013EE3D3D3
:10279000012006F0E3F8F6E7002EDDD020232361C8
:1027A000A369DA071BD504F58054D4F82435002238
:1027B00043F00203C4F824350024002385F81042B6
:1027C00005F5F07002F09CF92046C7E7013EC3D042
:1027D000012006F0C3F8A369DB07F7D5E3E7034E52
:1027E000F9E76FF00B00B9E700800044A086010014
:1027F0002DE9F04F036987B0D3F8A44043688046C1
:102800001D6805F580566B6996F80A907788B2883E
:102810005FFA89F992B201929A0642BF20226A6158
:10282000EA605807BFB250D54FF0040A19F0040F00
:10283000C5F814A039D0002504F5BA7084F89C506E
:10284000C4F8C851A4F8CC5106F02EF904F5BC70B8
:1028500006F02AF904F5C07006F026F904F5C270F6
:1028600006F022F9F38840209BB243F00103F38085
:10287000B57305F078FD514600F00F0086F8620050
:1028800086F86300B4F83031C3F30C03A6F8643063
:10289000B4F85031C3F30C03A6F8663004F1880095
:1028A00007B0BDE8F04F06F057B819F0010F04D09B
:1028B000082104F1880006F04FF819F0020F04D047
:1028C000102104F1880006F047F80022B273B17CB1
:1028D000CBB2490707D5B37C03F0FB03B37484F88C
:1028E0009C20B37CDBB2DA061FD5B37C43F08003B7
:1028F000B374002384F89C30B37CDBB2DB0749D58A
:10290000326AC4F89420336AC4F898301B0C1BD187
:10291000B37C43F04803B374032384F89C30012153
:1029200004F1880006F018F834E094F89C20032A9B
:1029300030D801A151F822F0FD28000C8B29000CA1
:10294000E729000C7D29000C100605D5B37C43F067
:102950004003B3740123E0E7B27C42F04002B2745A
:10296000022284F89C20D4F89420A4F8CA31C4F838
:10297000CE21D4F89820C4F8D221D0E7F90709D5A0
:10298000002384F89C300221CAE7FA0702D513F02D
:102990000203F6D000234FF001094FF0200A9B46B6
:1029A0007F0804F5BA70002F69D123B1802104F1AA
:1029B000880005F0D1FF01264FF0000B019B05F5C3
:1029C00081594FEA530A09F1040905F58055BAF116
:1029D000000F40F08780019B13F0FE0F00F0F280A3
:1029E0004FF480715AE7D807D4D596F81890002193
:1029F000404609F07F0905F055F960B3B0F81AB008
:102A0000CBF30A0BB9F1000F18D0B4F8C81105F5D3
:102A10008150C1F1400ACA4528BFCA4601F5C471B8
:102A20005246214405F0ADFCB4F8C8319A44B4F8DC
:102A3000CC31A4F8C8A14B44A4F8CC31CB450DD877
:102A4000B4F8CC21B4F8CA319A4207D2B37C43F02F
:102A50004003B37497E74FF0400BD3E7B37C0122F8
:102A600043F04803B374032384F89C3004F5BE7329
:102A7000D3E8EF1FC3E8E02F002884D0F8E7F90778
:102A80002CD5EFF311838AF31288BFF36F8F09F00F
:102A90000F02B273B27C920612D5B27C02F0DF0252
:102AA000B274B27C42F00802B274B27C910742BFA9
:102AB000B27C42F00802B274B27C02F0FE02B27440
:102AC00049460393029005F0E0FF86F80EB0039BA1
:102AD00083F31188BFF36F8F012302987F0809F1F8
:102AE000010960E71AF0010F19D0F1B2EFF3118379
:102AF0000293202383F31288BFF36F8F01F00F033B
:102B0000AB73AA7DD3B252060FD503F0BF03AB75EA
:102B100085F80EB0029B83F31188BFF36F8F4FEAE5
:102B20005A0A013609F1040951E740462F8B05F096
:102B3000B9F8BFB20390002840D005F0DAF8034698
:102B400000283BD0C7F30D07E7B1018A428A0493FE
:102B5000521AC1684069091A521ABA4228BF3A4645
:102B600003F10C001146059203F0AEFB059A0146F5
:102B7000484605F006FC039B5A8B049BC2F30A02ED
:102B8000974204D2AB7D03F0FE03AB750CE0D9682D
:102B900058695A8A091A1B8A521A9A420AD131462E
:102BA00004F5C07005F071FF314604F5BC7005F006
:102BB0006CFFADE7AB7D03F0FE03A8E7314604F5FB
:102BC000C270F4E707B0BDE8F08F00BF30B540B386
:102BD000B0F1205F4FEA906323D2013BDBB2082BB8
:102BE0001AD8114A114DD45C114AD15C114AD25CF9
:102BF000EB5CC5B2A54214D8C0F305248C4210D8B2
:102C0000C0F3055191420CD8C0F3853098428CBF77
:102C10006FF01500002030BD3F2300241A461946EE
:102C2000E7E76FF01500F6E78DB3000C72B3000C08
:102C300084B3000C7BB3000C2DE9F3470C464FF036
:102C40000008174943682143064615461F68CDF81A
:102C5000048006F0B1FB022805D0C5F800800020F2
:102C600002B0BDE8F0874FF00609B4FBF9F85FFA4F
:102C700088FA5146304601AA06F027FC0028EFD119
:102C80003F2309FB18444C37E4B257F82A20E400EC
:102C9000A3401340E3D0019AB2FBF3F22A60DEE7CF
:102CA00000FFFF0F2DE9F74F0D464FF0000B1C46BC
:102CB000436880469F68924607EB81073549D0F804
:102CC000109029433E6ACDF804B006F075FB022847
:102CD00003D0C4F800B000203FE0396A01F00F01D2
:102CE000514550D0BAF1060F02D18B1F052B4AD99E
:102CF0000B290AD8DFE801F0061E273434373C3CA4
:102D00003C3C3C3CD9F8003001933A6A012D4FEA33
:102D1000124218BFD2B2F30431D51D2A28BF1D229A
:102D20000123013292B293409AB2019BB3FBF2F3BA
:102D30002360D0E7AB1EDAB2092A24D809EB830955
:102D4000D9F80430E0E7012D20D00C2201214046C3
:102D500001ABFFF7A7FF0028D7D003B0BDE8F08F85
:102D60004FF40043D0E7404601A900F015F8F2E720
:102D70000639404601AAC9B2FFF75EFFEBE7012A18
:102D800038BF0122D1E76FF08500E6E76FF05B0006
:102D9000E3E700BF00FFFF1B37B50C4641680A6838
:102DA000136913F4807303D10020236003B030BD96
:102DB000136BDB0701D4094BF6E78B68D56BD3F8AF
:102DC0008010052201AB01F00F01FFF76BFF002817
:102DD000ECD1019BADB26B432360E7E7006CDC02F2
:102DE0002DE9F84FD0F804908246D9E9004B0F4600
:102DF0001546CEB2002A00F01D810846FFF7E6FE18
:102E00008046002840F01981BB0E082B00F2158186
:102E1000DFE813F0090013005A009F00B500BB0063
:102E2000C500F900070163692A7823F0800343EAAB
:102E3000C21363614046BDE8F88FD9F80820A9782D
:102E4000D2F8803061F30303C2F880306B78A3B905
:102E5000E36A2A7803F07F0343EAC213DBB2E3623A
:102E600001F094F80546764EA36F002BE2D001F0F6
:102E70008DF8431BB342F7D9DCE7236B704F43F067
:102E80000102DBB243F001032263236301F07EF809
:102E90000646A36F2BB101F079F8831BBB42F8D92A
:102EA000C8E7E26BAB886FF30F021343E36301F0F3
:102EB0006DF80646624FA36F002BC9D001F066F88B
:102EC000831BBB42F7D9B5E72F790B2F21DD04F126
:102ED000440252F8263029880B2F61F3090342F887
:102EE000263004F1480252F82630A97804F1400453
:102EF00061F3050342F8263054F8263023F4F063DA
:102F000022DC0027EA7843EAC2133B4344F8263028
:102F100090E7D9F80830DFF828B103EB8609D9F833
:102F200084303B4343F04003C9F8843001F02EF86D
:102F30008246D9F884305B06C9D401F027F8A0EBAB
:102F40000A035B45F5D975E70B3F3F0207F4E067DD
:102F5000D8E70623B6FBF3F23F2103FB12634C34A0
:102F6000D2B2DBB254F82200DB00994020EA010023
:102F7000297801FA03F3034344F822305AE72B7807
:102F800003F00303CBF8103054E7DBF81C302A7849
:102F900023F0800343EAC213CBF81C304AE7D9F888
:102FA0000810012E01EB86010A6ADAF8104022F4BB
:102FB000005222F00F024FEA02422B884FEA1242DF
:102FC00001D0FF2B01D842EA0342EB78A87803F046
:102FD0000F0343EA403313430B6200F0D7FF074669
:102FE000DFF85CA0D9F808305B682BB100F0CEFFA9
:102FF000C31B5345F6D91DE7002E7FF41BAFEB78BA
:1030000084F83A3016E7D9F80830C7F3052703EB00
:103010008703D3F88020297861F30302C3F8802066
:1030200008E7D9F80C102B78CA6822F0FF02134386
:10303000CB60FFE66FF01508FCE66FF08508F9E657
:10304000BFD401002DE9F843012743680669D3F88E
:1030500000800C4608F1400252F82130DFF8409021
:1030600043F0020342F8213001F118039F4000F0C1
:103070008DFF0546D8F8103037EA030308D000F07A
:1030800085FF431B4B45F5D96FF07300BDE8F8830E
:103090000122F36AA24013430020F362F6E700BF67
:1030A000FF0D27072DE9F84F0546476808460C46EF
:1030B000FFF78CFD0646002842D12146284606F03F
:1030C0007BF9022800F09580A10E3A68BB680929B7
:1030D00036D8DFE801F0051F244135464C563561EE
:1030E000536943F0020353614FF00008DFF8089181
:1030F000DFF808A1C4F3076303F0FC03142B58D1D5
:103100007B68DB68DB071DD47B69434558D86FF0CB
:10311000730617E0D36A43F00203D362E4E70F209B
:10312000E1B24B1C2A6903EB43035B0000FA03F393
:10313000108F034209D02846FFF784FF0028D3D020
:103140006FF085063046BDE8F88F012303FA01F1E0
:10315000136B0B431363C7E72846E1B206F08AFA04
:10316000ECE77A68D36943F00203D361BCE714F05B
:10317000FF02B9D003EB82031A6A42F480721A622A
:10318000B2E7C4F3052203EB8203D3F8802042F0B8
:103190004002C3F88020A7E7FA68C4F3055302EBA6
:1031A00083020123D16BC4F3853083400B43D36387
:1031B0009AE72146284606F0FFF80228A4D1C1E785
:1031C00099F800305BB1FDF79DFD0D4B1B5833B1F5
:1031D0000A20002106F056FF08F101088AE700F0F6
:1031E000D5FE834600F0D2FEA0EB0B035345F9D980
:1031F000F2E76FF07706A5E715110020BFD40100B4
:1032000008000000F8B54368234A1D6804696B692B
:10321000487A1A400B7C00021B0600F4706003F031
:1032200040730343087AC001C0B203438878400169
:1032300000F020000343887A000100F010000343EF
:10324000C878C00000F0080003434878800000F010
:10325000040003430878400000F0020003431343D6
:103260006B614B6823600B785BB100F08FFE064604
:103270000A4F2B69DB0705D400F088FE831BBB4295
:10328000F7D9F8BD636B43F480536363238F43F036
:1032900001032387F5E700BF41F0FFFCFF0D27077F
:1032A0002DE9F84306690C46338F9D0607D496F83E
:1032B0003A30052B05D16378002B40F08780BDE8BC
:1032C000F88343681D689A68EB6A23F00203EB6297
:1032D0008B78012B1ED0EB6AE27803F07F0343EA80
:1032E000C213DBB2EB626278EB6A520002F00202B8
:1032F00003F0FD031343EB6200F048FE0746DFF8DE
:103300001081AB6F002B4FD000F040FEC31B434534
:10331000F7D9D4E70978736BCB40D807CFD5D2F86B
:103320008030DFF8F09061F3030343F04003C2F80C
:10333000803000F02BFE0746DFF8D480D9F88030CB
:103340005A064CD400F022FEC31B4345F6D9B6E71B
:103350002B6B627903F0490343EAC213A279DBB213
:10336000520102F020021343E279DFF8A480120137
:1033700002F010021343227A920002F00402134377
:10338000627A520002F00202134343F001032B63FE
:1033900000F0FCFD0746AB6F002B9CD000F0F6FD63
:1033A000C31B4345F7D98AE76378002B87D000F029
:1033B000EDFD0746DFF860802B69DB053FF57BAF4D
:1033C00000F0E4FDC31B4345F6D978E7736B43F483
:1033D00000537363338F43F0200333876FE7EA6B47
:1033E000A3896FF316021A43A37ADFF824801B0423
:1033F00003F4FE031343EB6300F0C8FD0746AB6F15
:10340000002BA5D000F0C2FDC01B4045F7D956E700
:10341000BFD4010000000144FF0D27072DE9F74F3D
:10342000D0F810800E78D8F830500C46F54015F0E2
:1034300001056AD191F807A0D8F8343023FA0AF3CD
:10344000DF0762D54368BAF10B0F1F68D3F81090FD
:1034500041DD07F1440252F826306189BAF10B0FC1
:1034600061F3090342F826303B46217B53F8482F8D
:1034700061F3050243F82620A07907F1400252F8D3
:1034800026104FEAC02021F47E5100F460503FDC4A
:103490006379DFF8C8A0DB01DBB203430B431D43B4
:1034A00042F82650E2892E4BF96E03EA0243228A43
:1034B0006FF3DE11D20192B213430B43FB6600F0AF
:1034C00065FD0546BB6F5A0631D500F05FFD431B15
:1034D0005345F7D919E09B6803EB860BDBF8843082
:1034E0004AEA030343F04003CBF8843000F04EFD7A
:1034F0000246DBF8843001925906AAD400F046FD5A
:10350000019A1649831A8B42F3D903B0BDE8F08FB4
:10351000AAF10B0A4FEA0A2A0AF4E065B8E7012289
:10352000D8F83030B2401343C8F83030EDE7237993
:10353000002BEAD0D9F81C300A4D43F48033C9F887
:103540001C3000F023FD0446D9F80C30DB05E6D42E
:1035500000F01CFD031BAB42F6D9D6E7BFD4010037
:103560000000FF7FFF0D2707F8B505692B8FDA06EE
:103570003DD443680A7C5C68CB7B52009B0002F020
:10358000020203F0040313438A7B606902F0010224
:1035900020F00700134303436361E36917480A7B84
:1035A00018404B7A12029B0402F4706203F4701309
:1035B00013430A7AD201D2B213434A78920002F03E
:1035C000040213430A78520002F002021343034339
:1035D000E3610B785BB100F0D9FC0646084FE36865
:1035E000DB0705D400F0D2FC831BBB42F7D9F8BD42
:1035F0002B8F43F010032B87F9E700BF79F0C3FF4F
:10360000FF0D27072DE9F84305690E786B6B0C4613
:10361000F340DA074BD491F807C02B8F23FA0CF351
:10362000DB0744D54768012EB968638A01EB860140
:103630000A6A22F4745222F00F024FEA02424FEA61
:10364000124201D0FF2B01D842EA03426379003BCA
:1036500018BF012342EA4332237C0BB142F480526B
:10366000637D207ADB02800200F4806003F4006353
:103670000343207D0CF00F0C400243EA0C0300F4DE
:10368000007003432079DFF85C90000200F4807042
:10369000034313430B6200F079FC8046BB685B6810
:1036A0003BB100F073FCA0EB08034B45F6D9BDE835
:1036B000F883B31E092B0FD8E26805EB83035A6029
:1036C00001226B6BB2401343012E6B6302BF2B8F41
:1036D00043F002032B87EAE7002EF1D1E37985F866
:1036E0003A30EDE7BFD401002DE9F047DFF8D0C153
:1036F000744B86B04FF4606E0125CDE900C33023D2
:103700006946CDE902E3466804460769049540F23C
:103710000118FFF777FD4FF40043CDE9008340F235
:103720000713DFF8A49169462046CDE9029304957A
:10373000FFF71AFFB368DFF894911D7000F026FCC4
:103740000546B368D3F80480B8F1000F09D000F043
:103750001DFC431B4B45F4D96FF0730006B0BDE868
:10376000F08705230326DFF868A187F83A300125A2
:1037700006274FF002091422002101A806F028FEB6
:10378000694620468DF80770CDF800A0ADF81250BC
:103790008DF80450FFF736FF1422002101A806F02F
:1037A00017FE4C4B6946204600938DF80770ADF824
:1037B00012908DF80450FFF725FF1422002101A874
:1037C00006F006FE444B69460093072320468DF819
:1037D0000730ADF812508DF80450FFF713FF40F298
:1037E0000113CDE900384FF4803369462046029337
:1037F000ADF80C50FFF754FD384A394B4FF47001C7
:10380000CDE9002303232046CDE902136946CDF814
:103810001080FFF703FE40F6010332486946CDE908
:103820000003204605F04EFF41F201432E4F69464A
:10383000CDE900734FF40067204605F043FF2B4BA2
:1038400069462046CDE9003705F03CFF284B694624
:103850002046CDE9003705F035FF264B6946204666
:10386000CDE9003705F02EFF234B69462046CDE910
:10387000003705F027FF013E7FF479AF63683246D9
:103880005B6820461D491D612B4605F044FF2B4611
:103890004A4620461A4905F03EFF2B46324620464E
:1038A000184905F038FF2A462046174905F048FF19
:1038B00020462A46154905F043FF30464EE700BF33
:1038C00001000001001BB70000000101BFD401008E
:1038D00000FFFF1B01FFFF1B02FFFF1B00C0FF0BD0
:1038E0000100010C00FFFF0F01FFFF0F02FFFF0FA0
:1038F00003FFFF0F04FFFF0F05FFFF0F30E7FF1F60
:1039000037EEFF1F35ECFF1F3E7F34240E3F0524AA
:1039100008B5074806F064F838B10648FDF716FC0C
:103920000448FCF719FD002008BD6FF01200FBE70A
:103930004CA5000C3939000C0A2838B50446074D4F
:1039400004D1AB680D2128465B689847AB680348F3
:103950005B68E1B29847204638BD00BF4CA5000C1B
:1039600010291FB528BF10210C460C4BD3F8E021BD
:1039700012BA0092D3F8E42112BA0192D3F8E821E6
:1039800012BA0292D3F8EC310A461BBA6946039385
:1039900006F011FD204604B010BD00BF0070000A03
:1039A0002DE9F04300250127DFF8E0E000F1020CEB
:1039B000EBB2994202D80020BDE8F08330F82540F0
:1039C0003CF82560C4F3422804F00F03B8F1010F5E
:1039D0005EF82330C4F304122AD15BB303EB520820
:1039E0004FEA143998F8304012F0010F15BF04F077
:1039F0000F0404F0F00444EA091449EA040488F8C6
:103A0000304003EB020898F8404044F0010488F885
:103A1000404016F0010F07FA02F803EB02040BD145
:103A200016F0020F0ED194F8409009F0FB090DE05A
:103A3000002BEED10135BBE7D3F8109048EA090915
:103A4000C3F8109094F8409049F0040984F840902D
:103A500094F8409016F0080F14BF49F0020909F0DD
:103A6000FD0984F840901C6816F0100F14BF48EA56
:103A7000040424EA08041C60DC6E07FA02F236062D
:103A80004CBF224324EA0202DA66D3E77CAC000C86
:103A900070B5054600F07AFA0446074EEB69DB067E
:103AA00004D000F073FA031BB34200D970BD0220AA
:103AB00005F070FFF2E700BFBFD40100F7B50D4677
:103AC00047680669BC682368204623F00203236028
:103AD000FFF7DEFFEB79002B64D1F371297902291E
:103AE00060D8204605F038FF2B7933716B79012BB4
:103AF00052D1636823F0400363602046FFF7C8FF9C
:103B00006B797371AB79042B4CD82B4A2046D35C6C
:103B1000626822F007026260626813436360FFF725
:103B2000B7FFAB79B3710023F86901938368DB6851
:103B300013B1796A01AA9847019A2868002A34D0FB
:103B40005308010B0005C01841F100010023FCF7E8
:103B500057FA4FF6FF72431E61F10001934271F173
:103B6000000125D22368404280B223F460432360E1
:103B7000A0812B68204633607B7B012B02BF23682A
:103B800043F080032360236843F002032360FFF7C0
:103B90007FFF002003B0F0BD032B03D1636843F027
:103BA0004003A9E76FF08500F4E76FF01500F1E737
:103BB0006FF02100EEE700BF96B3000C2DE9F7434C
:103BC00046680746D0F81080F069B468836896F8B4
:103BD0000C901B68716A2BB96FF05705284603B02B
:103BE000BDE8F0839847054610B110F1780FF5D184
:103BF000D6E9070183681B68002BEDD0984705467E
:103C000010B110F1780FE9D1BF232375002388F894
:103C100007303379042B02D96FF08505DEE7544A6B
:103C20002046D35C626822F0070262606268134338
:103C30006360FFF72DFF3379204688F806307179ED
:103C400005F08AFE737988F80430B379012B7ED1B0
:103C5000636823F0400363602046FFF719FFB379E0
:103C600088F80530B16832690B68120523F44C13EB
:103C700002F440121A4373691B0403F440331343E4
:103C80000B60236843F000532360236823F01C0378
:103C9000B9F1000F62D023602368002143F0804314
:103CA0002360B06A01AA05F05EFD051E96DB019B4C
:103CB000002219791868FFF773FE054600288DD198
:103CC0006368204643F400336360FFF7E1FE6368F6
:103CD000204643F480336360FFF7DAFEF069716ACF
:103CE0008368DB680BB101AA9847019A3068002A03
:103CF00037D05308010B0005C01841F10001002323
:103D0000FCF77EF94FF6FF72431E61F1000193420A
:103D100071F1000128D22268404283B222F460424D
:103D20002260A38133683846C8F80030B3699847E9
:103D3000737B2046012B02BF236843F0800323607E
:103D4000236843F002032360FFF7A2FE46E7032B3C
:103D50007FF462AF636843F040037CE743F0040301
:103D600099E76FF0150539E76FF0210536E700BFD9
:103D700096B3000C4FF0E0230D4A99691268186958
:103D80009B69002908BF1146002B08BF134610F499
:103D9000803F084801D1994205D201681144016071
:103DA0004FF0E021096900681044C01A704700BF55
:103DB000DC100020D81000202022094B002083F8BE
:103DC000232042F6E062074B1A60074B42F6DF629F
:103DD00018604FF0E0235A61072298611A6170471A
:103DE00000ED00E0DC100020D8100020684620F034
:103DF00007018D4619B5FFF7BDFF1449144B08683C
:103E0000D3E90042001942F10002C3E90002002395
:103E10000B6042F6E0630F4AD2E90041001BB0FBA1
:103E2000F3F043431B1941F10001C2E90031EFF304
:103E30001181202383F31288BFF36F8F01F040FBC1
:103E4000FCF7F2FEBDE8194085467047D810002007
:103E5000B8070020B00700202DE9F041374E89B1A6
:103E6000421C0AD14FF0E022136923F001031361D1
:103E70004FF07F433360BDE8F0813568012806DCF0
:103E800000240AE0431C3568F8D140F2755040F236
:103E900076539842A8BF1846441EEFF3118720239B
:103EA00083F31288BFF36F8FFFF764FF4FF0E023B7
:103EB0002349D3F818C0D1E9002380184FF000023D
:103EC00043F10003C1E900031E4B1A601E4B1A6840
:103ED000831A2DD442F6E06E42F6DF6814FB0E849E
:103EE0001C44B4FBFEF4131A0EFB0433B3F5806FCD
:103EF00038BF4FF48063154A934228BF13464FF0F2
:103F0000E0223360013B946953610023A44593612F
:103F1000ACEB0400D1E900320DD20544EB1842F1BC
:103F20000002C1E9003287F31188BFF36F8FA2E767
:103F30004FF48063E3E7C318F1E700BFDC10002013
:103F4000B8070020D8100020B007002060CCFF0088
:103F500038B5EFF31185202383F31288BFF36F8FF9
:103F6000084B1C68084B1B68E41AFFF703FF85F336
:103F70001188BFF36F8F42F6E0632044B0FBF3F08B
:103F800038BD00BFB8070020B007002038B5EFF3F8
:103F90001185202383F31288BFF36F8F044B1C68B5
:103FA000FFF7E8FE85F31188BFF36F8F204438BD1B
:103FB000B807002038B5EFF31185202383F312886A
:103FC000BFF36F8F064B9C6805F01DFD85F31188CC
:103FD000BFF36F8F2046BDE83840FCF735BE00BF09
:103FE000E010002038B50A4B53F82040013053F858
:103FF0002050A54200D838BD606830B1037EDB0791
:1040000001D405F0D5FC0834F3E723689847FAE7B4
:10401000C8AC000C012270B5294B86B003201A7081
:10402000FFF7E0FF01F014FB0420FFF7DBFF254C56
:10403000254D2646AE4204F130040FD301F0C6F8F8
:10404000204CAC4226D301F0D5F8FCF75BF91F4AAF
:10405000938923F00103938106B070BD54F80C3CA2
:10406000059354F8103C049354F8143C039354F80B
:10407000183C029354F81C3C019354F8203C0093E4
:1040800054E90A2354E90C0100F040FD54F8303C97
:104090005E65CEE7D4E90A23B3F1FF3F08BFB2F172
:1040A000FF3F05D052EA0301206803D100F078FDFC
:1040B0003034C6E70649183001F072F9F8E700BF5E
:1040C0001511002090AA000C90AA000C48080020AE
:1040D00013A0000C882370B5134E012203FB006669
:1040E000002386B0CDE904230F220193CDE90232EB
:1040F00014234FF4A0720D4D0D4903FB00550446E7
:1041000002FB00110B4B3046009500F0FFFC337CA6
:104110002C7423F004033374074B013403EBC423E2
:10412000EE606B6006B070BDC0070020E01000209C
:10413000182100208D9B000C181900207FB500204D
:10414000FFF750FF2B4B83F308880025E0232A4C10
:1041500084F82230E57725766576A57684F82050B8
:10416000E576636A43F4E0236362636A43F4002301
:104170006362A563E3689BB243F0BF6343F4083313
:10418000E360FCF76FFCFCF749FD4FF0FF33A362DF
:10419000E362FCF721FFFCF7BBFD184800F0F4FCDC
:1041A0000120FFF71FFF0220154CFFF71BFF01F056
:1041B00005F8144B4FF480625C61134B134905936F
:1041C00001232046CDE90353CDE90155104B00955D
:1041D00000F09CFC0646237C204623F00403237455
:1041E00005F0F0FE2846FFF775FF31462046084AE5
:1041F000FCF7F8FC1821002000ED00E0D0080020BA
:1042000048080020E01000209CB2000C582200203A
:104210001540000C38B5064C064DAC4201D30020C9
:1042200038BD2046D4E9011205F032FC1434F4E71D
:10423000DC030020F003002030B5054B85B0DDE93C
:1042400008450293CDE9004505F0E0FB05B030BD1F
:10425000095F000C38B5074C074DAC4201D3002074
:1042600038BD204605F038FC08B91C34F5E76FF07E
:104270001500F5E7C0030020DC03002073B50C46F1
:10428000EFF31181202585F31288BFF36F8FC56886
:104290005DB125602B68C3608369013383610020B1
:1042A00081F31188BFF36F8F11E052EA030603D147
:1042B0006FF00B002560F3E7CDE9002302460830DC
:1042C00000F086FE18B9034B9B685B69236002B05F
:1042D00070BD00BFE0100020F7B50D4604469DF804
:1042E0002010EFF31187202080F31288BFF36F8F27
:1042F000266AE068864240D22668B4421AD0CEB11F
:10430000304605F04EFC06F1180005F05CFF29462A
:10431000002554F8082F706906F04DF83046C6F8AD
:10432000805005F04FFE2046394605F082FE2846B3
:1043300003B0F0BDA268A9B12946E06906F03BF8D8
:10434000E369A26813446269E361934201D123697E
:10435000E3610020236A0133236287F31188BFF3EE
:104360006F8FE5E7A06923692946984208BF606915
:10437000801AA06106F01FF8EBE752EA03010BD0A8
:10438000074904F1080089684D61CDE900233946E9
:10439000224600F01DFECBE76FF02200DDE700BFF4
:1043A000E0100020F7B504460846EFF311862021FF
:1043B00081F31288BFF36F8F216A00293BD0A26876
:1043C000A16905F0F8FFA369A26825681344626932
:1043D000A361934204BF2369A361236AAC4203F142
:1043E000FF33236236D02846002D34D0002705F055
:1043F000D8FB05F1180005F0E6FE6969A268E069DE
:1044000005F0D9FFE369A268284613446269E361B5
:10441000934204BF2369E361236A01332362C5F831
:10442000807005F0CFFD04F10800314605F001FE73
:10443000384603B0F0BD52EA030111D00A49896839
:104440004861CDE900233146224604F1080000F01E
:10445000BFFDEEE7002086F31188BFF36F8FE8E71A
:104460006FF02200F7E700BFE01000202DE9F341D4
:10447000044617461E46EFF31188202383F3128863
:10448000BFF36F8F304BC2689B6872B180689842EF
:1044900017D057EA060216D188F31188BFF36F8F41
:1044A0006FF00F0002B0BDE8F08193F90E100132F9
:1044B0002161C4E9023288F31188BFF36F8F0020B5
:1044C000F0E72169F3E793F90E1090F90E30994265
:1044D00030DA9942A8BF194605F077FB0546224617
:1044E0004146CDE90076194800F072FD0028E6D07B
:1044F000EFF31186202383F31288BFF36F8FA06838
:10450000D0B1236821699C420AD04BB193F90E3097
:104510009942A8BF19466FF07F039942B8BF194668
:1045200005F053FB40B13146084805F082FD6FF0BD
:104530000A00B7E70025D2E7002DF4D186F31188F1
:10454000BFF36F8FF3E700BFE010002016110020CB
:10455000F8B583680546002B40D0234A9268934201
:104560003FD1C368012B03D9013BC3600020F8BDD4
:10457000EFF31187202383F31288BFF36F8F016954
:10458000806805F022FB2C68A54207D10023C5E90D
:10459000023387F31188BFF36F8FE7E7002CF5D064
:1045A000D4E90032002613605A60237CC4E9006617
:1045B00023F002032374A66004F1180005F003FE43
:1045C000AC6094F90E3020462B61C4F8806005F091
:1045D000F9FC3946054805F02CFDC7E76FF01500DA
:1045E000C5E74FF0FF30C2E7E010002016110020B1
:1045F00037B51146EFF31185202282F31288BFF3FD
:104600006F8F04689CB12368426823F003039442CF
:10461000036008BF43600121204605F05AFB0446B1
:1046200085F31188BFF36F8F204603B030BD51EA88
:104630000302F5D000F10802CDE900131046294627
:1046400000F0C6FC0028EFD1014B9B685C69EBE7EA
:10465000E010002070B5EFF31186202383F3128859
:10466000BFF36F8F0468A0421BD0D4B1D4E90032ED
:10467000002513605A60237CC4E9005523F002032F
:104680002374A56004F1180005F09DFD2046C4F8D0
:10469000805005F097FC3146BDE87040064805F0B3
:1046A000C8BCD0E902329A4218BF0133836086F356
:1046B0001188BFF36F8F70BD1611002013B5EFF393
:1046C0001181202484F31288BFF36F8F846844B172
:1046D000013C846081F31188BFF36F8F002002B02A
:1046E00010BD52EA030406D181F31188BFF36F8F26
:1046F0006FF00F00F3E7CDE900230246014800F018
:1047000067FCECE71611002070B50546EFF3118643
:10471000202383F31288BFF36F8F00232C68A542F8
:1047200019D0C4B1D4E9003213605A600023227C4E
:10473000C4E9003322F002022274A36004F11800DD
:1047400005F041FD6FF00A032046C4F8803005F003
:1047500039FC0123E2E70022AA6023B986F311881D
:10476000BFF36F8F70BD3146BDE87040014805F062
:1047700060BC00BF161100202DE9FF410446202730
:10478000534EEFF3118887F31288BFF36F8FD4F87D
:104790008C50F5B9022104F1A40005F0D3FA0028E9
:1047A00070D004F19C0500220121284605F0C8FCC8
:1047B0000028F8D100234FF0FF3202934FF0FF336F
:1047C0004146CDE90023434804F1940200F028FD5E
:1047D000D7E7D4F890202B689542C4F88C3008BFF6
:1047E000C4F89030D4F8A43043F00203C4F8A430E5
:1047F000EB6823F0040343F00103EB606B6888F37C
:104800001188BFF36F8F28469847EFF3118887F31D
:104810001288BFF36F8FEB68D80623F001023ED4F5
:10482000EA60EB689A0717D5306823F00203EB6063
:1048300090B10021036878B1426895423DD1036888
:10484000002934D172683360904200D17360002334
:1048500040F8083BFFF7FEFED4F8A43023F0020333
:10486000C4F8A430DB0530D4D4F88C30003B18BF3A
:10487000012388F31188BFF36F8F002B81D005F0DF
:1048800067FB7EE7D4F8A430D90693D5C4F8A4001A
:1048900088F31188BFF36F8F04B0BDE8F08123F077
:1048A0001103EB6005F11000FFF7D4FEB9E70B60D0
:1048B0007368984208BF7160C9E701461BB11A6866
:1048C00018461346B7E71A46FAE70023D1E700BFB8
:1048D000001100201611002070B5C3680546C3F30F
:1048E00040069B070C460DD50122002104F108006B
:1048F00005F01CFA00232360054B65605A681AB95D
:10490000C3E90044304670BD14605C60FAE700BF44
:1049100000110020F8B5C36804469A070E46C3F399
:10492000400542D45F0742D40B680BB983680B6023
:10493000E368D80742BFA36802253360376858BFD1
:10494000012557B31B4B9A68D7F888309A421ED17D
:1049500005F0D6FA80F00100C0B2D7F8A430D9072C
:10496000C3F380021CD5F2B1F8B100232360D7F85D
:10497000903073B9C7E92344384605F0FDF9E36880
:1049800043F00403E3603368A3602846F8BD0020C9
:10499000E3E71C60C7F89040EEE76FF0150506E00E
:1049A0006FF0120503E01B07DFD56FF00F05002342
:1049B0003360EAE7E01000200146014805F059BAEB
:1049C00078090020F0B50446002089B00E9DC4E9A6
:1049D000230004F19400C4E9250004F19C00C4E91B
:1049E000270055B32879002840F2011008BF0120A4
:1049F000C4F8A40000204FF0FF364FF0FF37CDE998
:104A00000330CDE90100CDE9066720460C4B009448
:104A100000F0EAF855B1296811B1204605F076FAA0
:104A20006B791BB1A38943F00103A381204600F0F9
:104A3000B7F8C4F8884009B0F0BD0120D8E700BF3E
:104A40007947000C37B501900846EFF31184202117
:104A500081F31288BFF36F8FC16811F01E0F16D15A
:104A600053EA020508D101A9FFF754FF84F3118826
:104A7000BFF36F8F03B030BD41F00801C1600199F1
:104A800010308161034900F08BFC0120EEE700202B
:104A9000ECE700BFED9D000C01460148FFF7D2BFD7
:104AA00078090020F7B50C4616461D460190EFF335
:104AB0001187202383F31288BFF36F8F084605F018
:104AC0004CF955EA060309D1204601A9FFF722FF58
:104AD00087F31188BFF36F8F03B0F0BDE3683246F0
:104AE00043F00803E360019B0449A36204F1100052
:104AF0002B4600F055FC0120EAE700BFED9D000CBD
:104B000001460148FFF7CEBF780900202DE9F043A8
:104B1000984685B000F15803C0E91633109B002673
:104B200083810423073222F0070503740F9B01EBF6
:104B300005090F4683734946C0E906668660C67359
:104B40000446FBF7FFFC0E9B073020F007002067B0
:104B5000C4E91A7502930D9BA9EB000901930C9B04
:104B60004A460093394643462046FCF71FF8054B5A
:104B700066659B6803B15B6F4846636705B0BDE837
:104B8000F08300BFE0100020012303748381002321
:104B9000C0E91A334367014B98607047E01000206A
:104BA00038B50446EFF31185202383F31288BFF351
:104BB0006F8F037C5B070FD5183005F004FB237C57
:104BC000204623F00403237405F00BFA2946BDE8C0
:104BD0003840044805F02DBA85F31188BFF36F8F74
:104BE00038BD00BF16110020F0B5002587B005952F
:104BF000109DDDE9127604950F9D044603950E9DE8
:104C000002950D9D01950C9D0095FFF77FFFB6F174
:104C1000FF3F08BFB7F1FF3F05D056EA070305D1B4
:104C20002046FFF7BDFF204607B0F0BD3A463346A9
:104C300004F11800014900F0B3FBF4E713A0000CE5
:104C40006FF00A01094A9368C3F880100849D867D1
:104C50004B6843F080534B60002383F31188BFF30C
:104C60006F8F9368D3F88000704700BFE01000207A
:104C700000ED00E038B590F910200146002A037CD1
:104C800004DA03F07F03037405F064F90D4D2A463E
:104C900052F8184FAB68944200D004B9EC688B42CC
:104CA00007D01A7CD20604D1DA897F2A01D9A269F9
:104CB0002AB1A34202D0204600F0F4FA23466B61E9
:104CC00038BD00BFE010002070B590F91020037CC3
:104CD000002A2FDBD9062DD11A4C63F07F03224620
:104CE000037452F8183FE169934207D1C0E90021EB
:104CF0000860E0610FE09942F8D01B68002BF5D006
:104D000093F90E6090F90E50AE42F4DD5968C0E997
:104D1000003108605860A569954200D005B9E56882
:104D2000A3681A7CD20606D1DA897F2A03D9AA6938
:104D30000AB9636170BDAB4202D0284600F0B2FAF6
:104D40006561F7E7E0100020034648B9EFF30582FC
:104D500032B9064A51699268914201D0FFF770BF9B
:104D600083F31188BFF36F8F704700BFE0100020FE
:104D700038B5184CA168E0690B68814214BF1A4627
:104D8000002249680B605960A368E1692AB9124A98
:104D9000C3E900210B60E3610AE092F90E5093F938
:104DA0000E00854212DD5168C3E900210B6053609B
:104DB000A569094B9D4200D005B9E568A3689D42ED
:104DC00002D0284600F06EFA656138BD8A42DED016
:104DD0001268DBE7E0100020F8100020002A2DE91F
:104DE000F0470CBF4FF010094FF00809027C044651
:104DF00019EA020F0E460F4628D149EA0203D209EA
:104E000046D10374B9F1080F48D04FF00008DFF81D
:104E1000F0A0534653F8185F9D4200D00DB9DAF860
:104E20000C50DAF80830AB4202D0284600F03AFACB
:104E3000B9F1100FCAF8145008D0204601F0ECF96F
:104E4000B8F1000F02D02F48FFF79EFE2C4B9B6855
:104E5000A3424FD1EFF30583002B4BD1A289D20798
:104E600011D586F31188BFF36F8F83F31188BFF3D9
:104E70006F8F0423184602DFEFF31187202383F39B
:104E80001288BFF36F8F3846BDE8F047FFF7D8BEF2
:104E900003F07F03037405F05DF8B3E7A36813B173
:104EA000204605F05FF804F1180005F08CF9A56DB7
:104EB00004F15808A84511D04FF0000A75B12846F2
:104EC00005F050F805F1180005F07DF92846C5F801
:104ED00080A0FFF7F9FEA56DA845EFD1084B9B68B0
:104EE0009C4292D1EFF30588B8F1000818BF4FF04B
:104EF00001088CE786F31188BFF36F8FBDE8F08758
:104F0000E0100020D008002070B50F4D06462B465B
:104F100053F8184F9C4200D004B9EC68AB681A7C77
:104F2000D20604D1DA897F2A01D9A2692AB1A34223
:104F300002D0204600F0B6F923466B613046BDE84A
:104F40007040FFF701BF00BFE010002070B5EFF325
:104F50001186202383F31288BFF36F8F1A4CA16848
:104F6000E0690B68814214BF1A46002249680B6051
:104F70005960A368E1692AB9144AC3E900210B60AA
:104F8000E3610AE092F90E5093F90E00854216DDB6
:104F90005168C3E900210B605360A5690B4B9D422A
:104FA00000D005B9E568A3689D4202D0284600F00C
:104FB00079F965613046BDE87040FFF741BE8A422D
:104FC000DAD01268D7E700BFE0100020F810002008
:104FD000F8B5124B0C46DDE9067611469868104A82
:104FE0001060EFF31182202282F31288BFF36F8FDB
:104FF0009D68284604F0C0FFB6F1FF3F08BFB7F137
:10500000FF3F06D03A463346064905F1180000F046
:10501000C7F92046BDE8F840FFF712BEE0100020B7
:105020000811002013A0000CF8B50446EFF3118717
:10503000202383F31288BFF36F8F037C49B203F000
:105040001F02002A0CBF0126002635D103F07F0382
:105050002A4D037404F07EFF2A46037C817363F0BB
:105060007F03037452F8183FE869934207D1C4E9FB
:1050700000200460EC610DE09842F8D01B68002B22
:10508000F5D093F90EC08C45F6DD5968C4E90031BE
:105090000C605C60AC69944200D004B9EC68AB6809
:1050A0009C4202D0204600F0FDF86C6187F3118825
:1050B000BFF36F8F3046F8BD9B071CD5856804F0A1
:1050C00049FF81732B689D4209D16B68C4E9005385
:1050D0001C606C60EAE76A689A42F6D01B68002B95
:1050E000F3D093F90E208A42F5DD5A68C4E9003204
:1050F00014605C60DAE78173D8E700BFE01000203D
:10510000034648B9EFF3058232B9064A51699268FD
:10511000914201D0FFF794BD83F31188BFF36F8FE5
:10512000704700BFE0100020F8B550EA01030646C2
:105130000C4603D104F00CFF0020F8BDEFF31187FB
:10514000202383F31288BFF36F8F184D184BA86884
:10515000186004F048FFA868324623461549183005
:1051600000F01EF9AB6804461A7CDF6742F00402C7
:105170001A746FF00A02C3F880200F4A536843F094
:1051800080535360002383F31188BFF36F8FAA68A5
:10519000D2E90A12B2F1004F08BF9942CCD105F012
:1051A00047F8201A20EAE070C7E700BFE0100020AF
:1051B0000811002013A0000C00ED00E0024B03F1E9
:1051C0001802C3E906227047E0100020EFF31181B6
:1051D000202383F31288BFF36F8F054B9A68D37B2C
:1051E000013BD37381F31188BFF36F8F704700BF0A
:1051F000E0100020EFF31180202383F31288BFF327
:105200006F8F034B9A68D37B0133D373FFF77CBE58
:10521000E0100020014B9868704700BFE0100020AC
:10522000D3B5DDE90667089CCDE90067FFF7D0FE3E
:105230001CB1034B9B685B69236002B0D0BD00BF0B
:10524000E0100020027C034612F01F0210D10A4930
:1052500088420DD00949086868B1D9897F2909D8E1
:1052600093F90E20064B1B689A42B8BF0020704786
:105270000020704710467047C00700201803002028
:105280000C1100200122044BC01A044BC0105843DB
:10529000034B1A54704700BF58090020ABAAAAAAB2
:1052A0001611002070B50C4B0C4D1E7CFFF7CAFF89
:1052B000182303FB06550446284604F084FF002209
:1052C000074B9A553CB1621E2846BDE8704005491F
:1052D000D31700F065B870BDE01000205809002019
:1052E000161100208552000C38B5EFF311852023EC
:1052F00083F31288BFF36F8F0F4B104A9C681068BE
:10530000A04206D1FFF7CEFF85F31188BFF36F8F60
:1053100038BD00211B7C1160094AD35C002BF3D0FF
:105320002046FFF78FFF0028EED0237CDB0601D15B
:10533000FFF71EFD2046E5E7E010002008110020E1
:1053400016110020024B1868984208BF00207047D1
:105350001C030020034B1B680BB9FEF7F9BD0020AE
:10536000704700BF1011002030B570B10B4B5B6867
:1053700098420AD0036843B1D3E90421D0E9044537
:10538000121941EB0501C3E90421D0E90032136091
:105390005A600023C0E9003330BD00BF1C03002069
:1053A000B3F1FF3F08BFB2F1FF3F2DE9F84F0446CC
:1053B000994615461F467AD08160EFF31188202365
:1053C00083F31288BFF36F8FB9F1000FDFF8E4A009
:1053D00020DBFFF7BFFFDAE90027013549F10009BB
:1053E0002D1849EBE07306464FF00109C4E9045358
:1053F000AD1843EB0707FFF7A5FF0346DFF8B8E05A
:10540000DEF804A0EBB9C4E900EACAF80040CEF81F
:10541000044028E06FF00103DAE900125B1A4FF054
:10542000FF3161EB02025B1B62EB0902012B72F19F
:105430000001BCBF012300224FF00009C0E9043283
:10544000D9E7D3E9041CD4E904208A4270EB0C0BA1
:1054500024DA891A5A686CEB0000C3E90410C4E925
:10546000003214605C60FFF76DFF84420ED1134B75
:105470001B685BB9B9F1000F02D1FFF76BFF06465D
:10548000304604F089FE0021FEF7E6FC88F311881F
:10549000BFF36F8F28463946BDE8F88F521A60EB8C
:1054A0000C005345C4E90420ADD01B68AAE70025D1
:1054B0002F46EFE7700900201C0300201011002088
:1054C0002DE9F047DFF8A8900246C9F800000D4624
:1054D000FFF738FF00260027DFF898804FEAE27ECA
:1054E000D8E9001350B1D0E9044CA2427EEB0C0A7B
:1054F0001ADAA41A6CEB0E06C0E90446002452180E
:1055000043EB0E032046C8E90023C9F8004004F02D
:1055100043FE2146FEF7A0FC85F31188BFF36F8F91
:10552000BDE8F047FFF7E0BE611843EBE473C0E964
:105530000467C8E90013FFF717FF01224FF000438B
:10554000C0E9042385F31188BFF36F8F8368984700
:10555000EFF31185202383F31288BFF36F8FD9F8FF
:105560000020121BC9F80020FFF7ECFEB6E700BFD1
:10557000101100207009002010B5EFF311842023D2
:1055800083F31288BFF36F8FFFF7E4FE0346054AEB
:10559000D2E90001181841EBE37184F31188BFF3DD
:1055A0006F8F10BD7009002073B50446EFF31186AC
:1055B000202383F31288BFF36F8F8368594003EA77
:1055C00002050A4053400022009309496B460192AC
:1055D00004F082FDDDE9003223EA020304F10C004D
:1055E0003146A36004F025FD284602B070BD00BF1F
:1055F0004BA3000CF8B507460C46164604F080FC99
:1056000008B10020F8BD0D4B9B685D6F002DF8D0F0
:10561000221DF6D2EFF31184202383F31288BFF307
:105620006F8F284647F00401B04784F31188BFF319
:105630006F8F0028E5D040F8045BE3E7E01000201E
:105640000146024A0020FFF7D5BF00BF035F000CF0
:10565000014800F02FBD00BFA1B2000C07B5074BF9
:105660004FF48062009306494FF0FF330548FFF77F
:10567000A9F9002003B05DF804FB00BFE0AC000C0A
:1056800058260020780900202DE9F04F43688BB0A0
:1056900080469246009383789C0740F1F98000256C
:1056A0000878002800F0F68025280AD04B1C0193CA
:1056B00001354146009B98470028C0F2E3800199DC
:1056C000EEE74E788B1C252E0193F1D000270A229D
:1056D000B9463C461F2C22D8A6F12003102B20D817
:1056E000DFE803F0141F1F1A1F1F1F0B1F1F1F12BD
:1056F0001F171F1F090044F00104019B13F8016BE1
:105700000193002EE6D13AE044F0020444F0040490
:10571000F3E744F00804F0E744F01004EDE77F2CD1
:1057200024D8A6F13003092B08D860064EBF02FB2F
:10573000073744F0200402FB0939DEE72A2E0DD199
:1057400061065AF8043B53D4002BA7BF44F0200451
:105750009946C3F1000944F02804CEE72E2E05D166
:10576000630600F1978044F04004C6E76C2E2ED00B
:1057700028D8682E32D06A2E37D04C2E35D0002F44
:1057800046F02003B8BF24F04004A3F16502BCBF7B
:105790000027A4B2022A01D9612B2BD10AF1070AF2
:1057A00007279D4E2AF0070A0AF1080A210760D54B
:1057B00006EB070B34465C455DD1AE1BA9EB070930
:1057C000A21959E1742E98D07A2E96D0D7E72606E2
:1057D00048BF44F4007444F080048EE7E00548BFFD
:1057E00044F4007444F4807487E744F4207484E73C
:1057F0001F4682E7A6F16302122A00F2D880DFE892
:1058000012F013004D00D600D600D600D6004D0091
:10581000D600D600D600D600D600E800D100D600CB
:10582000D6001A00D600A0005AF8043B012704AEA7
:105830008DF81030BAE75AF8046B784B002E08BF89
:105840001E4614F0400F304614BF39464FF0FF316A
:1058500004F0C6FD0746A9E741462020009B984773
:1058600000280FDB013CA742F6D34D44A1462D1B77
:105870009EE74C46F7E7414614F8010B009B98471A
:10588000002898DA98F8023043F0040388F80230D0
:105890004FF0FF3528460BB0BDE8F08F220630D51B
:1058A000A3052AD50AF1070A2AF007039A46596880
:1058B0005AF8080B24F0100B00291FFA8BFB2FDA83
:1058C00040424BF4806B61EB410104AC0A23224659
:1058D00004F092FD1BF0400FA0EB040200F08E805C
:1058E0002BF001049742A4B240F38F80002E40F0C9
:1058F0008E802BF01104A4B21DE05AF8040BC117DE
:10590000D8E7E0055AF8041B01D40846F7E7A205DA
:1059100047BF48B241F3C01108B241F3C031C9E7F3
:1059200050EA0103D1D16306CFD5002FCDD124F0A9
:1059300011043A46A4B23B4640F206410C4262D101
:1059400024E024F010040A23A4B214F0800243D00F
:1059500014F4007117BF0AF1070A5AF8040B2AF071
:10596000070292461CBF51685AF8080B50EA010220
:105970003ED124F0160B62061FFA8BFB3CD5002F9C
:105980003AD124F017043A463B46A4B221075AD430
:10599000E10705D5994572DDA9EB03039F184B4636
:1059A0009B464AE044F0100410237826CDE7782B7C
:1059B00004D1C6F1780343F01003C6E74146252021
:1059C000009B98470028FFF65DAF02354146304600
:1059D00070E608230026B8E714F480715AF8040B27
:1059E000C4D014F400711ABFC0B2114680B2BDE732
:1059F00024F006041FFA84FB04AC68E713465C46F7
:105A0000E10699D52EB90133C0E71346F8E73B46C6
:105A1000F6E70233BAE700BFDFB2000CD8B2000CE1
:105A2000CDE9023241462020009B98470028FFF62E
:105A300029AF0BF1010BDDE90232D945F0DCEB1A9D
:105A400003EB0B055B46E10627D541463020CDE947
