:020000040800F2
:1000000020100020F109000CA139000CDD09000CC2
:10001000DD09000CDD09000CDD09000CDD09000C18
:10002000000000000000000000000000250A000C95
:10003000DD09000C00000000AD0B000C0D26000CCB
:10004000190C000C190C000C190C000C190C000CEC
:10005000190C000C190C000C190C000C190C000CDC
:10006000190C000C190C000C190C000C190C000CCC
:10007000190C000C190C000C190C000C190C000CBC
:020000040C00EE
:1000000053B94AB9002908BF00281CBF4FF0FF317F
:100010004FF0FF3000F00CB8ADF1080C6DE904CEE4
:1000200000F008F8DDF804E0DDE9022304B07047D1
:10003000704700BF2DE9F0478C468E46089E154656
:1000400004461946002B40F0D080724547D9B2FAD9
:1000500082F74FB1C7F120030EFA07FCBD40BC4048
:1000600020FA03F343EA0C0C4FEA154EA8B2230C16
:10007000BCFBFEF80EFB18CC08FB00F943EA0C436E
:10008000994528D9EB1808F1FF3204D2994502D9D5
:10009000A8F102022B44A3EB0903A4B2B3FBFEFCBC
:1000A0000EFB1C330CFB00F044EA0344A04214D9BD
:1000B0002C190CF1FF3304D2A04202D9ACF1020397
:1000C0002C44241A43EA02401EB1FC400023346051
:1000D0007360BDE8F0874246DDE76346F1E7002A3A
:1000E00079D0B2FA82F3002B3FD01946C1F1200338
:1000F00002FA01F500FA01F42EFA03F20EFA01FEFB
:1001000020FA03F3AFB243EA0E034FEA154EB2FBF7
:10011000FEFC0EFB1C201A0C0CFB07F842EA004206
:1001200090455AD9AA180CF1FF3004D2904502D953
:10013000ACF102002A44A2EB08029BB2B2FBFEFC27
:100140000EFB1C220CFB07F743EA02439F4246D9F1
:10015000EB180CF1FF3204D29F4202D9ACF102023B
:100160002B44DB1B42EA004202E0AEEB0203012219
:100170004FEA154EAFB2200CB3FBFEFC0EFB1C3356
:100180000CFB07F840EA034398452AD9EB180CF119
:10019000FF3004D2984502D9ACF102002B44A3EB06
:1001A0000803A4B2B3FBFEFC0EFB1C330CFB07F7E9
:1001B00044EA0344A74216D92C190CF1FF3304D2A8
:1001C000A74202D9ACF102032C44E41B43EA0040ED
:1001D0000F46114678E71F2188E76046ABE7624685
:1001E000BFE76046DBE76346EFE7734506D916B91C
:1001F000002108466DE7C6E9000EF9E7B3FA83F778
:1002000087B9734501D3824207D8841A6EEB030382
:1002100001209C461EB900215BE73846FAE7C6E993
:10022000004CF8E7C7F1200CBB4000FA07F422FAB3
:100230000CF520FA0CF1BA401D432EFA0CF30EFA1D
:1002400007FE4FEA154941EA0E011FFA85FEB3FB8E
:10025000F9F809FB18300B0C08FB0EFA43EA0043CF
:100260009A4540D9EB1808F1FF3004D29A4502D9DB
:10027000A8F102002B44A3EB0A0389B2B3FBF9F8FF
:1002800009FB183308FB0EFE41EA03418E452CD9C9
:10029000691808F1FF3304D28E4502D9A8F1020390
:1002A000294443EA0040A1EB0E01A0FB029841451E
:1002B000CE46434602D306D14C4504D20138B9EBB1
:1002C000020E68EB0503002EA5D0B4EB0E0261EB25
:1002D000030101FA0CFC22FA07F3F9404CEA03038C
:1002E000C6E9003197E74046C5E74346D9E7000035
:1002F000F8B5174D284604F0A0F9044630B32A6932
:10030000A9681368284643F4801313600B68114AE8
:1003100014219847002819DB0F4E104FAB684FF49B
:10032000801128465B69984700280FDB84F00104A0
:1003300014F0FF040CBF31463946094802F0E0FFD3
:10034000002142F2107004F006FAE7E70020F8BD41
:100350009849000C010006001B50000C1850000CBE
:100360001F50000C014B1B68184700BF0000002005
:10037000014B1860704700BF0000002030B50446F4
:1003800085B00D4610220021684604F05AFA022377
:100390008DF80230044B2A4621466846019302F04C
:1003A000C1FF05B030BD00BF6503000C80B5054638
:1003B0000E461746984602F0E5FD034600F03EFC67
:1003C0000446DFF81890424649F800303946304676
:1003D000A84754F8090000F0D3FB00BF0800000054
:1003E000014B036000207047304F000C08B50348F4
:1003F000034A0021121A03F0CBFA08BD3000002096
:10040000E0020020074808B5074A0849121A03F01D
:10041000C1FABDE808400648064A0749121A03F027
:10042000B9BA00BF000000202C0000201056000CBC
:1004300000000020000000201056000C38B50546D2
:100440000C4699B1D1E901230F48096803F092FAEB
:10045000D4E90423E1680D4803F08CFAE1690C4803
:1004600003F088FAA1690B4803F084FA012D05D145
:10047000EFF305810848103903F07CFA214628463D
:10048000BDE8384002F0A6B92E50000C5E50000CBA
:100490008E50000C9E50000CCD50000C30BFFFF76A
:1004A000FDBF00BF2DE9F04105460B4EDFF82C8063
:1004B000324606EB0807CC1B2046094904F0B4F984
:1004C000A01942460021083C04F0BBF92C6707F153
:1004D0000800BDE8F08100BF00000000040000003B
:1004E000304F000C10B52A4C2A4803F043FAD4F8D8
:1004F000E810D4F8E430580602D5274803F03AFA59
:10050000D4F8E430D9070BD5244803F033FA262079
:100510001F4AD2F8E43043F0FF03C2F8E43010BDC4
:10052000D4F8E4309A0704D51D4803F023FA2720B5
:10053000EEE7D4F8E4305B0704D51A4803F01AFA62
:100540002820E5E7D4F8E430180704D5164803F06E
:1005500011FA2920DCE7D4F8E430D90604D5134891
:1005600003F008FA2A20D3E7D4F8E4309A0604D539
:100570000F4803F0FFF92B20CAE7D4F8E4301B063C
:1005800004D50C4803F0F6F92C20C1E72520BFE77D
:1005900000ED00E0E150000CFB50000C0C51000C91
:1005A0002351000C4251000C5E51000C7C51000C98
:1005B0009251000CAD51000C10B5204C204803F0B6
:1005C000D9F9A36A990137D51E4803F0D3F91E2043
:1005D000A36ADA0103D51C4803F0CCF91F20174C9D
:1005E000A36ADB0203D5194803F0C4F92020A36AEB
:1005F0001C0303D5164803F0BDF921200F4CA36A54
:10060000590303D5134803F0B5F92220A36A9A03CE
:1006100003D5114803F0AEF92320084CA36ADB038D
:1006200003D50E4803F0A6F92420A36A6FEA03431A
:100630006FEA1343A36210BD1D20C9E700ED00E07F
:10064000C151000CDA51000CEE51000C0952000CA3
:100650003452000C5352000C7952000C9452000C8E
:1006600070B5244C064624480D4603F083F9A36A6E
:10067000D90435D5214803F07DF91720A36A1A055E
:1006800003D51F4803F076F918201A4CA36A9B057E
:100690000FD51C4803F06EF9A16BA36A180407D5A7
:1006A000194803F067F91EB1A36A23F40043A3625B
:1006B0001920104CA36A590503D5144803F05AF9C0
:1006C0001A20A36ADA050DD5114803F053F91B204F
:1006D000084A936A43F47F43936200232B7070BDF2
:1006E0001620CBE7A36A9B04F2D50A4803F042F92F
:1006F0001C20EDE700ED00E0C052000CD752000CCA
:10070000E952000CFD52000C1753000C2D53000C45
:100710004953000C6253000C70B5264C064626481F
:100720000D4603F027F9A36AD80640D5234803F005
:1007300021F91120A36A190703D5214803F01AF9FA
:1007400012201C4CA36A9A070FD51E4803F012F919
:10075000616BA36A1B0607D51B4803F00BF91EB19A
:10076000A36A23F08003A3621320124CA36ADE075E
:1007700003D5164803F0FEF81420A36A9C0603D59F
:10078000134803F0F7F815200A4B9A6AD10658BFB0
:100790009A6A9A6A920642BF5A6A22F400525A62D0
:1007A0009A6A42F0FF029A6200232B7070BD1020FB
:1007B000C0E700BF00ED00E09253000CA953000C0D
:1007C000E952000CDD53000CF653000C0D54000CE4
:1007D0006253000C2DE9F0416E4B04465F688AB00D
:1007E0000023C7F3080683F31188BFF36F8F02F06D
:1007F0007F40B0F17F4F34D112F0010532D012F0BA
:10080000400502F0080804D0B8F1000F26D10125F8
:1008100012E0500748BF0C465F4B216858BF0125C6
:100820000B44012B98BF216C5C4803F0A3F8B8F18E
:10083000000F10D0EFF389844FF00008F31E8DF8FD
:100840000780092B00F29680DFE803F00E8A8E7F86
:10085000869494949492EFF38884EDE70C461D46B9
:10086000EAE71D462C46E7E74D484A4E03F082F87A
:100870008DF80780F36A9A0704D54A4803F07AF89E
:1008800000232AE0F36A002B01DA4748F6E7F36A0F
:100890005B00F5D5454803F06DF87369A26943F430
:1008A00080737361BFF34F8FBFF36F8F32F8023CD9
:1008B000726922F480727261BFF34F8FBFF36F8F42
:1008C00003F47F42B2F55F4F27D1DBB2022B24D174
:1008D0002168374803F04EF823689DF80720CAB90D
:1008E00002AE04F12007324620686168083403C272
:1008F000BC421646F7D1099A002D47D0C2F3080131
:1009000021B96FEA52226FEA42220992184602A9DF
:10091000FFF794FD0AB0BDE8F0811E4B9A6AD2B28F
:100920002AB101200DF10701FFF7F6FE16E09A6AE1
:1009300012F47F4F05D001200DF10701FFF790FE63
:100940000CE09A6AB2F5803F02D3FFF735FE05E06E
:10095000D3F8E430002B93D0FFF7C4FD0346BCE787
:1009600000200DF10701DFE700200DF10701E5E7A9
:10097000104883E7104B17F4F87F1049104808BF60
:100980001946A6F1100202F0F5FF79E76FF30802AD
:10099000BBE700BF00ED00E0A6ED05015B54000CD5
:1009A0007B54000C9354000CB554000CC454000C40
:1009B000E454000C0155000C2D54000C4254000C62
:1009C0002655000C044B5A6942F010025A615A69CC
:1009D00022F008025A61704700ED00E0EFF3088052
:1009E000EFF3098101B57246FFF7F4FE01BD00BFC8
:1009F0000A4880F30888202080F3118808484FF4C3
:100A00000061401880F30988EFF314800221084345
:100A100080F31488BFF36F8F00F048F82010002097
:100A2000E00200201EF0040F0CBFEFF30880EFF38C
:100A30000980816911F8021C0229FFD001B57246B4
:100A400002F0AAFF01BD00BF00B2002807DB0123AE
:100A50004109034A00F01F00834042F821307047EB
:100A600000E100E000B2002801F10101ACBF00F19B
:100A70006040064B4FEA4111C9B2ABBF00F561407F
:100A800000F00F0080F800131954704714ED00E0D7
:100A9000044B054A23F07F039360BFF34F8FBFF3EE
:100AA0006F8F70470000000800ED00E008B5FFF709
:100AB000EFFF0B4AD2F8883023F47003C2F8883075
:100AC000EFF3148323F0040383F31488BFF36F8FD1
:100AD000FFF78CFCFFF796FC00F092F801F03EFF68
:100AE00000ED00E042F8203C009B0B4942F81C3C22
:100AF000019B21F0010142F8183C029B42F8081CBE
:100B000042F8143C4FF0807342F8043C0023203A32
:100B100002654367704700BFAD03000C00B50B4B87
:100B200015469860026F0A4B0E461A602C4686F3F3
:100B300009880020034B984720460021002200230B
:100B4000014C2047BD39000CAD03000CB002002061
:100B5000E00100201022014B1A61704700ED00E017
:100B6000054B5A699B689A421FBF044A536843F079
:100B700080535360704700BFB002002000ED00E0DA
:100B8000084B9B6883420BD1EFF3058343B1064BBF
:100B90005A6842F080525A605A6A22F400425A62FD
:100BA00003F06CBDB002002000ED00E011498A683E
:100BB0004FF030001044EFF3098C80E8F01F202044
:100BC00080F31288BFF36F8F0B4F4FF000664A69B6
:100BD0008A603E60106F094C2060506F002353679D
:100BE00080F3118802F1300090E8F01F8CF309883F
:100BF00070470000B002002004ED00E0E00100209A
:100C0000002320210348C21801339E2B82F80013D1
:100C1000F9D1704700E100E008B5EFF30583064A1B
:100C2000103B02EBC30152F8330049688847BDE826
:100C30000840FFF795BF00BFEC49000C0148006871
:100C400070470000E00100201FB50121094B0A4A4E
:100C50000A4800F0F7F80023064A0393084B0121E5
:100C6000019301A8D31A029300F0F6F805B05DF8DD
:100C700004FB00BF0000082000000020304F000CE3
:100C8000300000200A7A0B6810B562F304031C469A
:100C9000CB68520923F01F0343EA4203044A43F09E
:100CA0000103C2F89800C2F89C40C2F8A03010BD01
:100CB00000ED00E010B5074BD3F89030C3F30723E5
:100CC000013B984202D8FFF7DDFF10BD6FF0150021
:100CD000FBE700BF00ED00E02DE9F04F0F461446A2
:100CE00006464FF000084B4D85B0B84580F28E8027
:100CF000D6F80490B9F1000F35D0B9F11F0F40F2CA
:100D0000838019F01F0F7FD1D6F800A01AF01F0FB3
:100D10007AD1504602F066FE834609EB0A0001389C
:100D200002F060FE83456FD11BF1160F6CD05C455D
:100D30006ADDC5F898B0D5F89C10C5F898B0D5F81C
:100D4000A03021F01F0143F01F0AD6E900321A44F7
:100D5000994202F1FF391BD1CA4508D131465FFAE9
:100D60008BF002F048FE08F101080C36BDE7314671
:100D7000C5F898B0D5F89C30E0B263F30402C5F82A
:100D80009C2002F038FE10F1160F3DD0441CEAE71B
:100D9000C5F898B0D5F8A020013B23F01F0302F05E
:100DA0001F021343CA453146E0B2C5F8A030E8D06F
:100DB00002F021FE10F1160F26D0C5F898B0D5F834
:100DC0009C209DF808300AF1FF3A62F304038DF885
:100DD0000830D5F8A0309DF808205B0863F347126F
:100DE0008DF80820D6E900321344009323F01F0346
:100DF0005344A3EB0903013023F01F036946C0B23B
:100E00000393FFF757FFBEE76FF01504204605B0C8
:100E1000BDE8F08F00ED00E00522044BC3F89420FC
:100E2000BFF34F8FBFF36F8F704700BF00ED00E03F
:100E3000BFF35F8F0022024BC3F89420704700BFBE
:100E400000ED00E010B5034C2278FFF745FF20705D
:100E500010BD00BFDC0200202DE9F74F294D8A4666
:100E600006464FF00008AB46274FD0451BDAD6F8B0
:100E70000490B9F1000F3FD031680846019102F0AB
:100E8000B1FD0199044609EB0100013802F0AAFD09
:100E900084424FF014021D4B08D002FB08F36FF0A0
:100EA00015024BF8032003B0BDE8F08F14F1160FC4
:100EB0002C60F8D01978A142F5DD02FB08B0C7F824
:100EC0009840C7F89840D7F89C4000F10801007B93
:100ED00064F304000871D7F8A0000C79400860F3AF
:100EE00047140C71D7F89C1021F01F016960D7F8E6
:100EF000A01021F01F01296108F1010814350C36FA
:100F0000B3E700BFE401002000ED00E0DC020020B8
:100F1000F0B55349534DD1F890302C68C3F30723F3
:100F20009C4287B000F299800020FFF781FF4E4B72
:100F3000C1F8C030844216D14C4D01A82C70FFF787
:100F40004FFA002607464A4CB74213D100202B78AF
:100F50004349D1F89020C2F30722934277DBFFF791
:100F60005BFF002046E0696801EB0011FFF78AFE95
:100F70000130DFE70199300101EB0613DA68224006
:100F8000B2F1807F52D00AD8B2F5001F34D0B2F54A
:100F9000800F3ED0B2F5801F12D00136D4E7B2F1F7
:100FA000006F43D0B2F1805FF7D15A689B6809584F
:100FB000013B22F01F00034423F01F03012032E015
:100FC0005A689B680958013B22F01F000344012026
:100FD000844623F01F0340EA4C10CDE902218DF82E
:100FE000100002A928780593FFF764FE00282ADA8A
:100FF0006FF0150007B0F0BD5A689B680958013BB7
:1010000022F01F0003444FF0020C012023F01F03C5
:10101000E1E75A689B680958013B22F01F0003442E
:10102000062023F01F034FF0000CD4E75A689B689A
:101030000958013B22F01F0003444FF0030C01202C
:1010400023F01F03C7E72B7801332B70A5E7C1F806
:101050009830C1F8A00001337BE74FF0FF30C9E7BB
:1010600000ED00E03C4F000CAAFF4400DC02002031
:101070000000F0FF08B5024B1B689847002008BD30
:10108000F8010020034B044A1860937843F00203F0
:1010900093707047F80100200400002008B506494D
:1010A000064821F00701C1F1005202F5002202F0CA
:1010B0000DFC002008BD00BF27100020FC0100200F
:1010C0000123022803FA01F309D003280BD018B931
:1010D000084A134205D151B101F00F0070470829A9
:1010E000FAD1FF207047044A1342F5D1F9E70E20E8
:1010F000704700BF000008E0FE7F3F000F2300F0B4
:10110000070292009340DB43C008084801F00F013A
:1011100001FA02F10BBFC269026A134013400BBF10
:101120000B430B43C3610362704700BF00A001443F
:1011300070B5054601F03AFB0446064E6B6823B1D4
:1011400001F034FB031BB34200D970BD022003F051
:101150004EFAF3E7BFD401002DE9F8430746417882
:101160008078FFF7ADFFFF2805464CD0274E338827
:10117000C340DB0744D54FF00109254C09FA05F9B6
:101180002378204603F0FD032370FFF7D1FF0021F1
:101190002846C4F80C90C4F81490FFF7AFFF236BF7
:1011A000204623EA090323637A78BB686FEA0908BB
:1011B000134493F8402002F0FE0283F84020237885
:1011C00043F002032370FFF7B3FFEFF311812023F5
:1011D00083F31288BFF36F8F32881FFA88F31A40A7
:1011E0003280FF22354431632A76BA78143236F8D9
:1011F0001200034026F8123081F31188BFF36F8F7D
:101200000020BDE8F8836FF08500FAE708020020AF
:1012100000A00144032870B524D8EFF311842023E3
:1012200083F31288BFF36F8F0F49143031F81030F9
:10123000012500200D4A0C635269134023B984F341
:101240001188BFF36F8F70BD93FAA3F2B2FA82F2E6
:101250000A44127E5E1E02F01F0205FA02F23340BB
:101260001043EBE70020EEE70802002000A0014455
:101270002DE9F84383784268444F023390F8019097
:1012800047F82320C36804467B6049468078FFF70F
:1012900017FFFF2805464FEA590674D0EFF3118275
:1012A000202383F31288BFF36F8F3B883A63C340D8
:1012B000DB0711D53B181B7E03F01F01894503D1C5
:1012C000A178B1EB531F07D082F31188BFF36F8F62
:1012D0006FF00F00BDE8F883DFF8B48098F80030B5
:1012E000404603F0FD0388F80030FFF721FFA368B4
:1012F00028464B4493F8402042F0030283F84020F4
:10130000A26809F001033244012692F83010013B33
:1013100083F00F030B4082F830302178FFF7EEFEA8
:10132000E378AE4023B1D8F830303343C8F83030DA
:10133000C8F81460D8F8103015483343C8F8103096
:1013400098F80030B6B243F0020388F80030FFF797
:10135000EFFE3B883D4433433B802B7E69F304031F
:101360002B76A27862F347132B76A378143337F8E1
:101370001320164327F813603B6B83F31188BFF3E8
:101380006F8F0020A6E76FF08500A3E7080200201A
:1013900000A0014430B540B3B0F1205F4FEA906344
:1013A00023D2013BDBB2082B1AD8114A114DD45C71
:1013B000114AD15C114AD25CEB5CC5B2A54214D88B
:1013C000C0F305248C4210D8C0F3055191420CD8CB
:1013D000C0F3853098428CBF6FF01500002030BDFF
:1013E0003F2300241A461946E7E76FF01500F6E799
:1013F000FF55000CE455000CF655000CED55000CA3
:101400002DE9F3470C464FF0000817494368214384
:10141000064615461F68CDF8048002F0D7FD022865
:1014200005D0C5F80080002002B0BDE8F0874FF07D
:101430000609B4FBF9F85FFA88FA5146304601AA6A
:1014400002F04DFE0028EFD13F2309FB18444C3732
:10145000E4B257F82A20E400A3401340E3D0019AF5
:10146000B2FBF3F22A60DEE700FFFF0F2DE9F74F32
:101470000D464FF0000B1C46436880469F6892461D
:1014800007EB81073549D0F8109029433E6ACDF823
:1014900004B002F09BFD022803D0C4F800B0002085
:1014A0003FE0396A01F00F01514550D0BAF1060F03
:1014B00002D18B1F052B4AD90B290AD8DFE801F08E
:1014C000061E273434373C3C3C3C3C3CD9F80030C9
:1014D00001933A6A012D4FEA124218BFD2B2F304C7
:1014E00031D51D2A28BF1D220123013292B293401B
:1014F0009AB2019BB3FBF2F32360D0E7AB1EDAB2E2
:10150000092A24D809EB8309D9F80430E0E7012D32
:1015100020D00C220121404601ABFFF7A7FF002895
:10152000D7D003B0BDE8F08F4FF40043D0E740467A
:1015300001A900F015F8F2E70639404601AAC9B240
:10154000FFF75EFFEBE7012A38BF0122D1E76FF01A
:101550008500E6E76FF05B00E3E700BF00FFFF1BDD
:1015600037B50C4641680A68136913F4807303D1D8
:101570000020236003B030BD136BDB0701D4094B9F
:10158000F6E78B68D56BD3F88010052201AB01F02C
:101590000F01FFF76BFF0028ECD1019BADB26B434D
:1015A0002360E7E7006CDC022DE9F84FD0F80490E7
:1015B0008246D9E9004B0F461546CEB2002A00F00C
:1015C0001D810846FFF7E6FE8046002840F019819D
:1015D000BB0E082B00F21581DFE813F009001300A1
:1015E0005A009F00B500BB00C500F9000701636900
:1015F0002A7823F0800343EAC21363614046BDE8C2
:10160000F88FD9F80820A978D2F8803061F3030365
:10161000C2F880306B78A3B9E36A2A7803F07F03BD
:1016200043EAC213DBB2E36201F0C0F80546764E2E
:10163000A36F002BE2D001F0B9F8431BB342F7D9F6
:10164000DCE7236B704F43F00102DBB243F0010390
:101650002263236301F0AAF80646A36F2BB101F0C1
:10166000A5F8831BBB42F8D9C8E7E26BAB886FF3E0
:101670000F021343E36301F099F80646624FA36F2C
:10168000002BC9D001F092F8831BBB42F7D9B5E714
:101690002F790B2F21DD04F1440252F826302988DE
:1016A0000B2F61F3090342F8263004F1480252F887
:1016B0002630A97804F1400461F3050342F826308E
:1016C00054F8263023F4F06322DC0027EA7843EA5A
:1016D000C2133B4344F8263090E7D9F80830DFF8CE
:1016E00028B103EB8609D9F884303B4343F040032B
:1016F000C9F8843001F05AF88246D9F884305B0684
:10170000C9D401F053F8A0EB0A035B45F5D975E79E
:101710000B3F3F0207F4E067D8E70623B6FBF3F27E
:101720003F2103FB12634C34D2B2DBB254F82200E7
:10173000DB00994020EA0100297801FA03F3034312
:1017400044F822305AE72B7803F00303CBF810302B
:1017500054E7DBF81C302A7823F0800343EAC213F5
:10176000CBF81C304AE7D9F80810012E01EB8601AE
:101770000A6ADAF8104022F4005222F00F024FEA0F
:1017800002422B884FEA124201D0FF2B01D842EAD5
:101790000342EB78A87803F00F0343EA4033134386
:1017A0000B6201F003F80746DFF85CA0D9F80830B7
:1017B0005B682BB100F0FAFFC31B5345F6D91DE758
:1017C000002E7FF41BAFEB7884F83A3016E7D9F897
:1017D0000830C7F3052703EB8703D3F88020297867
:1017E00061F30302C3F8802008E7D9F80C102B78C6
:1017F000CA6822F0FF021343CB60FFE66FF01508C2
:10180000FCE66FF08508F9E6BFD401002DE9F84346
:10181000012743680669D3F800800C4608F14002AE
:1018200052F82130DFF8409043F0020342F82130B3
:1018300001F118039F4000F0B9FF0546D8F81030B9
:1018400037EA030308D000F0B1FF431B4B45F5D93D
:101850006FF07300BDE8F8830122F36AA2401343DE
:101860000020F362F6E700BFFF0D27072DE9F84FD0
:101870000546476808460C46FFF78CFD06460028DB
:1018800042D12146284602F0A1FB022800F09580B3
:10189000A10E3A68BB68092936D8DFE801F0051FB8
:1018A000244135464C563561536943F00203536178
:1018B0004FF00008DFF80891DFF808A1C4F30763D0
:1018C00003F0FC03142B58D17B68DB68DB071DD4C5
:1018D0007B69434558D86FF0730617E0D36A43F02D
:1018E0000203D362E4E70F20E1B24B1C2A6903EB49
:1018F00043035B0000FA03F3108F034209D028462C
:10190000FFF784FF0028D3D06FF085063046BDE88E
:10191000F88F012303FA01F1136B0B431363C7E73D
:101920002846E1B202F0B0FCECE77A68D36943F0F4
:101930000203D361BCE714F0FF02B9D003EB8203CA
:101940001A6A42F480721A62B2E7C4F3052203EB0A
:101950008203D3F8802042F04002C3F88020A7E73A
:10196000FA68C4F3055302EB83020123D16BC4F37D
:10197000853083400B43D3639AE72146284602F023
:1019800025FB0228A4D1C1E799F800305BB1FFF72D
:1019900055F90D4B1B5833B10A20002102F0DBFE34
:1019A00008F101088AE700F001FF834600F0FEFE1F
:1019B000A0EB0B035345F9D9F2E76FF07706A5E7E3
:1019C000DD020020BFD4010008000000F8B5436824
:1019D000234A1D6804696B69487A1A400B7C00022F
:1019E0001B0600F4706003F040730343087AC001E3
:1019F000C0B203438878400100F020000343887A96
:101A0000000100F010000343C878C00000F0080097
:101A100003434878800000F0040003430878400046
:101A200000F00200034313436B614B6823600B78A3
:101A30005BB100F0BBFE06460A4F2B69DB0705D4FD
:101A400000F0B4FE831BBB42F7D9F8BD636B43F4CF
:101A500080536363238F43F001032387F5E700BFBF
:101A600041F0FFFCFF0D27072DE9F84306690C46FE
:101A7000338F9D0607D496F83A30052B05D163784D
:101A8000002B40F08780BDE8F88343681D689A68A2
:101A9000EB6A23F00203EB628B78012B1ED0EB6A1A
:101AA000E27803F07F0343EAC213DBB2EB626278B1
:101AB000EB6A520002F0020203F0FD031343EB62F3
:101AC00000F074FE0746DFF81081AB6F002B4FD09B
:101AD00000F06CFEC31B4345F7D9D4E70978736B5C
:101AE000CB40D807CFD5D2F88030DFF8F09061F343
:101AF000030343F04003C2F8803000F057FE07466E
:101B0000DFF8D480D9F880305A064CD400F04EFE6D
:101B1000C31B4345F6D9B6E72B6B627903F0490343
:101B200043EAC213A279DBB2520102F0200213434E
:101B3000E279DFF8A480120102F010021343227A46
:101B4000920002F004021343627A520002F0020291
:101B5000134343F001032B6300F028FE0746AB6FED
:101B6000002B9CD000F022FEC31B4345F7D98AE727
:101B70006378002B87D000F019FE0746DFF86080FD
:101B80002B69DB053FF57BAF00F010FEC31B43451F
:101B9000F6D978E7736B43F400537363338F43F0E4
:101BA000200333876FE7EA6BA3896FF316021A43AA
:101BB000A37ADFF824801B0403F4FE031343EB63D2
:101BC00000F0F4FD0746AB6F002BA5D000F0EEFD52
:101BD000C01B4045F7D956E7BFD4010000000144BF
:101BE000FF0D27072DE9F74FD0F810800E78D8F8B1
:101BF00030500C46F54015F001056AD191F807A068
:101C0000D8F8343023FA0AF3DF0762D54368BAF113
:101C10000B0F1F68D3F8109041DD07F1440252F812
:101C200026306189BAF10B0F61F3090342F82630BF
:101C30003B46217B53F8482F61F3050243F82620E9
:101C4000A07907F1400252F826104FEAC02021F493
:101C50007E5100F460503FDC6379DFF8C8A0DB01FF
:101C6000DBB203430B431D4342F82650E2892E4B5F
:101C7000F96E03EA0243228A6FF3DE11D20192B2B7
:101C800013430B43FB6600F091FD0546BB6F5A06FC
:101C900031D500F08BFD431B5345F7D919E09B6804
:101CA00003EB860BDBF884304AEA030343F040037E
:101CB000CBF8843000F07AFD0246DBF884300192E4
:101CC0005906AAD400F072FD019A1649831A8B4274
:101CD000F3D903B0BDE8F08FAAF10B0A4FEA0A2A44
:101CE0000AF4E065B8E70122D8F83030B240134377
:101CF000C8F83030EDE72379002BEAD0D9F81C3052
:101D00000A4D43F48033C9F81C3000F04FFD0446FF
:101D1000D9F80C30DB05E6D400F048FD031BAB42DC
:101D2000F6D9D6E7BFD401000000FF7FFF0D2707DB
:101D3000F8B505692B8FDA063DD443680A7C5C68E8
:101D4000CB7B52009B0002F0020203F0040313431A
:101D50008A7B606902F0010220F00700134303430D
:101D60006361E36917480A7B18404B7A12029B04AF
:101D700002F4706203F4701313430A7AD201D2B2F0
:101D800013434A78920002F0040213430A78520087
:101D900002F0020213430343E3610B785BB100F0EE
:101DA00005FD0646084FE368DB0705D400F0FEFC9E
:101DB000831BBB42F7D9F8BD2B8F43F010032B8751
:101DC000F9E700BF79F0C3FFFF0D27072DE9F843BE
:101DD00005690E786B6B0C46F340DA074BD491F82B
:101DE00007C02B8F23FA0CF3DB0744D54768012E7D
:101DF000B968638A01EB86010A6A22F4745222F000
:101E00000F024FEA02424FEA124201D0FF2B01D8E3
:101E100042EA03426379003B18BF012342EA43329E
:101E2000237C0BB142F48052637D207ADB02800276
:101E300000F4806003F400630343207D0CF00F0C7A
:101E4000400243EA0C0300F4007003432079DFF8FA
:101E50005C90000200F48070034313430B6200F0B7
:101E6000A5FC8046BB685B683BB100F09FFCA0EB23
:101E700008034B45F6D9BDE8F883B31E092B0FD8EC
:101E8000E26805EB83035A6001226B6BB240134397
:101E9000012E6B6302BF2B8F43F002032B87EAE70F
:101EA000002EF1D1E37985F83A30EDE7BFD4010097
:101EB0002DE9F047DFF8D0C1744B86B04FF4606E67
:101EC0000125CDE900C330236946CDE902E3466828
:101ED00004460769049540F20118FFF777FD4FF4B7
:101EE0000043CDE9008340F20713DFF8A49169466F
:101EF0002046CDE902930495FFF71AFFB368DFF897
:101F000094911D7000F052FC0546B368D3F804802C
:101F1000B8F1000F09D000F049FC431B4B45F4D940
:101F20006FF0730006B0BDE8F08705230326DFF8E5
:101F300068A187F83A30012506274FF002091422DC
:101F4000002101A802F07DFC694620468DF807704B
:101F5000CDF800A0ADF812508DF80450FFF736FF11
:101F60001422002101A802F06CFC4C4B694620466B
:101F700000938DF80770ADF812908DF80450FFF7BC
:101F800025FF1422002101A802F05BFC444B6946A6
:101F90000093072320468DF80730ADF812508DF8D6
:101FA0000450FFF713FF40F20113CDE900384FF45E
:101FB0008033694620460293ADF80C50FFF754FD7C
:101FC000384A394B4FF47001CDE9002303232046F2
:101FD000CDE902136946CDF81080FFF703FE40F605
:101FE000010332486946CDE90003204602F074F946
:101FF00041F201432E4F6946CDE900734FF400676B
:10200000204602F069F92B4B69462046CDE900379E
:1020100002F062F9284B69462046CDE9003702F00C
:102020005BF9264B69462046CDE9003702F054F9AA
:10203000234B69462046CDE9003702F04DF9013EB9
:102040007FF479AF636832465B6820461D491D61A5
:102050002B4602F06AF92B464A4620461A4902F0FE
:1020600064F92B4632462046184902F05EF92A46AA
:102070002046174902F06EF920462A46154902F01B
:1020800069F930464EE700BF01000001001BB700B0
:1020900000000101BFD4010000FFFF1B01FFFF1B77
:1020A00002FFFF1B00C0FF0B0100010C00FFFF0F30
:1020B00001FFFF0F02FFFF0F03FFFF0F04FFFF0FE2
:1020C00005FFFF0F30E7FF1F37EEFF1F35ECFF1F47
:1020D0003E7F34240E3F052408B5074802F0ADFAD0
:1020E00038B10648FEF7CEFF0448FEF741F900205C
:1020F00008BD6FF01200FBE7D049000C0121000C75
:102100000A2838B50446074D04D1AB680D2128468E
:102110005B689847AB6803485B68E1B29847204624
:1021200038BD00BFD049000C2DE9F04305460E46EE
:102130001446984685B00769D0F804901022002113
:10214000684602F07EFB7D6099F80830B4F5001F08
:102150008DF80230BB6818BF44EA0804F34003F06E
:1021600001038DF80330D9F80430B4F1107F0293E5
:10217000174B8DF80160039301971DD007D8B4F574
:10218000001F15D06FF0150005B0BDE8F083B4F165
:10219000A86F18D007D8B4F1507F16D0B4F1886F6B
:1021A000F0D1042309E0B4F1E86FEBD1032304E09C
:1021B0006846FEF7D1FFE7E7052368468DF8003053
:1021C000FFF756F8E0E70123F7E70223F5E700BF42
:1021D0001744000C2DE9F04300250127DFF8E0E06B
:1021E00000F1020CEBB2994202D80020BDE8F08366
:1021F00030F825403CF82560C4F3422804F00F0372
:10220000B8F1010F5EF82330C4F304122AD15BB396
:1022100003EB52084FEA143998F8304012F0010FDE
:1022200015BF04F00F0404F0F00444EA091449EA6D
:10223000040488F8304003EB020898F8404044F06A
:10224000010488F8404016F0010F07FA02F803EB8A
:1022500002040BD116F0020F0ED194F8409009F051
:10226000FB090DE0002BEED10135BBE7D3F8109050
:1022700048EA0909C3F8109094F8409049F004091D
:1022800084F8409094F8409016F0080F14BF49F07D
:10229000020909F0FD0984F840901C6816F0100F3F
:1022A00014BF48EA040424EA08041C60DC6E07FA40
:1022B00002F236064CBF224324EA0202DA66D3E772
:1022C000B04F000C70B5054600F070FA0446074E9A
:1022D000EB69DB0604D000F069FA031BB34200D9B6
:1022E00070BD022002F083F9F2E700BFBFD4010005
:1022F000F7B50D4647680669BC682368204623F099
:1023000002032360FFF7DEFFEB79002B64D1F3714A
:102310002979022960D8204602F04BF92B793371D4
:102320006B79012B52D1636823F040036360204630
:10233000FFF7C8FF6B797371AB79042B4CD82B4A2C
:102340002046D35C626822F0070262606268134331
:102350006360FFF7B7FFAB79B3710023B8690193EE
:102360008368DB6813B1396A01AA9847019A286823
:10237000002A34D05308010B0005C01841F10001B8
:102380000023FDF73DFE4FF6FF72431E61F1000191
:10239000934271F1000125D22368404280B223F4B8
:1023A00060432360A0812B68204633607B7B012B38
:1023B00002BF236843F080032360236843F00203D5
:1023C0002360FFF77FFF002003B0F0BD032B03D194
:1023D000636843F04003A9E76FF08500F4E76FF00E
:1023E0001500F1E76FF02100EEE700BF0856000C82
:1023F0002DE9F34146680769B069B468836896F8C7
:102400000C801B68316A2BB96FF05705284602B063
:10241000BDE8F0819847054610B110F1780FF5D16D
:10242000D6E9060183681B68002BEDD09847054666
:1024300010B110F1780FE9D1BF2323750023FB7190
:102440003379042B02D96FF08505DFE7504A204627
:10245000D35C626822F007026260626813436360C3
:10246000FFF730FF33792046BB71717902F0A1F894
:1024700073793B71B379012B79D1636823F0400301
:1024800063602046FFF71EFFB3797B71B168326944
:102490000B68120523F44C1302F440121A437369BB
:1024A0001B0403F4403313430B60236843F00053D1
:1024B0002360236823F01C03B8F1000F5ED0236073
:1024C0002368002143F080432360706A01AA02F070
:1024D00026F8051E9ADB019B002219791868FFF780
:1024E00079FE0546002891D16368204643F4003305
:1024F0006360FFF7E7FE6368204643F48033636060
:10250000FFF7E0FEB069316A8368DB680BB101AAAE
:102510009847019A3068002A33D05308010B000510
:10252000C01841F100010023FDF76AFD4FF6FF726C
:10253000431E61F10001934271F1000124D223682E
:10254000404280B223F460432360A0813368204678
:102550003B60737B012B02BF236843F08003236041
:10256000236843F002032360FFF7ACFE4EE7032B22
:102570007FF469AF636843F0400381E743F00403ED
:102580009DE76FF0150541E76FF021053EE700BFBD
:102590000856000C4FF0E0230D4A9969126818693B
:1025A0009B69002908BF1146002B08BF134610F491
:1025B000803F084801D1994205D201681144016069
:1025C0004FF0E021096900681044C01A704700BF4D
:1025D000AC020020A80200202022094B002083F832
:1025E000232042F6E062074B1A60074B42F6DF6297
:1025F00018604FF0E0235A61072298611A61704712
:1026000000ED00E0AC020020A8020020684620F0A7
:1026100007018D4619B5FFF7BDFF1449144B086833
:10262000D3E90042001942F10002C3E9000200238D
:102630000B6042F6E0630F4AD2E90041001BB0FB99
:10264000F3F043431B1941F10001C2E90031EFF3FC
:102650001181202383F31288BFF36F8F00F0D6FD22
:10266000FEF77EFABDE8194085467047A8020020B3
:1026700038000020300000202DE9F041374E89B1AC
:10268000421C0AD14FF0E022136923F001031361C9
:102690004FF07F433360BDE8F0813568012806DCE8
:1026A00000240AE0431C3568F8D140F2755040F22E
:1026B00076539842A8BF1846441EEFF31187202393
:1026C00083F31288BFF36F8FFFF764FF4FF0E023AF
:1026D0002349D3F818C0D1E9002380184FF0000235
:1026E00043F10003C1E900031E4B1A601E4B1A6838
:1026F000831A2DD442F6E06E42F6DF6814FB0E8496
:102700001C44B4FBFEF4131A0EFB0433B3F5806FC4
:1027100038BF4FF48063154A934228BF13464FF0E9
:10272000E0223360013B946953610023A445936127
:10273000ACEB0400D1E900320DD20544EB1842F1B4
:102740000002C1E9003287F31188BFF36F8FA2E75F
:102750004FF48063E3E7C318F1E700BFAC02002049
:1027600038000020A80200203000002060CCFF00CC
:1027700038B5EFF31185202383F31288BFF36F8FF1
:10278000084B1C68084B1B68E41AFFF703FF85F32E
:102790001188BFF36F8F42F6E0632044B0FBF3F083
:1027A00038BD00BF380000203000002038B5EFF3FE
:1027B0001185202383F31288BFF36F8F044B1C68AD
:1027C000FFF7E8FE85F31188BFF36F8F204438BD13
:1027D0003800002038B5EFF31185202383F31288E9
:1027E000BFF36F8F064B9C6801F03AFF85F31188A9
:1027F000BFF36F8F2046BDE83840FEF7C1B900BF78
:10280000B002002038B50A4B53F82040013053F88D
:102810002050A54200D838BD606830B1037EDB0788
:1028200001D401F0F2FE0834F3E723689847FAE791
:10283000F84F000C012270B5294B86B003201A70A6
:10284000FFF7E0FF00F056FD0420FFF7DBFF254C0B
:10285000254D2646AE4204F130040FD300F06EFB46
:10286000204CAC4226D300F07DFBFDF741FD1F4A12
:10287000938923F00103938106B070BD54F80C3C9A
:10288000059354F8103C049354F8143C039354F803
:10289000183C029354F81C3C019354F8203C0093DC
:1028A00054E90A2354E90C0100F0C4F854F8303C10
:1028B0005E65CEE7D4E90A23B3F1FF3F08BFB2F16A
:1028C000FF3F05D052EA0301206803D100F0FCF875
:1028D0003034C6E70649183000F008FCF8E700BFBE
:1028E000DD020020DC4E000CDC4E000CC00000209D
:1028F0003147000C0023012270B586B0CDE90423D6
:102900000F220193CDE9023214234FF4A0720E4D31
:102910000E4E03FB00550E4906EBC016044602FBA3
:1029200000110C4B3046009500F084F8337C2C7479
:1029300023F004033374084B013403EBC423EE602B
:102940006B6006B070BD00BFB002002040000020E8
:10295000E00A00206746000CE00200207FB500205E
:10296000FFF750FF2B4B83F308880025E0232A4C08
:1029700084F82230E57725766576A57684F82050B0
:10298000E576636A43F4E0236362636A43F40023F9
:102990006362A563E3689BB243F0BF6343F408330B
:1029A000E360FEF70FF8FEF7D5F84FF0FF33A362B0
:1029B000E362FEF7ADFAFEF747F9184800F078F841
:1029C0000120FFF71FFF0220154CFFF71BFF00F04F
:1029D000ADFA144B4FF480625C61134B13490593BD
:1029E00001232046CDE90353CDE90155104B009555
:1029F00000F020F80646237C204623F004032374CD
:102A000001F06FFE2846FFF775FF31462046084A61
:102A1000FEF784F8E00A002000ED00E0400100200D
:102A2000C0000020B0020020A255000C200C0020A5
:102A30003528000C2DE9F043984685B000F1580385
:102A4000C0E91633109B002683810423073222F04D
:102A5000070503740F9B01EB05090F468373494675
:102A6000C0E906668660C6730446FDF71BFD0E9B33
:102A7000073020F00700A066C4E9187502930D9B8B
:102A8000A9EB000901930C9B4A4600933946434643
:102A90002046FEF727F8054B66659B6803B1DB6EA1
:102AA0004846E36605B0BDE8F08300BFB0020020F1
:102AB0000123037483810023C0E91833C366014BEB
:102AC00098607047B002002038B50446EFF31185D6
:102AD000202383F31288BFF36F8F037C5B070FD52E
:102AE000183001F068FE237C204623F00403237491
:102AF00001F006FE2946BDE83840044801F028BE32
:102B000085F31188BFF36F8F38BD00BFDE02002050
:102B10006FF00A01084A93689967084958674B683B
:102B200043F080534B60002383F31188BFF36F8F12
:102B30009368986F704700BFB002002000ED00E07E
:102B400038B590F910200146002A037C04DA03F01E
:102B50007F03037401F0B3FD0D4D2A4652F8184F60
:102B6000AB68944200D004B9EC688B4207D01A7C61
:102B7000D20604D1DA897F2A01D9A2692AB1A342F7
:102B800002D0204600F034FA23466B6138BD00BF06
:102B9000B002002070B590F91020037C002A2FDBD2
:102BA000D9062DD11A4C63F07F032246037452F8E4
:102BB000183FE169934207D1C0E900210860E06154
:102BC0000FE09942F8D01B68002BF5D093F90E6006
:102BD00090F90E50AE42F4DD5968C0E9003108604A
:102BE0005860A569954200D005B9E568A3681A7CCC
:102BF000D20606D1DA897F2A03D9AA690AB96361A4
:102C000070BDAB4202D0284600F0F2F96561F7E7EB
:102C1000B0020020034648B9EFF3058232B9064AF4
:102C200051699268914201D0FFF772BF83F3118816
:102C3000BFF36F8F704700BFB002002038B5184C4B
:102C4000A168E0690B68814214BF1A4600224968F6
:102C50000B605960A368E1692AB9124AC3E90021EF
:102C60000B60E3610AE092F90E5093F90E00854281
:102C700012DD5168C3E900210B605360A569094B5F
:102C80009D4200D005B9E568A3689D4202D0284660
:102C900000F0AEF9656138BD8A42DED01268DBE72C
:102CA000B0020020C8020020002A2DE9F0470CBF26
:102CB0004FF010094FF00809027C044619EA020F90
:102CC0000E460F4628D149EA0203D20946D10374C1
:102CD000B9F1080F48D04FF00008DFF8F0A05346D4
:102CE00053F8185F9D4200D00DB9DAF80C50DAF8AD
:102CF0000830AB4202D0284600F07AF9B9F1100F43
:102D0000CAF8145008D0204600F055FEB8F1000F64
:102D100002D02F48FFF7CCFE2C4B9B68A3424FD12B
:102D2000EFF30583002B4BD1A289D20711D586F38F
:102D30001188BFF36F8F83F31188BFF36F8F042364
:102D4000184602DFEFF31187202383F31288BFF3C5
:102D50006F8F3846BDE8F047FFF7DABE03F07F0318
:102D6000037401F0ACFCB3E7A36813B1204601F093
:102D7000AEFC04F1180001F01EFDA56D04F1580829
:102D8000A84511D04FF0000A75B1284601F09FFC0C
:102D900005F1180001F00FFD2846C5F878A0FFF7EF
:102DA000F9FEA56DA845EFD1084B9B689C4292D1D6
:102DB000EFF30588B8F1000818BF4FF001088CE761
:102DC00086F31188BFF36F8FBDE8F087B002002053
:102DD0004001002070B50F4D06462B4653F8184FA2
:102DE0009C4200D004B9EC68AB681A7CD20604D1CE
:102DF000DA897F2A01D9A2692AB1A34202D02046EA
:102E000000F0F6F823466B613046BDE87040FFF7EE
:102E100001BF00BFB002002070B5EFF31186202380
:102E200083F31288BFF36F8F1A4CA168E0690B68B7
:102E3000814214BF1A46002249680B605960A3689A
:102E4000E1692AB9144AC3E900210B60E3610AE091
:102E500092F90E5093F90E00854216DD5168C3E9D0
:102E600000210B605360A5690B4B9D4200D005B952
:102E7000E568A3689D4202D0284600F0B9F8656174
:102E80003046BDE87040FFF743BE8A42DAD0126890
:102E9000D7E700BFB0020020C8020020F8B550EA12
:102EA000010306460C4603D101F007FC0020F8BDE3
:102EB000EFF31187202383F31288BFF36F8F174D31
:102EC000174BA868186001F01DFCA868324623461D
:102ED0001449183000F00AF9AB6804461A7C5F67A1
:102EE00042F004021A746FF00A029A670E4A53689D
:102EF00043F080535360002383F31188BFF36F8F37
:102F0000AA68D2E90A12B2F1004F08BF9942CDD1A6
:102F100001F086FC201A20EAE070C8E7B002002029
:102F2000D00200203147000C00ED00E0024B03F11D
:102F30001802C3E906227047B0020020EFF31181A6
:102F4000202383F31288BFF36F8F054B9A68D37BDE
:102F5000013BD37381F31188BFF36F8F704700BFBC
:102F6000B0020020EFF31180202383F31288BFF317
:102F70006F8F034B9A68D37B0133D373FFF72ABF5C
:102F8000B0020020014B9868704700BFB0020020DB
:102F9000027C034612F01F0210D10A4988420DD06C
:102FA0000949086868B1D9897F2909D893F90E20A1
:102FB000064B1B689A42B8BF00207047002070473C
:102FC000104670474000002014000020D40200206A
:102FD0000122044BC01A044BC0105843034B1A542F
:102FE000704700BFC0010020ABAAAAAADE020020E1
:102FF00070B50C4B0C4D1E7CFFF7CAFF182303FB6A
:1030000006550446284601F0D6FB0022074B9A5588
:103010003CB1621E2846BDE870400549D31700F058
:1030200065B870BDB0020020C0010020DE020020A3
:10303000D12F000C38B5EFF31185202383F31288CC
:10304000BFF36F8F0F4B104A9C681068A04206D1E7
:10305000FFF7CEFF85F31188BFF36F8F38BD0021D6
:103060001B7C1160094AD35C002BF3D02046FFF78C
:103070008FFF0028EED0237CDB0601D1FFF7DEFDB9
:103080002046E5E7B0020020D0020020DE0200204A
:10309000024B1868984208BF0020704718000020B3
:1030A000034B1B680BB9FFF763BB0020704700BFE1
:1030B000D802002030B570B10B4B5B6898420AD043
:1030C000036843B1D3E90421D0E90445121941EB67
:1030D0000501C3E90421D0E9003213605A600023DE
:1030E000C0E9003330BD00BF18000020B3F1FF3F3E
:1030F00008BFB2F1FF3F2DE9F84F04469946154647
:103100001F467AD08160EFF31188202383F3128861
:10311000BFF36F8FB9F1000FDFF8E4A020DBFFF7FA
:10312000BFFFDAE90027013549F100092D1849EB05
:10313000E07306464FF00109C4E90453AD1843EBB0
:103140000707FFF7A5FF0346DFF8B8E0DEF804A0A5
:10315000EBB9C4E900EACAF80040CEF8044028E020
:103160006FF00103DAE900125B1A4FF0FF3161EBF7
:1031700002025B1B62EB0902012B72F10001BCBF72
:10318000012300224FF00009C0E90432D9E7D3E956
:10319000041CD4E904208A4270EB0C0B24DA891A4F
:1031A0005A686CEB0000C3E90410C4E900321460F3
:1031B0005C60FFF76DFF84420ED1134B1B685BB957
:1031C000B9F1000F02D1FFF76BFF0646304601F060
:1031D000DBFA0021FFF750FA88F31188BFF36F8FF5
:1031E00028463946BDE8F88F521A60EB0C0053456B
:1031F000C4E90420ADD01B68AAE700252F46EFE7FD
:10320000D801002018000020D80200202DE9F04746
:10321000DFF8A8900246C9F800000D46FFF738FF16
:1032200000260027DFF898804FEAE27ED8E90013F5
:1032300050B1D0E9044CA2427EEB0C0A1ADAA41A6F
:103240006CEB0E06C0E904460024521843EB0E0353
:103250002046C8E90023C9F8004001F095FA21464C
:10326000FFF70AFA85F31188BFF36F8FBDE8F047C7
:10327000FFF7E0BE611843EBE473C0E90467C8E9F7
:103280000013FFF717FF01224FF00043C0E90423AA
:1032900085F31188BFF36F8F83689847EFF311852B
:1032A000202383F31288BFF36F8FD9F80020121BFD
:1032B000C9F80020FFF7ECFEB6E700BFD8020020F7
:1032C000D801002010B5EFF31184202383F3128876
:1032D000BFF36F8FFFF7E4FE0346054AD2E9000112
:1032E000181841EBE37184F31188BFF36F8F10BDA1
:1032F000D8010020014800F03DBB00BFA755000CDD
:103300000FB407B504AA064B52F8041B18680192C3
:1033100000F008F803B05DF804EB04B0704700BF9C
:10332000644F000C2DE9F04F43688BB08046924605
:10333000009383789C0740F1F980002508780028E5
:1033400000F0F68025280AD04B1C01930135414638
:10335000009B98470028C0F2E3800199EEE74E7881
:103360008B1C252E0193F1D000270A22B9463C463A
:103370001F2C22D8A6F12003102B20D8DFE803F061
:10338000141F1F1A1F1F1F0B1F1F1F121F171F1F86
:10339000090044F00104019B13F8016B0193002E16
:1033A000E6D13AE044F0020444F00404F3E744F0C8
:1033B0000804F0E744F01004EDE77F2C24D8A6F1D0
:1033C0003003092B08D860064EBF02FB073744F0D4
:1033D000200402FB0939DEE72A2E0DD161065AF8D6
:1033E000043B53D4002BA7BF44F020049946C3F1FB
:1033F000000944F02804CEE72E2E05D1630600F123
:10340000978044F04004C6E76C2E2ED028D8682E52
:1034100032D06A2E37D04C2E35D0002F46F0200304
:10342000B8BF24F04004A3F16502BCBF0027A4B2DA
:10343000022A01D9612B2BD10AF1070A07279D4ED9
:103440002AF0070A0AF1080A210760D506EB070BE4
:1034500034465C455DD1AE1BA9EB0709A21959E1C1
:10346000742E98D07A2E96D0D7E7260648BF44F41B
:10347000007444F080048EE7E00548BF44F4007413
:1034800044F4807487E744F4207484E71F4682E79D
:10349000A6F16302122A00F2D880DFE812F01300CE
:1034A0004D00D600D600D600D6004D00D600D6007E
:1034B000D600D600D600E800D100D600D6001A000B
:1034C000D600A0005AF8043B012704AE8DF8103056
:1034D000BAE75AF8046B784B002E08BF1E4614F06A
:1034E000400F304614BF39464FF0FF3101F0B1F9BB
:1034F0000746A9E741462020009B984700280FDB9C
:10350000013CA742F6D34D44A1462D1B9EE74C46F5
:10351000F7E7414614F8010B009B9847002898DA1A
:1035200098F8023043F0040388F802304FF0FF357A
:1035300028460BB0BDE8F08F220630D5A3052AD56A
:103540000AF1070A2AF007039A4659685AF8080B45
:1035500024F0100B00291FFA8BFB2FDA40424BF4AA
:10356000806B61EB410104AC0A23224601F07DF936
:103570001BF0400FA0EB040200F08E802BF0010442
:103580009742A4B240F38F80002E40F08E802BF043
:103590001104A4B21DE05AF8040BC117D8E7E005E6
:1035A0005AF8041B01D40846F7E7A20547BF48B202
:1035B00041F3C01108B241F3C031C9E750EA010339
:1035C000D1D16306CFD5002FCDD124F011043A46D6
:1035D000A4B23B4640F206410C4262D124E024F002
:1035E00010040A23A4B214F0800243D014F4007132
:1035F00017BF0AF1070A5AF8040B2AF0070292468D
:103600001CBF51685AF8080B50EA01023ED124F061
:10361000160B62061FFA8BFB3CD5002F3AD124F023
:1036200017043A463B46A4B221075AD4E10705D510
:10363000994572DDA9EB03039F184B469B464AE070
:1036400044F0100410237826CDE7782B04D1C6F17E
:10365000780343F01003C6E741462520009B9847B6
:103660000028FFF65DAF02354146304670E608237C
:103670000026B8E714F480715AF8040BC4D014F48F
:1036800000711ABFC0B2114680B2BDE724F0060433
:103690001FFA84FB04AC68E713465C46E10699D543
:1036A0002EB90133C0E71346F8E73B46F6E702338D
:1036B000BAE700BFDC55000CD555000CCDE902324D
:1036C00041462020009B98470028FFF629AF0BF1C8
:1036D000010BDDE90232D945F0DCEB1A03EB0B05F7
:1036E0005B46E10627D541463020CDE90232009BFA
:1036F00098470028FFF614AFDDE902327EB90135A4
:103700002F44791B8A4229DB144604AE94BB2A4419
:10371000A9EB03091546914440E017468EE70235B0
:1037200041463046CDE90232009B98470028DDE94A
:103730000232E5DAF4E640F206410C42E0D014F041
:10374000020F05F10105414614BF2B20202014F47F
:10375000806FCDE9023218BF2D20E5E7CDE90232B6
:103760004146009B3020013598470028DDE90232B0
:10377000C7DAD5E6013C4146CDE90232305D009B17
:1037800098470028DDE90232C0DAC9E64146202028
:10379000009B013598470028FFF6C2AEA9EB050350
:1037A000002BF3DCD9E500BF7047836800EBC10153
:1037B000B3F5004F2CBF51F8220031F812007047CA
:1037C00000EBC1018068B0F5004F2CBF41F82230FA
:1037D00021F812307047012208B5FFF7E6FFD0400C
:1037E00008BD836800EBC101B3F5004F08D34B68F7
:1037F0001AB143F001034B60704723F00103FAE76D
:103800004B881AB143F001034B80704723F001034A
:10381000FAE753000122FFF7D3BF08B58368B3F579
:10382000004F06D3FFF7D7FF01288CBF00200120EF
:1038300008BD0020FCE78368B3F5004F28BF0139BD
:10384000B1FA81F0C0F11F0070472DE9F041044644
:103850000D46FFF7E2FFB8BB29462046FFF7BBFF46
:1038600001462046FFF7E7FF04EB80010E6996B999
:103870000122E36882401343E36002220D612B467C
:1038800029462046FFF79CFF032229462046BDE833
:10389000F041FFF795BF022231462046FFF785FF32
:1038A0000746034629462046FFF78AFF0322334690
:1038B00029462046FFF784FF39462B462046FFF76E
:1038C0007FFF02223146E1E7BDE8F081B2F5802FAB
:1038D00034BF042308232DE9F0410026D21A8C18A6
:1038E000CD1D25F0070524F00704641BE4080560DE
:1038F00021462846AC60EE60FFF79DFF820002F192
:103900001B07FF083146043205F1100000F099FF53
:103910003A4631462846FFF77CFF33463246314669
:103920002846FFF74DFFA4EB070828463146012241
:10393000FFF757FF42463946FFF76BFF3B463246DB
:1039400039462846FFF73CFF21462846FFF761FF2E
:103950004346324621462846FFF732FF2146284695
:103960000122FFF73EFF3946BDE8F041FFF76DBF8A
:10397000002070470FB407B504A951F8040B01915A
:10398000FCF7FCFC03B05DF804EB04B07047704733
:1039900000F057BF00F048BF01460068FCF74EBD7D
:1039A00008B5FCF77BFDBDE80840FDF7D9B800215C
:1039B0000120FCF743BD6FF08500704761B662B629
:1039C00080F31188BFF36F8F704772B6002383F3C3
:1039D0001188BFF36F8FBFF34F8F30BF62B6BFF355
:1039E0006F8F704740E800F313F4803FD8B208BFF0
:1039F0006FF01500704730B50C684B6885B00A89C8
:103A00004D890094013B24F01F04234402F01F025F
:103A100042EA451223F01F0369468DF808200393FC
:103A2000FDF748F905B030BD08B5FDF723FB0020D0
:103A300008BD30B40125416802690968137E4D61F3
:103A400054685B0954B1107E023300F01F0052F835
:103A5000231005FA00F0234630BC184730BC7047ED
:103A600010B40269416802200968537E48615468B5
:103A70005B095CB1034452F823100123507E00F02F
:103A80001F0003FA00F0234610BC184710BC704713
:103A900010B40269416804200968937E4861546843
:103AA0005B095CB1023352F823100123907E00F0D1
:103AB0001F0003FA00F0234610BC184710BC7047E3
:103AC00010B40269416808200968D37E48615468CF
:103AD0005B095CB1023352F823100123D07E00F061
:103AE0001F0003FA00F0234610BC184710BC7047B3
:103AF00010B40269416810200968137F4861546856
:103B00005B095CB1023352F823100123107F00F0EF
:103B10001F0003FA00F0234610BC184710BC704782
:103B200010B40269416820200968537F48615468D5
:103B30005B095CB1023352F823100123507F00F07F
:103B40001F0003FA00F0234610BC184710BC704752
:103B500010B40269416840200968937F4861546845
:103B60005B095CB1023352F823100123907F00F00F
:103B70001F0003FA00F0234610BC184710BC704722
:103B800010B40269416880200968D37F4861546895
:103B90005B095CB1023352F823100123D07F00F09F
:103BA0001F0003FA00F0234610BC184710BC7047F2
:103BB00010B4026941684FF48070096892F82030AF
:103BC000486154685B0964B1023352F82310012341
:103BD00092F8200000F01F0003FA00F0234610BC0A
:103BE000184710BC704710B4026941684FF4007068
:103BF000096892F82130486154685B0964B1023366
:103C000052F82310012392F8210000F01F0003FA5C
:103C100000F0234610BC184710BC704710B402696E
:103C200041684FF48060096892F822304861546816
:103C30005B0964B1023352F82310012392F8220089
:103C400000F01F0003FA00F0234610BC184710BC18
:103C5000704710B4026941684FF40060096892F837
:103C60002330486154685B0964B1023352F8231071
:103C7000012392F8230000F01F0003FA00F023460E
:103C800010BC184710BC704710B4026941684FF46B
:103C90008050096892F82430486154685B0964B127
:103CA000023352F82310012392F8240000F01F0081
:103CB00003FA00F0234610BC184710BC704710B43C
:103CC000026941684FF40050096892F82530486154
:103CD00054685B0964B1023352F82310012392F84F
:103CE000250000F01F0003FA00F0234610BC18471F
:103CF00010BC704710B4026941684FF480400968F5
:103D000092F82630486154685B0964B1023352F876
:103D10002310012392F8260000F01F0003FA00F0A0
:103D2000234610BC184710BC704710B402694168A4
:103D30004FF40040096892F82730486154685B09E5
:103D400064B1023352F82310012392F8270000F0E7
:103D50001F0003FA00F0234610BC184710BC704740
:103D6000002208B511460D20FCF77CFE0D20FCF763
:103D70006BFE00220E201146FCF774FE0E20FCF7AD
:103D800063FE00220F201146FCF76CFE0F20FCF7AB
:103D90005BFE002210201146FCF764FE1020FCF7A9
:103DA00053FE002211201146FCF75CFE1120FCF7A7
:103DB0004BFE002212201146FCF754FE1220FCF7A5
:103DC00043FE002213201146FCF74CFE1320FCF7A3
:103DD0003BFE002214201146FCF744FE1420FCF7A1
:103DE00033FE002215201146FCF73CFE1520FCF79F
:103DF0002BFE002216201146FCF734FE1620FCF79D
:103E000023FE002217201146FCF72CFE1720FCF79A
:103E10001BFE002218201146FCF724FE1820FCF798
:103E200013FE002219201146FCF71CFE1920FCF796
:103E30000BFE00221A201146FCF714FE1A20FCF794
:103E400003FE00221B201146FCF70CFE1B20FCF792
:103E5000FBFD00221C201146FCF704FEBDE80840D3
:103E60001C20FCF7F1BD10B54468D4E9010183685A
:103E70001B6813B96FF0570010BD9847002802DA8D
:103E800010F1780FF8D16068E16883681B68002B37
:103E9000F0D09847002802DA10F1780FECD12369AE
:103EA0009847012223681A702068FDF741F9237DA5
:103EB00013B1002223681A702268137843F00203BA
:103EC00013702068FDF734F90020D5E72DE9F0479D
:103ED000D0F8049007690846D9E9006A0D46D9F878
:103EE0000880CCB2FDF756FA00286CD1AB0E092B36
:103EF00069D8DFE803F0050B1022683F464E685989
:103F0000736923F002037361BDE8F087F36A23F05D
:103F10000203F362F8E7403656F8243023F0020338
:103F200046F8243001233A6BA34022EA03023A63A5
:103F3000FA6A22EA0302FA62E6E70622B4FBF2F327
:103F4000D9B202FB13434FF0FF320133DBB202EB75
:103F5000C30301224C3656F8215002FA03F325EA36
:103F6000030346F821303B8F0634A24023EA0203C4
:103F70003B87C9E7DAF81C3023F00203CAF81C308B
:103F8000C2E704B308EB8404236A23F4807323623A
:103F9000BAE7C5F3052508EB8508D8F8803023F08B
:103FA0004003C8F88030AFE70121D9F80C30C5F3E1
:103FB000055203EB8203DA6BC5F38535A94022EA8B
:103FC0000102DA63A0E76FF085009DE72DE9F0417B
:103FD00045680846D5E900680C46AF68FDF7DAF990
:103FE000002876D1A30E092B73D8DFE803F0080F61
:103FF0001A2C054A515D05650220BDE8F081736900
:104000009B076AD5306900F001001AE0F36A9F0748
:1040100063D5B36F002B5ED13069C00900F0020098
:10402000EBE7E4B206F1400353F82430012013F02B
:10403000020FE2D033691834A04098430CBF01202E
:1040400000204000D9E70621E4B2B4FBF1F2336965
:1040500002F11805EB40DD07D0B23ED501FB12445A
:1040600006F14C034FF0FF3253F8200001230134D6
:10407000E4B202EBC4029340034214BF02200120C9
:10408000BBE7D8F81C309A0727D5D8F80C00BAE758
:10409000E4B204F1080357F82330DB051DD5786836
:1040A0000234E040C043AEE7C4F30524203457F89F
:1040B000243013F0400FE0E7C4F30552EB680E32F2
:1040C00003EB82035A680123C4F38534A3401342EF
:1040D000D3E7032091E700208FE701208DE72DE94A
:1040E000F3474FF000090C4601EB0121456841F010
:1040F0003F6141F47C21804617462E68D0F810A01D
:10410000CDF80490FFF762FF022803D0C7F80090B3
:1041100000201CE006F1400353F82430C3F30223CF
:10412000012B17D0022B2CD0BBB9AA68631C04F159
:10413000210152F8211003EB43035A00404601AB22
:1041400002F0FE0201F00F01FDF790F928B102B074
:10415000BDE8F087DAF80030019306F1480353F820
:104160002430443613F03F031EBF019AB2FBF3F232
:10417000019256F82420019BC2F3090253433B608D
:10418000C6E7404601A9FDF7EBF9DFE700232DE97B
:10419000F34105464768D0F8108008460E4614469D
:1041A0000193FDF7F7F800286BD131462846FFF759
:1041B0000DFF022805D000230020236002B0BDE8D7
:1041C000F081B30EF1B2092B5BD8DFE803F00508EC
:1041D0000F161D33363E4949D8F80030ECE721462A
:1041E000284602B0BDE8F041FDF7BAB9224628469C
:1041F00002B0BDE8F041FFF772BF2246284602B088
:10420000BDE8F041FDF7FCB87A68136903F00303D9
:10421000012B0CD0991E01290CD8D2699207CAD55E
:10422000032B14BF4FF400434FF48063C4E74FF4F3
:104230008063C1E74FF40043BEE723460C222846C3
:1042400002B0BDE8F041FDF711B9BB68C6F3052621
:10425000203653F826100C22234601F00F01EEE71A
:104260000C220021284601ABFDF700F90028A5D15A
:10427000FB68DA68019B12F0FF029DD0B3FBF2F3FA
:104280009AE76FF0850099E70623F0B40A4691FBA0
:10429000F3F1446803FB1123266801244C36DB004C
:1042A00056F82170073304FA03F305693B4346F8D7
:1042B00021302B8F063294401C43EB6A2C87CB4075
:1042C000DA0706D42B6BCB40DB0702D5F0BCFDF739
:1042D0009DBA0020F0BC7047F8B504690A46097819
:1042E000258F8E1DF540ED071ED406254368D3F8B3
:1042F00000C0B1FBF5F305FB13133F25DCF84C7050
:10430000DB009D4027EA0507557905FA03F33B4397
:10431000CCF84C3013793BB1FFF7B6FF20B901233D
:10432000228FB34013432387F8BD10B54468C1F30F
:104330000520A1689B0101EB8001D1F8800003F00A
:10434000400302F00F0220F04F0013430343C1F873
:10435000803010BD10B543680120C1F38534DB689F
:10436000C1F3055189000B44012ADA6B00FA04F00D
:104370000CBF02438243DA6310BD436800205B68D0
:104380001B6A0B60704743685B68186942400A40CB
:1043900042401A6100207047436800205B689961C1
:1043A0007047436800205B6859617047436800208C
:1043B0005B68D961704730B50369D86800B30024E1
:1043C000884219D108688CB91C69D860A14200D113
:1043D0001861002008602AB1DA680A601A69D96099
:1043E00002B9196100200FE02846E9E7206018694A
:1043F000814208BF1C61ECE705680446002DF3D13B
:10440000002AE9D16FF0150030BD002070474368E5
:10441000187AFCF7FFBE70B50B46C968054611B1A6
:104420005E680C6801B970BD8A682A4002D03046C7
:104430004B6898471CB1236821461C46F2E7234687
:10444000FAE710B543685C68631893F8400000F021
:10445000FE0083F8400012F4403010D193F8402061
:1044600002F0FB0283F8402093F8402002F0FD02A6
:1044700083F8402001238B406360002010BD12F0C0
:10448000020F49D1B0F5403F10D193F8400040F001
:10449000020083F8400001238B405103A36001D543
:1044A0006361EAE7120348BFA361E6E7D00318D5CA
:1044B00093F8400012F0300F40F0020083F8400003
:1044C0004FF0010000FA01F16160D6D093F840008E
:1044D00040F0040083F84000D3064CBFA161616145
:1044E000CBE7900318D5012012F0300F00FA01F14C
:1044F0000FD1500309D56161002093F8402002F0EC
:10450000FD0283F84020A160B8E71203F4D5A16151
:10451000F2E76FF08500F0E76FF08500AEE730B5A9
:10452000036813600579046804EBC504A34202D351
:104530006FF0010030BD5C7908338C42F1D100206E
:10454000F8E743689B681A7E520743BF9B6A0020C6
:104550000B706FF00F00704743689B681A7ED2079C
:10456000FCD5996270470269002013680B6053689C
:104570004B60704743689B68588B5A8BC0F3800030
:1045800092075A8B48BF40F0040002F0010240EA53
:1045900042005A8BD1065A8B48BF40F00800920661
:1045A0005A8B48BF40F0100092B242F037025A8353
:1045B00070470268012922F070620346026004D04D
:1045C00002290CD0026802607047026842F08072D3
:1045D0000260426842F400525A60FDF773BE0268FE
:1045E00042F080720260426822F40052F4E738B56B
:1045F000044648B1FEF7DAF8782305465C43FEF737
:10460000D5F8431BA342FAD338BD10B5436904461D
:104610003BB90020E2684042537843F001035370F5
:1046200010BD98470028F4D00028B8BF4042FF28AA
:10463000A8BFFF20E3681870ECE740B1C368587862
:1046400010F001001EBF1878B0FA80F040097047E2
:10465000EFF31183202383F31288BFF36F8FFEE7FC
:1046600008B5FFF7F5FF202408B5EFF3118384F3B5
:104670001288BFF36F8FFFF7A8F9F6E738B5858981
:10468000EFF31181202282F31288BFF36F8F037C36
:1046900013F0080404D081F31188BFF36F8F38BD85
:1046A0000122FEF701FBEB07F9D584F31188BFF374
:1046B0006F8F0423184602DFF1E7FEF7ADBBD0E9A8
:1046C000003213605A600023C0E90033704708B518
:1046D000FFF7F5FF037C23F00203037400238360DC
:1046E00008BD10B5EFF31184202383F31288BFF3C4
:1046F0006F8FFEF74FFA84F31188BFF36F8F10BDF1
:10470000FEF748BAFEF71CBA08B5037C014613F061
:10471000280F0CD183680BB1FFF7D9FF0B7C08463B
:1047200023F004030B74BDE80840FEF733BA08BD5C
:1047300010B5EFF31184202383F31288BFF36F8F3A
:104740001838FFF7E1FF84F31188BFF36F8F10BDB6
:104750000846FEF75FBA38B505460C46FEF79EFBE5
:10476000B4F1FF3F08BFB5F1FF3F0AD0C1170930D0
:104770004FF00A024FF0000341F10001FBF740FC4B
:1047800038BD4FF0FF30FBE708B50246FEF780FC6E
:1047900070B1D0E904319B1A61EBE272B3F1004FC2
:1047A00072F1000104DA002AACBF1846002008BDEF
:1047B0006FF00040FBE7024638B5EFF31185202388
:1047C00083F31288BFF36F8F0368D3B1FEF760FCE9
:1047D00004461046FEF76EFC00224FF00043844270
:1047E000C0E9042305D0002085F31188BFF36F8F43
:1047F00038BDFEF755FCFFF7C7FF0021FDF73CFF72
:10480000F1E7D0E90413B3F1004F08BF012904D147
:1048100000204FF00041C2E904016FF01500E3E70A
:1048200008B5FEF74FFD08BD0A44431E914200D172
:10483000704710B511F8014B914203F8014FF9D1BF
:1048400010BD02440346934200D1704703F8011B98
:10485000F9E70246014410B58A42134603D01C789A
:104860000132002CF8D1181A10BDF0B5C3F137078A
:10487000044603F01F031046FFB2082BE6B232D005
:10488000102B3DD06508A40845EAC17544EA81743F
:104890008A082D1942EB5102290941EA02716D186B
:1048A00042EB1212290A41EA02616D1842EB122210
:1048B000290C41EA02416D1842EB1242AD1842F157
:1048C0000002EC0844EA4274D10804EB8402A6EB2F
:1048D0004205EDB2092D0CD90134A5F10A0541F1CB
:1048E0000001EDB212E0E40806F0070544EA417465
:1048F000C908303554EA010200F8015BBDD1F0BDB2
:10490000240906F00F0544EA01740909092D84BF42
:08491000ED19EDB2EDE7000026
:084918001CB7FF7F0100000045
:10492000000000006049000C00000000B449000CC9
:10493000000000009849000C000000007C49000CB9
:1049400000000000D049000CD920000C000000003D
:10495000D925000C000000009D10000C0000000094
:104960006755000C804F000C004F000C2200002007
:104970003C020020B11E000C000000004955000C54
:10498000684F000C000000002000002008020020FA
:10499000673E000C000000007655000C984F000C9C
:1049A000DC4E000C24000020780200200B44000C98
:1049B000000000008455000CA44F000CDC4E000CDD
:1049C000260000208C0200200B44000C0000000098
:1049D0009255000CC04F000C1C4F000C280000200A
:0C49E000A0020020F123000C00000000E9
:1049EC0000000000AF39000C00000000AF39000CD3
:1049FC0000000000AF39000C00000000AF39000CC3
:104A0C0000000000AF39000C00000000AF39000CB2
:104A1C0000000000AF39000C00000000AF39000CA2
:104A2C0000000000AF39000C00000000AF39000C92
:104A3C0000000000AF39000C00000000AF39000C82
:104A4C0000000000AF39000C7C49000C333A000C1C
:104A5C007C49000C613A000C7C49000C913A000C2A
:104A6C007C49000CC13A000C7C49000CF13A000C5A
:104A7C007C49000C213B000C7C49000C513B000C88
:104A8C007C49000C813B000C7C49000CB13B000CB8
:104A9C007C49000CE73B000C7C49000C1D3C000CD5
:104AAC007C49000C533C000C7C49000C893C000CEC
:104ABC007C49000CBF3C000C7C49000CF53C000C04
:104ACC007C49000C2B3D000C00000000AF39000CA1
:104ADC0000000000AF39000C00000000AF39000CE2
:104AEC0000000000AF39000C00000000AF39000CD2
:104AFC0000000000AF39000C00000000AF39000CC2
:104B0C0000000000AF39000C00000000AF39000CB1
:104B1C0000000000AF39000C00000000AF39000CA1
:104B2C0000000000AF39000C00000000AF39000C91
:104B3C0000000000AF39000C00000000AF39000C81
:104B4C0000000000AF39000C00000000AF39000C71
:104B5C0000000000AF39000C00000000AF39000C61
:104B6C0000000000AF39000C00000000AF39000C51
:104B7C0000000000AF39000C00000000AF39000C41
:104B8C0000000000AF39000C00000000AF39000C31
:104B9C0000000000AF39000C00000000AF39000C21
:104BAC0000000000AF39000C00000000AF39000C11
:104BBC0000000000AF39000C00000000AF39000C01
:104BCC0000000000AF39000C00000000AF39000CF1
:104BDC0000000000AF39000C00000000AF39000CE1
:104BEC0000000000AF39000C00000000AF39000CD1
:104BFC0000000000AF39000C00000000AF39000CC1
:104C0C0000000000AF39000C00000000AF39000CB0
:104C1C0000000000AF39000C00000000AF39000CA0
:104C2C0000000000AF39000C00000000AF39000C90
:104C3C0000000000AF39000C00000000AF39000C80
:104C4C0000000000AF39000C00000000AF39000C70
:104C5C0000000000AF39000C00000000AF39000C60
:104C6C0000000000AF39000C00000000AF39000C50
:104C7C0000000000AF39000C00000000AF39000C40
:104C8C0000000000AF39000C00000000AF39000C30
:104C9C0000000000AF39000C00000000AF39000C20
:104CAC0000000000AF39000C00000000AF39000C10
:104CBC0000000000AF39000C00000000AF39000C00
:104CCC0000000000AF39000C00000000AF39000CF0
:104CDC0000000000AF39000C00000000AF39000CE0
:104CEC0000000000AF39000C00000000AF39000CD0
:104CFC0000000000AF39000C00000000AF39000CC0
:104D0C0000000000AF39000C00000000AF39000CAF
:104D1C0000000000AF39000C00000000AF39000C9F
:104D2C0000000000AF39000C00000000AF39000C8F
:104D3C0000000000AF39000C00000000AF39000C7F
:104D4C0000000000AF39000C00000000AF39000C6F
:104D5C0000000000AF39000C00000000AF39000C5F
:104D6C0000000000AF39000C00000000AF39000C4F
:104D7C0000000000AF39000C00000000AF39000C3F
:104D8C0000000000AF39000C00000000AF39000C2F
:104D9C0000000000AF39000C00000000AF39000C1F
:104DAC0000000000AF39000C00000000AF39000C0F
:104DBC0000000000AF39000C00000000AF39000CFF
:104DCC0000000000AF39000C00000000AF39000CEF
:104DDC0000000000AF39000C00000000AF39000CDF
:104DEC0000000000AF39000C00000000AF39000CCF
:104DFC0000000000AF39000C00000000AF39000CBF
:104E0C0000000000AF39000C00000000AF39000CAE
:104E1C0000000000AF39000C00000000AF39000C9E
:104E2C0000000000AF39000C00000000AF39000C8E
:104E3C0000000000AF39000C00000000AF39000C7E
:104E4C0000000000AF39000C00000000AF39000C6E
:104E5C0000000000AF39000C00000000AF39000C5E
:104E6C0000000000AF39000C00000000AF39000C4E
:104E7C0000000000AF39000C00000000AF39000C3E
:104E8C0000000000AF39000C00000000AF39000C2E
:104E9C0000000000AF39000C00000000AF39000C1E
:104EAC0000000000AF39000C00000000AF39000C0E
:104EBC0000000000AF39000C00000000AF39000CFE
:104ECC0000000000AF39000C00000000AF39000CEE
:104EDC004344000C7B43000C8743000C9943000CAB
:104EEC00A343000CAD43000C2921000CB743000C6C
:044EFC000F44000C53
:104F00006D18000CCD3E000C000000008D41000C1F
:0C4F1000CD3F000C00000000A915000CB3
:104F1C004345000C5945000C7545000CF122000C62
:044F2C006745000CC9
:104F30000000002000000000060001000200000048
:104F4000444F000C000000083A55000C0600000019
:104F5000E0FF1F0C000000204255000C2100000063
:104F6000E0FF07200400002000A001446049000C7D
:104F70001A7F132403C5FF1F613D000C01000000D0
:104F800000C0004400E0004400000144002001444F
:104F90000080004405000000FFFFFFFF80118044F7
:104FA00023000000FFFFFFFF80108044210000006D
:104FB000001080448010804400118044801180449F
:104FC00000C20100030001000020004500010000B4
:104FD00001000000000000006049000C2E7F30241A
:104FE00023DAFF1FE84F000CF04F000C0100000017
:104FF0001050000C020000002049000C2049000C59
:105000005049000C5849000C6049000C6049000CE4
:1050100090230000802300004F4E004F4646004C76
:1050200045442073746174653A2025730A00723018
:105030002F61313A202030782530387820207231A5
:105040002F61323A20203078253038782020723293
:105050002F61333A20203078253038780A007233B7
:105060002F61343A20203078253038782072313260
:105070002F69703A2020307825303878207231340A
:105080002F6C723A20203078253038780A0020784A
:105090007073723A20203078253038780A004661E3
:1050A000756C74696E6720696E7374727563746968
:1050B0006F6E206164647265737320287231352FBE
:1050C0007063293A203078253038780A00556E68A8
:1050D000616E646C6564204952516E3A2025640A01
:1050E000002A2A2A2A2A2053454355524520464160
:1050F000554C54202A2A2A2A2A0A00202041646476
:10510000726573733A20307825780A002020496E42
:1051100076616C696420656E74727920706F696E57
:10512000740A002020496E76616C696420696E748F
:10513000656772697479207369676E6174757265E9
:105140000A002020496E76616C6964206578636589
:105150007074696F6E2072657475726E0A0020201B
:105160004174747269627574696F6E20756E6974CA
:105170002076696F6C6174696F6E0A002020496E39
:1051800076616C6964207472616E736974696F6EA4
:105190000A0020204C617A79207374617465207054
:1051A0007265736572766174696F6E0A0020204CB7
:1051B000617A79207374617465206572726F720A06
:1051C000002A2A2A2A2A205553414745204641557C
:1051D0004C54202A2A2A2A2A0A0020204469766967
:1051E00073696F6E206279207A65726F0A002020E1
:1051F000556E616C69676E6564206D656D6F72795F
:10520000206163636573730A002020537461636BCC
:10521000206F766572666C6F772028636F6E746599
:1052200078742061726561206E6F742076616C699C
:1052300064290A0020204E6F20636F70726F6365CF
:1052400073736F7220696E737472756374696F6EB5
:10525000730A002020496C6C6567616C206C6F617B
:1052600064206F66204558435F52455455524E2086
:10527000696E746F2050430A002020496C6C65678A
:10528000616C20757365206F6620746865204550D9
:1052900053520A002020417474656D707420746F3D
:1052A000206578656375746520756E646566696EE2
:1052B000656420696E737472756374696F6E0A0039
:1052C0002A2A2A2A2A20425553204641554C542046
:1052D0002A2A2A2A2A0A002020537461636B696EE5
:1052E00067206572726F720A002020556E737461B8
:1052F000636B696E67206572726F720A00202050BE
:1053000072656369736520646174612062757320DE
:105310006572726F720A0020204246415220416439
:1053200064726573733A20307825780A002020492A
:105330006D70726563697365206461746120627564
:1053400073206572726F720A002020496E73747246
:10535000756374696F6E20627573206572726F7207
:105360000A002020466C6F6174696E672D706F694A
:105370006E74206C617A7920737461746520707228
:1053800065736572766174696F6E206572726F7293
:105390000A002A2A2A2A2A204D5055204641554CD7
:1053A00054202A2A2A2A2A0A002020537461636B77
:1053B000696E67206572726F722028636F6E746504
:1053C00078742061726561206D6967687420626518
:1053D000206E6F742076616C6964290A0020204475
:1053E000617461204163636573732056696F6C61FA
:1053F00074696F6E0A0020204D4D46415220416471
:1054000064726573733A20307825780A0020204949
:105410006E737472756374696F6E20416363657334
:10542000732056696F6C6174696F6E0A0052657300
:10543000657276656420457863657074696F6E2067
:10544000280053707572696F757320696E74657288
:105450007275707420284952512000202053206911
:105460006E737472756374696F6E206164647265C3
:1054700073733A2020307825780A002A2A2A2A2AAB
:105480002048415244204641554C54202A2A2A2A79
:105490002A0A002020427573206661756C74206FA3
:1054A0006E20766563746F72207461626C65207221
:1054B0006561640A00202044656275672065766531
:1054C0006E740A0020204661756C742065736361F8
:1054D0006C6174696F6E20287365652062656C6FFE
:1054E00077290A00415243485F45584345505420AC
:1054F0007769746820726561736F6E2025780A0A77
:10550000002A2A2A2A2A204465627567206D6F6E58
:1055100069746F7220657863657074696F6E202A94
:105520002A2A2A2A0A002A2A2A2A2A2025732025FA
:105530006429202A2A2A2A2A0A00464C4153485F15
:1055400030005352414D5F3000696E746572727560
:1055500070742D636F6E74726F6C6C65724034344E
:1055600030316130303000636C6F636B4034343005
:105570003132303030006770696F40343438303148
:10558000313830006770696F40343438303130382A
:105590003000736572636F6D4034353030323030B7
:1055A00030006D61696E002A2A2A20426F6F74698B
:1055B0006E67205A6570687972204F532062756952
:1055C0006C642030613032353730393632616120D9
:1055D0002A2A2A0A00286E756C6C29002A666C6FCC
:1055E00061742A003F3F3F3F3F3F3F3F1F3F3F3FE8
:1055F0003F3F3F3F3F0300003F3F3F3F2F3F3F00C4
:10560000000500000B3800400506070001000000FF
:105610007139000C00000000293A000C0000000065
:1056200000000000C8000000180000201800002042
:0C5630000000000000000000000000006E
:04563C0015E015E080
:040000050C0009F1F1
:00000001FF
