:020000040800F2
:10000000681F0020650A000CB359000C510A000C4F
:10001000510A000C510A000C510A000C510A000C44
:10002000000000000000000000000000990A000C21
:10003000510A000C00000000490C000CD935000CDE
:10004000B50C000CB50C000CB50C000CB50C000C7C
:10005000B50C000CB50C000CB50C000CB50C000C6C
:10006000B50C000CB50C000CB50C000CB50C000C5C
:10007000B50C000CB50C000CB50C000CB50C000C4C
:020000040C00EE
:1000000053B94AB9002908BF00281CBF4FF0FF317F
:100010004FF0FF3000F00CB8ADF1080C6DE904CEE4
:1000200000F012F8DDF804E0DDE9022304B07047C7
:10003000704700BF10F8012B11F8013B012A28BFBF
:100040009A42F7D0D01A70472DE9F0478C468E4679
:10005000089E154604461946002B40F0D080724594
:1000600047D9B2FA82F74FB1C7F120030EFA07FC65
:10007000BD40BC4020FA03F343EA0C0C4FEA154E96
:10008000A8B2230CBCFBFEF80EFB18CC08FB00F951
:1000900043EA0C43994528D9EB1808F1FF3204D202
:1000A000994502D9A8F102022B44A3EB0903A4B29B
:1000B000B3FBFEFC0EFB1C330CFB00F044EA0344D4
:1000C000A04214D92C190CF1FF3304D2A04202D95A
:1000D000ACF102032C44241A43EA02401EB1FC4056
:1000E000002334607360BDE8F0874246DDE7634675
:1000F000F1E7002A79D0B2FA82F3002B3FD01946FB
:10010000C1F1200302FA01F500FA01F42EFA03F21C
:100110000EFA01FE20FA03F3AFB243EA0E034FEAF0
:10012000154EB2FBFEFC0EFB1C201A0C0CFB07F854
:1001300042EA004290455AD9AA180CF1FF3004D285
:10014000904502D9ACF102002A44A2EB08029BB20E
:10015000B2FBFEFC0EFB1C220CFB07F743EA02433A
:100160009F4246D9EB180CF1FF3204D29F4202D9CC
:10017000ACF102022B44DB1B42EA004202E0AEEB90
:10018000020301224FEA154EAFB2200CB3FBFEFC76
:100190000EFB1C330CFB07F840EA034398452AD9B1
:1001A000EB180CF1FF3004D2984502D9ACF10200F3
:1001B0002B44A3EB0803A4B2B3FBFEFC0EFB1C33E1
:1001C0000CFB07F744EA0344A74216D92C190CF19B
:1001D000FF3304D2A74202D9ACF102032C44E41B42
:1001E00043EA00400F46114678E71F2188E7604642
:1001F000ABE76246BFE76046DBE76346EFE7734580
:1002000006D916B9002108466DE7C6E9000EF9E7E0
:10021000B3FA83F787B9734501D3824207D8841AAA
:100220006EEB030301209C461EB900215BE73846B4
:10023000FAE7C6E9004CF8E7C7F1200CBB4000FA2A
:1002400007F422FA0CF520FA0CF1BA401D432EFAFD
:100250000CF30EFA07FE4FEA154941EA0E011FFAA8
:1002600085FEB3FBF9F809FB18300B0C08FB0EFAFE
:1002700043EA00439A4540D9EB1808F1FF3004D215
:100280009A4502D9A8F102002B44A3EB0A0389B2D4
:10029000B3FBF9F809FB183308FB0EFE41EA0341F2
:1002A0008E452CD9691808F1FF3304D28E4502D946
:1002B000A8F10203294443EA0040A1EB0E01A0FB90
:1002C00002984145CE46434602D306D14C4504D25E
:1002D0000138B9EB020E68EB0503002EA5D0B4EB94
:1002E0000E0261EB030101FA0CFC22FA07F3F9405C
:1002F0004CEA0303C6E9003197E74046C5E74346A9
:10030000D9E70000002313B50D4C0193019B4BB1BD
:100310000C490D4805F0A6FA002142F2107009F0D0
:1003200066F8F5E7A3681B6D1BB10421204601AAFE
:10033000984700214FF47A7009F059F8E6E700BFBA
:100340009498000C46A0000C4AA0000C014B1B68BE
:10035000184700BFD0000020014B1860704700BF55
:10036000D000002030B5044685B00D461022002193
:10037000684609F0D1F902238DF80230044B2A4671
:1003800021466846019304F057FD05B030BD00BF1B
:100390004D03000C80B505460E461746984604F0FE
:1003A00011FB034600F098FC0446DFF81890424623
:1003B00049F8003039463046A84754F8090000F0A3
:1003C0002DFC00BF08000000014B036000207047B7
:1003D0009C9E000C07B51B491B4805F07CFC70BBBC
:1003E0001A49194805F077FC48BB1949164805F029
:1003F00072FC20BB1749144805F06DFCF8B90146A2
:10040000154A114805F049FFC8B9024601231349AE
:100410000D4806F01CF890B9012301460093EF2225
:100420000223094805F061FB48B9074805F086FB3F
:1004300028B9054803B05DF804EB05F0AFBB03B085
:100440005DF804FB48010020B403002030010020C7
:100450001801002000010020D40000205BA0000C47
:1004600008B50348034A0021121A05F09AFA08BD9C
:1004700048040020280C0020074808B5074A08490E
:10048000121A05F090FABDE808400648064A0749E6
:10049000121A05F088BA00BF0000002048040020AE
:1004A000B4A6000C0000002000000020B4A6000C40
:1004B00038B505460C4699B1D1E901230F480968C2
:1004C00005F0D0F9D4E90423E1680D4805F0CAF934
:1004D000E1690C4805F0C6F9A1690B4805F0C2F9BD
:1004E000012D05D1EFF305810848103905F0BAF95F
:1004F00021462846BDE8384003F052B974A0000CEC
:10050000A4A0000CD4A0000CE4A0000C13A1000CCB
:1005100030BFFFF7FDBF00BF2DE9F04105460B4E90
:10052000DFF82C80324606EB0807CC1B2046094931
:1005300009F0E5F8A01942460021083C09F0ECF862
:10054000AC6707F10800BDE8F08100BF00000000C3
:10055000080000009C9E000C10B52A4C2A4805F0AB
:1005600081F9D4F8E810D4F8E430580602D52748C9
:1005700005F078F9D4F8E430D9070BD5244805F014
:1005800071F926201F4AD2F8E43043F0FF03C2F885
:10059000E43010BDD4F8E4309A0704D51D4805F0C6
:1005A00061F92720EEE7D4F8E4305B0704D51A4858
:1005B00005F058F92820E5E7D4F8E430180704D509
:1005C000164805F04FF92920DCE7D4F8E430D906C5
:1005D00004D5134805F046F92A20D3E7D4F8E430CF
:1005E0009A0604D50F4805F03DF92B20CAE7D4F848
:1005F000E4301B0604D50C4805F034F92C20C1E783
:100600002520BFE700ED00E027A1000C41A1000C70
:1006100052A1000C69A1000C88A1000CA4A1000C3F
:10062000C2A1000CD8A1000CF3A1000C10B5204C05
:10063000204805F017F9A36A990137D51E4805F03F
:1006400011F91E20A36ADA0103D51C4805F00AF946
:100650001F20174CA36ADB0203D5194805F002F9E5
:100660002020A36A1C0303D5164805F0FBF82120BF
:100670000F4CA36A590303D5134805F0F3F8222061
:10068000A36A9A0303D5114805F0ECF82320084C1F
:10069000A36ADB0303D50E4805F0E4F82420A36A1F
:1006A0006FEA03436FEA1343A36210BD1D20C9E73D
:1006B00000ED00E007A2000C20A2000C34A2000C08
:1006C0004FA2000C7AA2000C99A2000CBFA2000C51
:1006D000DAA2000C70B5244C064624480D4605F0FD
:1006E000C1F8A36AD90435D5214805F0BBF8172015
:1006F000A36A1A0503D51F4805F0B4F818201A4C50
:10070000A36A9B050FD51C4805F0ACF8A16BA36A42
:10071000180407D5194805F0A5F81EB1A36A23F4FB
:100720000043A3621920104CA36A590503D514484D
:1007300005F098F81A20A36ADA050DD5114805F0DE
:1007400091F81B20084A936A43F47F439362002385
:100750002B7070BD1620CBE7A36A9B04F2D50A4824
:1007600005F080F81C20EDE700ED00E006A3000C8A
:100770001DA3000C2FA3000C43A3000C5DA3000CD1
:1007800073A3000C8FA3000CA8A3000C70B5264C1B
:10079000064626480D4605F065F8A36AD80640D5FA
:1007A000234805F05FF81120A36A190703D52148F3
:1007B00005F058F812201C4CA36A9A070FD51E4862
:1007C00005F050F8616BA36A1B0607D51B4805F0BE
:1007D00049F81EB1A36A23F08003A3621320124CD0
:1007E000A36ADE0703D5164805F03CF81420A36A77
:1007F0009C0603D5134805F035F815200A4B9A6A74
:10080000D10658BF9A6A9A6A920642BF5A6A22F47F
:1008100000525A629A6A42F0FF029A6200232B70D9
:1008200070BD1020C0E700BF00ED00E0D8A3000CB1
:10083000EFA3000C2FA3000C23A4000C3CA4000C7D
:1008400053A4000CA8A3000C2DE9F0416E4B044604
:100850005F688AB00023C7F3080683F31188BFF3EB
:100860006F8F02F07F40B0F17F4F34D112F001055D
:1008700032D012F0400502F0080804D0B8F1000FA1
:1008800026D1012512E0500748BF0C465F4B216876
:1008900058BF01250B44012B98BF216C5C4804F024
:1008A000E1FFB8F1000F10D0EFF389844FF000089A
:1008B000F31E8DF80780092B00F29680DFE803F025
:1008C0000E8A8E7F869494949492EFF38884EDE759
:1008D0000C461D46EAE71D462C46E7E74D484A4EC2
:1008E00004F0C0FF8DF80780F36A9A0704D54A48E0
:1008F00004F0B8FF00232AE0F36A002B01DA47482E
:10090000F6E7F36A5B00F5D5454804F0ABFF736981
:10091000A26943F480737361BFF34F8FBFF36F8F8E
:1009200032F8023C726922F480727261BFF34F8F19
:10093000BFF36F8F03F47F42B2F55F4F27D1DBB275
:10094000022B24D12168374804F08CFF23689DF8DE
:100950000720CAB902AE04F1200732462068616858
:10096000083403C2BC421646F7D1099A002D47D07D
:10097000C2F3080121B96FEA52226FEA42220992BA
:10098000184602A9FFF794FD0AB0BDE8F0811E4B9E
:100990009A6AD2B22AB101200DF10701FFF7F6FEE3
:1009A00016E09A6A12F47F4F05D001200DF107017D
:1009B000FFF790FE0CE09A6AB2F5803F02D3FFF792
:1009C00035FE05E0D3F8E430002B93D0FFF7C4FDEB
:1009D0000346BCE700200DF10701DFE700200DF121
:1009E0000701E5E7104883E7104B17F4F87F10493B
:1009F000104808BF1946A6F1100204F033FF79E74A
:100A00006FF30802BBE700BF00ED00E0A6ED0501B3
:100A1000A1A4000CC1A4000CD9A4000CFBA4000CE0
:100A20000AA5000C2AA5000C47A5000C73A4000C15
:100A300088A4000C6CA5000C044B5A6942F010020B
:100A40005A615A6922F008025A61704700ED00E0CD
:100A5000EFF30880EFF3098101B57246FFF7F4FE6A
:100A600001BD00BF0A4880F30888202080F3118868
:100A700008484FF40061401880F30988EFF31480B0
:100A80000221084380F31488BFF36F8F00F05CF8F5
:100A9000681F0020281200201EF0040F0CBFEFF387
:100AA0000880EFF30980816911F8021C0229FFD048
:100AB00001B5724604F079FF01BD00BF00B2002805
:100AC00007DB01234109034A00F01F00834042F87D
:100AD0002130704700E100E000B200280CDB012269
:100AE0000649430900F01F008240203341F82320CB
:100AF000BFF34F8FBFF36F8F704700BF00E100E07F
:100B000000B2002801F10101ACBF00F16040064BCA
:100B10004FEA4111C9B2ABBF00F5614000F00F00D0
:100B200080F800131954704714ED00E0044B054A97
:100B300023F07F039360BFF34F8FBFF36F8F704736
:100B40000000000800ED00E008B5FFF7EFFF0B4ADA
:100B5000D2F8883023F47003C2F88830EFF314839E
:100B600023F0040383F31488BFF36F8FFFF778FC3F
:100B7000FFF782FC00F092F802F0D6FE00ED00E0F4
:100B800042F8203C009B0B4942F81C3C019B21F0A1
:100B9000010142F8183C029B42F8081C42F8143C40
:100BA0004FF0807342F8043C0023203A0265C3678B
:100BB000704700BF9503000C00B50B4B15469860BD
:100BC000826F0A4B0E461A602C4686F30988002075
:100BD000034B98472046002100220023014C204768
:100BE000CF59000C9503000CF00B002030080020BA
:100BF0001022014B1A61704700ED00E0054B5A6965
:100C00009B689A421FBF044A536843F08053536065
:100C1000704700BFF00B002000ED00E0084B9B6820
:100C200083420BD1EFF3058343B1064B5A6842F080
:100C300080525A605A6A22F400425A6208F01EBB7F
:100C4000F00B002000ED00E011498A684FF0300001
:100C50001044EFF3098C80E8F01F202080F3128805
:100C6000BFF36F8F0B4F4FF000664A698A603E609A
:100C7000906F094C2060D06F0023D36780F31188F8
:100C800002F1300090E8F01F8CF3098870470000F3
:100C9000F00B002004ED00E03008002000232021AC
:100CA0000348C21801339E2B82F80013F9D1704714
:100CB00000E100E008B5EFF30583064A103B02EBC4
:100CC000C30152F8330049688847BDE80840FFF780
:100CD00095BF00BFE898000C01480068704700000D
:100CE000300800201FB50121094B0A4A0A4800F0CC
:100CF000F7F80023064A0393084B0121019301A84A
:100D0000D31A029300F0F6F805B05DF804FB00BFBB
:100D100000000820000000209C9E000C48040020D9
:100D20000A7A0B6810B562F304031C46CB685209BB
:100D300023F01F0343EA4203044A43F00103C2F8CD
:100D40009800C2F89C40C2F8A03010BD00ED00E051
:100D500010B5074BD3F89030C3F30723013B9842FB
:100D600002D8FFF7DDFF10BD6FF01500FBE700BFF5
:100D700000ED00E02DE9F04F0F46144606464FF017
:100D800000084B4D85B0B84580F28E80D6F80490AF
:100D9000B9F1000F35D0B9F11F0F40F2838019F07F
:100DA0001F0F7FD1D6F800A01AF01F0F7AD150463E
:100DB00004F021FE834609EB0A00013804F01BFE13
:100DC00083456FD11BF1160F6CD05C456ADDC5F809
:100DD00098B0D5F89C10C5F898B0D5F8A03021F09F
:100DE0001F0143F01F0AD6E900321A44994202F16A
:100DF000FF391BD1CA4508D131465FFA8BF004F0A8
:100E000003FE08F101080C36BDE73146C5F898B07D
:100E1000D5F89C30E0B263F30402C5F89C2004F0DE
:100E2000F3FD10F1160F3DD0441CEAE7C5F898B069
:100E3000D5F8A020013B23F01F0302F01F0213434B
:100E4000CA453146E0B2C5F8A030E8D004F0DCFD78
:100E500010F1160F26D0C5F898B0D5F89C209DF853
:100E600008300AF1FF3A62F304038DF80830D5F830
:100E7000A0309DF808205B0863F347128DF8082026
:100E8000D6E900321344009323F01F035344A3EB2D
:100E90000903013023F01F036946C0B20393FFF733
:100EA00057FFBEE76FF01504204605B0BDE8F08F90
:100EB00000ED00E00522044BC3F89420BFF34F8FF0
:100EC000BFF36F8F704700BF00ED00E0BFF35F8F8F
:100ED0000022024BC3F89420704700BF00ED00E0F1
:100EE00010B5034C2278FFF745FF207010BD00BFFE
:100EF000240C00202DE9F74F294D8A4606464FF075
:100F00000008AB46274FD0451BDAD6F80490B9F15C
:100F1000000F3FD031680846019104F06CFD019943
:100F2000044609EB0100013804F065FD84424FF0EE
:100F300014021D4B08D002FB08F36FF015024BF8AA
:100F4000032003B0BDE8F08F14F1160F2C60F8D029
:100F50001978A142F5DD02FB08B0C7F89840C7F840
:100F60009840D7F89C4000F10801007B64F304002E
:100F70000871D7F8A0000C79400860F347140C7191
:100F8000D7F89C1021F01F016960D7F8A01021F05C
:100F90001F01296108F1010814350C36B3E700BFC1
:100FA0003408002000ED00E0240C0020F0B5534987
:100FB000534DD1F890302C68C3F307239C4287B07F
:100FC00000F299800020FFF781FF4E4BC1F8C0303E
:100FD000844216D14C4D01A82C70FFF7F5F900267C
:100FE00007464A4CB74213D100202B784349D1F829
:100FF0009020C2F30722934277DBFFF75BFF0020CC
:1010000046E0696801EB0011FFF78AFE0130DFE777
:101010000199300101EB0613DA682240B2F1807FBA
:1010200052D00AD8B2F5001F34D0B2F5800F3ED0AE
:10103000B2F5801F12D00136D4E7B2F1006F43D071
:10104000B2F1805FF7D15A689B680958013B22F0E2
:101050001F00034423F01F03012032E05A689B68FD
:101060000958013B22F01F0003440120844623F06D
:101070001F0340EA4C10CDE902218DF8100002A9AF
:1010800028780593FFF764FE00282ADA6FF0150030
:1010900007B0F0BD5A689B680958013B22F01F0059
:1010A00003444FF0020C012023F01F03E1E75A68CC
:1010B0009B680958013B22F01F000344062023F0DF
:1010C0001F034FF0000CD4E75A689B680958013B96
:1010D00022F01F0003444FF0030C012023F01F03F4
:1010E000C7E72B7801332B70A5E7C1F89830C1F81A
:1010F000A00001337BE74FF0FF30C9E700ED00E0CF
:10110000A89E000CAAFF4400240C00200000F0FF61
:1011100008B5024B1B689847002008BD480800200E
:10112000034B044A1860937843F0020393707047AE
:10113000480800206001002008B50649064821F053
:101140000701C1F1005202F5002204F037FB002034
:1011500008BD00BFA73200204C08002070B54169CF
:101160000446867A0A4D59B1437ADB0706D4242314
:1011700003FB0653DB691B689B6898470023636188
:101180002420214600FB0650BDE8704007F0DFBF79
:10119000900300202422024B02FB0030704700BF66
:1011A000900300202DE9F04385B00546684690463F
:1011B0001C46039108F0E4F9DDE90067EFF31189BB
:1011C000202383F31288BFF36F8F6B8A002B41D0EB
:1011D0002A8A9A4225D900220023284602F0FEFDE1
:1011E0000446F0B189F31188BFF36F8F039B002B86
:1011F00041D032463B46684608F0E7F92421A27AFE
:10120000254B204601FB0233DB6903A91B681D68DF
:10121000DDE90023A847606170BB2046FFF79EFF11
:1012200024E0698A4B1E6B8289F31188BFF36F8FAC
:101230002B7D2A8A2C6A1B3323F00303521A02FBEC
:101240000344154B154AEB1A9B105343A3722B7D95
:10125000E372CBE789F31188BFF36F8F23464246D1
:10126000284602F0BBFD04460028BFD100242046DA
:1012700005B0BDE8F0836361012300252381039B52
:1012800029466382E27A656004F1180008F044FAA6
:1012900063692582E360EAE790030020398EE33832
:1012A00070B524250C4C00B970BD037A4668002B3C
:1012B000FAD0013BDBB20372002BF5D1C36043606F
:1012C000837A05FB03439B6913B198473046EAE7ED
:1012D000FFF744FFFAE700BF900300202DE9F0413B
:1012E00090F82830044603F01F03012B0F4600F14D
:1012F00028062FD0022B18D08BB3204694F8291043
:1013000004F08FFC024678B3304604F074FD1D4DA6
:10131000002834D113693BB33A46314620469847FA
:101320000346FFF7D9FC2B5024E0818DC9B205F0AC
:1013300054F805460028E0D0304604F05CFD024633
:1013400068688368CAB99B6873B13A463146BDE89C
:10135000F0411847818DC9B205F026F8E9E790F809
:10136000291005F05DF8E4E7FFF7B6FC6FF08502A1
:10137000044B1A500020BDE8F081DB68E4E7D36835
:10138000C9E700BF0C0000002DE9F04F0B7E0446BA
:1013900033F080080D46164693B040F08E847AB143
:1013A0000846FFF77DFF6B7EDF0703D49E0711D54C
:1013B0002B7E7BB9204613B0BDE8F04F04F047BD4B
:1013C0004A7E00F12809900708D5802B0CD12846C9
:1013D000FFF766FF404613B0BDE8F08F910700F0BD
:1013E0002784002B40F02484D2072FD52B8A082B8A
:1013F00040F00684EA68294613680020A362536817
:10140000C9F8043004F027FB054610B1FFF748FF88
:10141000EFE0484604F0EFFCE28D70B9B2B1294626
:10142000A06906F0C2FA0146002800F02D8420468B
:1014300013B0BDE8F04F05F070B93AB1114620463F
:1014400005F066F90546002800F01E84FFF744FC0D
:10145000002394F82880B14F18F0600FC351C8F3EF
:10146000411307D0032B40F0BD81FFF735FC6FF02F
:10147000850337E0484604F0BEFC94F82930002884
:1014800040F04E81013B0A2BEFD801A252F823F025
:101490000716000C6B14000C9316000C6B14000C58
:1014A000BD14000C6B14000C6B14000C6B14000CBE
:1014B0002D15000C6B14000C8F15000C618D7F290D
:1014C000D3D8A38D002BD0D1E38D002BCDD118F034
:1014D0001F0FCAD194F83030022B05D1FFF7FCFB67
:1014E0004FF0FF333B5076E0A069036993F88030FA
:1014F0001B0707D5C9B204F0DDFC804628B1002DDA
:101500006CD167E7012384F8393094F83030012B2F
:101510000AD1638D43B984F83030FFF7DDFB3B58C7
:10152000002B00F0858056E00123F4E7204604F00C
:10153000D7FA628D0146FF2A97D8E38D002B94D10C
:1015400094F82830D80690D194F83030002BC5D0CC
:101550002AB12046D2B204F04DFE0028BED0618DE3
:1015600094F838308B42D8D02046C9B204F049FEF6
:1015700080460028C3D1628D0521002A14BF0223B2
:101580000123204684F8303005F051F9C5E708F012
:101590001F08B8F1010F7FF468AFE38D002B7FF4D3
:1015A00064AF628DFF2A3FF660AFA18DFF293FF641
:1015B0005CAF94F83030022B90D12046D2B2C9B241
:1015C00005F02AF810F1020F804640F01081FFF775
:1015D00083FB47F8008065B14FF000082846FFF70D
:1015E0005FFEB8F1000F7FF4F5AEFFF775FB3B58D7
:1015F000F3B1484604F0FFFB0346A069002B00F05E
:101600004F83802155E3E38D002B7FF42EAF94F8B8
:101610003030002B3FF462AF012BA18D02D10029A5
:101620007FF45CAF18F01F080CD0B8F1020F16D091
:10163000E38D002B40F0D782204604F0F2FB002817
:10164000D7D1B7E600297FF449AF638D012BEFD1E5
:1016500094F86C3061F3C30384F86C30E8E7B4F8B5
:101660002AA0BAF1000FE3D15FFA81F84146204683
:1016700005F0C3F80346FFF72FFB3B50013302D1BF
:101680004FF0FF383BE752464146204604F0B9FB95
:1016900043E7E38D002B7FF4E8AE628DA38D022A31
:1016A0005FFA83FA11D108F01F085AEA08087FF49C
:1016B000DCAE0122A069190A04F0DCFB00287FF4EB
:1016C000D4AE012384F8393027E794F8301000298C
:1016D0003FF404AF012902D1002B7FF4FFAE18F0D4
:1016E0001F0811D0B8F1020FA2D1002AA0D1514693
:1016F000204605F06EF80346FFF7EEFA3B50013343
:10170000BED001225146C0E7002B7FF4E7AE012A8C
:101710008ED194F86C3043F008039DE70C00000074
:101720000A2B3FF6A2AE01A252F823F05917000C83
:101730006B14000C6B14000C6B14000C6B14000C7D
:101740006B14000CD317000C6B14000C631B000C03
:101750006B14000C8D1B000CE38D022B7FF485AE07
:1017600094F83030002B3FF4B9AE012BA18D02D19B
:1017700000297FF4B3AE18F01F0811D0B8F1020FA2
:101780001CD04FF0000805F10C0A504604F02BFB6A
:10179000E38D984218D2FFF79FFA6FF00B03A1E692
:1017A00000297FF49BAE94F86C304FEA930808F060
:1017B0000208C3F3001348EA0308E4E72046C9B26D
:1017C00005F02AF88046DEE74146504604F066F907
:1017D000A3E6B4F82AA018F01F0F4FEA1A235FFA05
:1017E0008AFA09D029462046FFF778FD8046B8F1ED
:1017F000000F7FF484AE90E6013B0E2B3FF635AE32
:1018000001A252F823F000BF4518000C8518000C07
:101810002F19000C6B14000C6B14000C2719000C12
:101820002719000C6B14000C6B14000C6B14000CCB
:101830006B14000C6B14000C6B14000C6B14000C7C
:10184000711A000C05F10C08404604F0CCFA8346EE
:101850002046B4F82EA004F043F920B101287FF40B
:1018600004AE616F00E0216F002900F02A82DA45A2
:1018700028BFDA460A784046524528BF524604F04F
:10188000FCF84AE6204604F02BF90AF10102014671
:101890000190D2B2204604F087FC804600283FF435
:1018A000E4AD05F10C0AD0F804B0504604F09BFA00
:1018B0009BF800205946824228BF0246504604F059
:1018C000DCF8D8F80CB0BBF1000F09D1298AE38D00
:1018D00099427FF622AE5046C91A04F0E9F81CE698
:1018E000DBF8040083681B6B13B9DBF800B0EAE790
:1018F000019998470028F8D0A0F1040858F8041F6F
:101900000029F2D00A78002AEFD05046CDE9022112
:1019100004F069FA029A0399904238BF82B25046A5
:1019200004F0ABF8EAE7204604F0DAF89DE5524609
:101930000321204604F0B5F9824600283FF495AD16
:1019400004F04CFAB4F82EB09AF81530C8B99AF8E9
:1019500014808DF829308DF82880DAF8103005F1E0
:101960000C0A1B885046ADF82A3004F03CFAC345F7
:101970005A4628BF4246824228BF02460AA950461C
:101980007DE74FF00008DAF808208DF81530C04BDD
:101990008DF814801340BF4A934258D1102106A8F5
:1019A00001F0D4FB021EFFF660AD0AA9102A08461A
:1019B00028BF1022DFF8E0E20DF1180C424501F1DA
:1019C000020133D80346920002325FFA82F88DF8A2
:1019D000148005F10C0A5046029304F004FAD8452D
:1019E000424628BF5A46904228BF104602288346E6
:1019F000804628BF4FF0020B50465A46A8EB0B0812
:101A000005A904F03AF84FEA58030193029B9B465C
:101A100003EB5802934521D118F0010F3FF47DAD3F
:101A20005046019A995C04F031F876E51CF8013BC8
:101A300008F101084FEA131A03F00F031EF80AA079
:101A40001EF8033001F802AC01F8013CB6E79AF841
:101A50001480DAF810308DF81480BAE750461BF87D
:101A6000011BCDE9023204F019F8DDE90232D1E7B9
:101A7000204604F035F838B101282CD0FFF72CF9B6
:101A80006FF085033B5048E5236F002B00F0198170
:101A90005B88B3F5007FF1D9804B04F14C0B0A93BE
:101AA00000238DF82C30E36C9B4508BF0023BDF864
:101AB0002A10A3B15A7D0F2A08D11A7D0A44ADF825
:101AC0002A209DF82C2001328DF82C20226D934283
:101AD00003D01B68EBE7636FD7E7BDF82A1005F169
:101AE0000C0A5046019104F07EF9B4F82E80019959
:101AF000884528BF8846804528BF80464246052A3B
:101B000028BF052250460AA9019203F0B6FF019AA8
:101B1000B8EB02083FF401ADE36C5B453FF4FDAC6C
:101B2000002B3FF4FAAC5A7D0F2A14D11A7D1969A3
:101B3000424528BF42465046019303F09EFF019B59
:101B40001A7D424594BFA8EB0208A8EB0808B8F13B
:101B5000000F3FF4E2AC226D93423FF4DEAC1B6811
:101B6000DEE794F83030002B3FF4B8ACE38D012B66
:101B70007FF47BAC05F10C08404604F034F90028F2
:101B80003FF409AE94F8381040464CE708F01F08BF
:101B9000B8F1010F7FF4A2AC204604F019FB002835
:101BA0003FF49CACB4F82CA0BAF1FF0F3FF65DAC4B
:101BB00043681B795345FFF458AC5FFA8AF30F2B47
:101BC0003FF653ACE38D012B7FF44FAC05F10C08CD
:101BD000404604F008F900283FF4DDAD04EB0A03A9
:101BE00093F83A10D0E7484604F005F918B92846AA
:101BF000FFF756FB20E52946204604F08EFD08B18C
:101C0000284603E4A069036993F8801011F00401E9
:101C10007FF4D0AB05F0DDFE054600283FF4E9ACCB
:101C20000146204604F079FD00283FF4C3ABE7E706
:101C300052077FF5DEAC002B3FF4C9AB2846FFF717
:101C40002FFB94F83930002B3FF4C4AB94F82930C3
:101C5000052B05D1618DA069C9B204F02BF90646A8
:101C600094F82930032B09D1638D022B06D1A18D65
:101C70000022A069090A04F0FDF806460023B046D8
:101C800084F83930FFF7A6BB6FF00B06B1E400BF54
:101C900000FF0200000302006BA6000C050F050008
:101CA000E38D002B3FF4ADAC16F10C0118BF012100
:101CB000C90105F093FDFFF77DBB6FF00408FFF746
:101CC00089BB6FF015081AE40B7810B4062B14D1F9
:101CD0000369D3F89C20EFF31184202383F3128847
:101CE000BFF36F8F00204B681860506A58B9C2E983
:101CF000083384F31188BFF36F8F00220023034859
:101D000010BC07F07AB903605362F2E76803002061
:101D10002DE9FF4120264FF0FF334FF0FF325B48A3
:101D200001A901F035FF039B1B69D3F89C40236A8E
:101D300093B1EFF3118286F31288BFF36F8F216A9C
:101D400029B1606A0B688142236208BF636282F333
:101D50001188BFF36F8FC9B99DF80430062BDAD014
:101D6000072BD8D801A252F823F000BFBF1D000CEA
:101D7000B31D000CDF1D000CC51D000C031E000C64
:101D8000F91D000C171D000C871E000C0B7E204651
:101D90005D06D1F81E2009D1FFF7F6FA02460028A9
:101DA000C5D00721204604F042FDC0E704F00CFB3B
:101DB000F4E700220121204604F039FDABE70022C0
:101DC0001146F8E794F86C3001A943F0040320466B
:101DD00084F86C3004F093F800220321EBE794F8C8
:101DE0006C3001A923F00403204684F86C3004F021
:101DF00086F800220221DEE7204601A904F07FF8E0
:101E000089E794F86C30A76923F0040384F86C30F8
:101E1000D7F808803B69A033D3E8AF3F9A072FD5A6
:101E20003846D8F83C309847D8F824300021384656
:101E300098470546D8F8403038469847ADB9294606
:101E4000204604F0DEF9054678B9A06905F0E0FD0A
:101E5000831E5842584194F86C3084F8305023F077
:101E6000680343EA401384F86C30002204212046C2
:101E700004F0DDFC002D3FF44EAF2A4607219AE71F
:101E80004FF0FF35F1E70621029A94E7680300203E
:101E900030B589B0002200230024CDE906236FF07D
:101EA00007034FF48062CDE90334CDE90144154BBB
:101EB00015490094154802F06FFA1549134807F0C8
:101EC000DAF9144B14498B4207D30020134B144901
:101ED0008B420CD3002009B030BD03F11402D2E8CC
:101EE000EF0FC2E8E54F002DF9D11833EBE703F10E
:101EF0001402D2E8EF4FC2E8E50F002DF9D11833F4
:101F0000E6E700BF111D000C280C0020480400204B
:101F10008FA5000C30040020480400204804002055
:101F20004804002038B5024605460949806905F095
:101F3000CDFD044648B985F83800284604F036F847
:101F4000044610B1A86905F0F0FD204638BD00BF79
:101F5000C91C000C70B50546074C084EB44202D3AC
:101F60000024204670BD636828461968FEF762F8B1
:101F70000028F6D01834F1E730040020480400208F
:101F800070B50646EFF31181202383F31288BFF367
:101F90006F8F1B4D2A6881F31188BFF36F8F5268D2
:101FA00092F86C20D20705D4BDE870400A220023C5
:101FB00002F07EB9EFF3118283F31288BFF36F8FC3
:101FC0002C682CB1696823688C422B6008BF6B6059
:101FD00082F31188BFF36F8F44B1606804F1080188
:101FE000C36998472146074806F0B7FF2B6833B10D
:101FF0003046BDE870400022002302F025B970BDD4
:10200000580800203803002030B585B0CDE9001213
:10201000054600220023144803A901F025FD0246CD
:10202000E8B9DDE90001039B5D60083383E8030044
:10203000EFF31180202383F31288BFF36F8F039B8C
:102040001A600A4A516861B9C2E9003380F3118805
:10205000BFF36F8F00220023054802F0F5F805B0AA
:1020600030BD0B605360F1E73803002058080020B2
:102070000000002038B54B780469202B45682069A2
:1020800008D0222B19D0FEF727FE6FF08502104BE7
:102090001A5010E0CB88072BF5D1D3681A6842603C
:1020A0009A8802819B79837204F0E2FB2246082120
:1020B000284604F0CAFB002038BD4B880921C3F331
:1020C0004002838103F00103027643762246EFE764
:1020D0000C00000008B513464A78212A14D133B900
:1020E000FEF7FAFD6FF00B020A4B1A500AE0CA889D
:1020F0000169072A096928BF0722043103F10C008E
:1021000003F0BBFC002008BDFEF7E6FD6FF0850282
:10211000004BEAE70C00000073B5202504698DF838
:102120000710EFF3118685F31288BFF36F8F01223A
:10213000E06B0DF1070103F0F1FB86F31188BFF3AB
:102140006F8F01280CD007F090F888B101220C4B5A
:10215000D3E8EF1F002903D1C3E8E02F0028F7D10F
:102160000A22002304F1480002F06EF802B070BDAC
:10217000A37E002BEAD000210A2007F038F9D0E72F
:102180006008002038B5002405690E49EB6B05F1A5
:102190004800C3E90144DC606B6BC3E90144DC60C7
:1021A00007F057F805F17800074907F026F80749C6
:1021B00005F1240007F021F8284604F059FB2046D9
:1021C00038BD00BF4D6A000C8F6D000CE16C000C37
:1021D00070B5054601F0D0FA0446064E6B6823B18F
:1021E00001F0CAFA031BB34200D970BD022006F009
:1021F000F0FDF3E7BFD40100F8B514468768054643
:10220000FB6B0E4698472146002200230548FEF747
:10221000C9FF044600B1067628463B6C9847204625
:10222000F8BD00BF900300202DE9F84F8146884695
:1022300092469B460C460026174F564502D1002079
:10224000BDE8F88FA37CBBF1800F0CBF43F02003E7
:1022500043F04003A374AEB9D8F810506FF31005E3
:1022600045F4803545F04005C8F810504BEA0603A8
:1022700021462376484605F022F920340028DFD194
:102280000136DAE723693B4043F4602343F47F736C
:1022900043F003032361E9E70000F1FF70B506682E
:1022A00001F06AFA0446064DB37803F0FF0033B13B
:1022B00001F062FA031BAB42F6D96FF0730070BDF8
:1022C000BFD4010030B5036989B0D3F8A4500446E7
:1022D000083500220023CDE906236FF00703012211
:1022E000CDE9033200230090CDE901334FF40072B1
:1022F0002846054B054902F04FF82168284609B0E9
:10230000BDE8304006F0B7BF4B81000C281000201C
:1023100030B540B3B0F1205F4FEA906323D2013B68
:10232000DBB2082B1AD8114A114DD45C114AD15C8A
:10233000114AD25CEB5CC5B2A54214D8C0F30524A7
:102340008C4210D8C0F3055191420CD8C0F38530AF
:1023500098428CBF6FF01500002030BD3F23002451
:102360001A461946E7E76FF01500F6E7A3A6000C3A
:1023700088A6000C9AA6000C91A6000C2DE9F34744
:102380000C460025194943682143804616461F68BC
:10239000019506F01CFA022804D03560002002B036
:1023A000BDE8F0874FF0060AB4FBFAF95FFA89F549
:1023B0002946404601AA06F095FA0028EFD10AFB0B
:1023C0001944E4B2032C94BF4C375037AD003D4460
:1023D0002B6804F00304E400E34013F03F03DDD076
:1023E000019AB2FBF3F23260D8E700BF00FFFF0FA3
:1023F0002DE9F74F0D464FF0000B1C464368804611
:102400009F68924607EB81073549D0F81090294321
:102410003E6ACDF804B006F0DAF9022803D0C4F819
:1024200000B000203FE0396A01F00F01514550D063
:10243000BAF1060F02D18B1F052B4AD90B290AD8F6
:10244000DFE801F0061E273434373C3C3C3C3C3C82
:10245000D9F8003001933A6A012D4FEA124218BFB1
:10246000D2B2F30431D51D2A28BF1D220123013227
:1024700092B293409AB2019BB3FBF2F32360D0E790
:10248000AB1EDAB2092A24D809EB8309D9F8043043
:10249000E0E7012D20D00C220121404601ABFFF7DF
:1024A000A7FF0028D7D003B0BDE8F08F4FF400435A
:1024B000D0E7404601A900F015F8F2E7063940469A
:1024C00001AAC9B2FFF75AFFEBE7012A38BF012280
:1024D000D1E76FF08500E6E76FF05B00E3E700BF50
:1024E00000FFFF1B37B50C4641680A68136913F4F7
:1024F000807303D10020236003B030BD136BDB0772
:1025000001D4094BF6E78B68D56BD3F88010052210
:1025100001AB01F00F01FFF76BFF0028ECD1019B2D
:10252000ADB26B432360E7E7006CDC022DE9F84FA6
:10253000D0F804908246D9E9004B0F461546CEB23A
:10254000002A00F022810846FFF7E2FE80460028BC
:1025500040F01E81BB0E082B00F21A81DFE813F059
:10256000090013005A009F00BA00C000CA00FE0014
:102570000C0163692A7823F0800343EAC213636184
:102580004046BDE8F88FD9F80820A978D2F8803005
:1025900061F30303C2F880306B78A3B9E36A2A7849
:1025A00003F07F0343EAC213DBB2E36201F0E4F815
:1025B0000546794EA36F002BE2D001F0DDF8431BF6
:1025C000B342F7D9DCE7236B734F43F00102DBB270
:1025D00043F001032263236301F0CEF80646A36FA4
:1025E0002BB101F0C9F8831BBB42F8D9C8E7E26BF5
:1025F000AB886FF30F021343E36301F0BDF80646A7
:10260000654FA36F002BC9D001F0B6F8831BBB4206
:10261000F7D9B5E72F790B2F21DD04F1440252F8E9
:10262000263029880B2F61F3090342F8263004F184
:10263000480252F82630A97804F1400461F30503FA
:1026400042F8263054F8263023F4F06322DC0027C9
:10265000EA7843EAC2133B4344F8263090E7D9F8BE
:102660000830DFF834B103EB8609D9F884303B43F6
:1026700043F04003C9F8843001F07EF88246D9F86F
:1026800084305B06C9D401F077F8A0EB0A035B4500
:10269000F5D975E70B3F3F0207F4E067D8E706235B
:1026A000B6FBF3F203FB1263D9B203294FEA8202AD
:1026B00094BF4C34503414443F2203F00303216888
:1026C000DB009A4021EA02012A7802FA03F30B4365
:1026D000236055E72B7803F00303CBF810304FE766
:1026E000DBF81C302A7823F0800343EAC213CBF8CE
:1026F0001C3045E7D9F80810012E01EB86010A6A63
:10270000DAF8104022F4005222F00F024FEA02429F
:102710002B884FEA124201D0FF2B01D842EA034234
:10272000EB78A87803F00F0343EA403313430B62BE
:1027300001F022F80746DFF860A0D9F808305B689E
:102740002BB101F019F8C31B5345F6D918E7002E39
:102750007FF416AFEB7884F83A3011E7D9F80830F7
:10276000C7F3052703EB8703D3F88020297861F3AB
:102770000302C3F8802003E7D9F80C102B78CA684D
:1027800022F0FF021343CB60FAE66FF01508F7E67C
:102790006FF08508F4E600BFBFD401002DE9F843CF
:1027A000012743680669D3F800800C4608F140020F
:1027B00052F82130DFF8409043F0020342F8213014
:1027C00001F118039F4000F0D7FF0546D8F81030FC
:1027D00037EA030308D000F0CFFF431B4B45F5D980
:1027E0006FF07300BDE8F8830122F36AA24013433F
:1027F0000020F362F6E700BFFF0D27072DE9F84F31
:102800000546476808460C46FFF782FD0646002845
:1028100053D12146284605F0DAFF022800F0A180B6
:10282000A10E3A68BB68092947D8DFE801F00530F6
:10283000355246575D674672536943F00203536150
:10284000230E032B03F0FC0A70D9BAF1140F04D83D
:10285000454B23FA0AF3DA0768D4D7F814804FF00F
:102860000009BAF1140F64D17B68DB68DB0726D45A
:102870003E4B1B78002B63D100F07EFF834600F0B7
:102880007BFF3B4AA0EB0B039342F8D962E0D36A8B
:1028900043F00203D362D3E70F20E1B24B1C2A6955
:1028A00003EB43035B0000FA03F3108F034209D0EC
:1028B0002846FFF773FF0028C2D06FF08506304628
:1028C000BDE8F88F012303FA01F1136B0B43136387
:1028D000B6E72846E1B206F0DAF8ECE77A68D369A1
:1028E00043F00203D361ABE714F0FF02A8D003EB7F
:1028F00082031A6A42F480721A62A1E7C4F30522C5
:1029000003EB8203D3F8802042F04002C3F880201A
:1029100096E7FA68C4F3055302EB83020123D16BF7
:10292000C4F3853083400B43D36389E74FF4FA68DF
:1029300095E72146284605F04AFF022898D1BEE7D0
:10294000FEF7CAF90B4B1B58002B95D00A2000212B
:1029500006F04DFD09F10109C14582D36FF0730600
:10296000ADE76FF07706AAE710111000250C0020E4
:10297000BFD4010008000000F8B54368234A1D6871
:1029800004696B69487A1A400B7C00021B0600F44C
:10299000706003F040730343087AC001C0B2034380
:1029A0008878400100F020000343887A000100F09D
:1029B00010000343C878C00000F0080003434878C3
:1029C000800000F0040003430878400000F002009B
:1029D000034313436B614B6823600B785BB100F0DA
:1029E000CBFE06460A4F2B69DB0705D400F0C4FE78
:1029F000831BBB42F7D9F8BD636B43F48053636319
:102A0000238F43F001032387F5E700BF41F0FFFC6C
:102A1000FF0D27072DE9F84306690C46338F9D0605
:102A200007D496F83A30052B05D16378002B40F097
:102A30008780BDE8F88343681D689A68EB6A23F0D5
:102A40000203EB628B78012B1ED0EB6AE27803F075
:102A50007F0343EAC213DBB2EB626278EB6A520097
:102A600002F0020203F0FD031343EB6200F084FE68
:102A70000746DFF81081AB6F002B4FD000F07CFED3
:102A8000C31B4345F7D9D4E70978736BCB40D8070C
:102A9000CFD5D2F88030DFF8F09061F3030343F034
:102AA0004003C2F8803000F067FE0746DFF8D480AC
:102AB000D9F880305A064CD400F05EFEC31B434563
:102AC000F6D9B6E72B6B627903F0490343EAC213E8
:102AD000A279DBB2520102F020021343E279DFF85F
:102AE000A480120102F010021343227A920002F035
:102AF00004021343627A520002F00202134343F0CD
:102B000001032B6300F038FE0746AB6F002B9CD00F
:102B100000F032FEC31B4345F7D98AE76378002BE8
:102B200087D000F029FE0746DFF860802B69DB05BF
:102B30003FF57BAF00F020FEC31B4345F6D978E795
:102B4000736B43F400537363338F43F02003338775
:102B50006FE7EA6BA3896FF316021A43A37ADFF8D3
:102B600024801B0403F4FE031343EB6300F004FE14
:102B70000746AB6F002BA5D000F0FEFDC01B404503
:102B8000F7D956E7BFD4010000000144FF0D270725
:102B90002DE9F74FD0F810800E78D8F830500C4659
:102BA000F54015F001056AD191F807A0D8F8343046
:102BB00023FA0AF3DF0762D54368BAF10B0F1F68E7
:102BC000D3F8109041DD07F1440252F826306189B4
:102BD000BAF10B0F61F3090342F826303B46217B23
:102BE00053F8482F61F3050243F82620A07907F136
:102BF000400252F826104FEAC02021F47E5100F422
:102C000060503FDC6379DFF8C8A0DB01DBB203432F
:102C10000B431D4342F82650E2892E4BF96E03EA1E
:102C20000243228A6FF3DE11D20192B213430B43A7
:102C3000FB6600F0A1FD0546BB6F5A0631D500F0DA
:102C40009BFD431B5345F7D919E09B6803EB860BAB
:102C5000DBF884304AEA030343F04003CBF88430C6
:102C600000F08AFD0246DBF8843001925906AAD4AE
:102C700000F082FD019A1649831A8B42F3D903B002
:102C8000BDE8F08FAAF10B0A4FEA0A2A0AF4E065C0
:102C9000B8E70122D8F83030B2401343C8F83030DA
:102CA000EDE72379002BEAD0D9F81C300A4D43F424
:102CB0008033C9F81C3000F05FFD0446D9F80C30B1
:102CC000DB05E6D400F058FD031BAB42F6D9D6E78E
:102CD000BFD401000000FF7FFF0D2707F8B505698D
:102CE0002B8FDA063DD443680A7C5C68CB7B5200AC
:102CF0009B0002F0020203F0040313438A7B606925
:102D000002F0010220F00700134303436361E3690B
:102D100017480A7B18404B7A12029B0402F4706237
:102D200003F4701313430A7AD201D2B213434A78E0
:102D3000920002F0040213430A78520002F00202E9
:102D400013430343E3610B785BB100F015FD0646C6
:102D5000084FE368DB0705D400F00EFD831BBB4280
:102D6000F7D9F8BD2B8F43F010032B87F9E700BF8D
:102D700079F0C3FFFF0D27072DE9F84305690E78A9
:102D80006B6B0C46F340DA074BD491F807C02B8FDE
:102D900023FA0CF3DB0744D54768012EB968638A30
:102DA00001EB86010A6A22F4745222F00F024FEA04
:102DB00002424FEA124201D0FF2B01D842EA0342FD
:102DC0006379003B18BF012342EA4332237C0BB1F5
:102DD00042F48052637D207ADB02800200F480603E
:102DE00003F400630343207D0CF00F0C400243EA20
:102DF0000C0300F4007003432079DFF85C900002BC
:102E000000F48070034313430B6200F0B5FC80466E
:102E1000BB685B683BB100F0AFFCA0EB08034B451F
:102E2000F6D9BDE8F883B31E092B0FD8E26805EB8D
:102E300083035A6001226B6BB2401343012E6B6314
:102E400002BF2B8F43F002032B87EAE7002EF1D15C
:102E5000E37985F83A30EDE7BFD401002DE9F04F72
:102E60008D4BDFF838E287B0CDE900E30125302350
:102E70004FF460686946CDE90283466804460769F5
:102E8000049540F20119FFF777FD4FF40043CDE9B7
:102E9000009340F20713DFF808A26946CDE902A3C8
:102EA000002320460493FFF719FFB368DFF8F4818D
:102EB0001D7000F061FC0546B368D3F804A0BAF1B8
:102EC000000F09D000F058FC431B4345F4D96FF0C4
:102ED000730007B0BDE8F08F05230326DFF8C8B103
:102EE00087F83A30012506274FF002091422002105
:102EF00001A806F011FC694620468DF80770CDF850
:102F000000B0ADF812508DF80450FFF735FF1422D1
:102F1000002101A806F000FC644B6946204600939E
:102F20008DF80770ADF812908DF80450FFF724FF6C
:102F30001422002101A806F0EFFB5D4B69460093C7
:102F4000072320468DF80730ADF812508DF8045055
:102F5000FFF712FF1422002101A806F0DDFB554BFC
:102F600069460093082320468DF80730ADF81250CB
:102F70008DF80450FFF700FF1422002101A806F08D
:102F8000CBFB4D4B694620460093ADF812508DF8AF
:102F90000450FFF7F1FE4FF00133484A6946CDE98E
:102FA0000023204603F17F430293ADF80C50FFF756
:102FB00031FD4349434B4FF00308CDE900134FF077
:102FC000967369462046CDE90238CDF810A0FFF788
:102FD000DFFD40F601233C486946CDE90003204669
:102FE00005F088FD41F60113384F69462046CDE9CA
:102FF000007305F07FFD40F601434FF40067DFF8F2
:10300000D0C069462046CDE900C305F073FD314BC1
:1030100069462046CDE9003705F06CFD2E4B694628
:103020002046CDE9003705F065FD2C4B694620466A
:10303000CDE9003705F05EFD013E7FF453AF6368D4
:1030400032465B68204626491D612B4605F082FD0D
:103050002B464A462046234905F07CFD2B46424636
:103060002046214905F076FD2B46042220461F49C3
:1030700005F070FD2A4620461D4905F080FD2A46D0
:1030800020461C4905F07BFD20462A461A4905F0DA
:1030900076FD30461DE700BF001BB70001000001B0
:1030A00000000101BFD4010000FFFF1B01FFFF1B57
:1030B00002FFFF1B03FFFF1B04FFFF1B01010001B9
:1030C00000C0FF0B0100010C00FFFF0F01FFFF0F0D
:1030D00002FFFF0F03FFFF0F04FFFF0F05FFFF0FAE
:1030E00030E7FF1F37EEFF1F35ECFF1F10D2FF1F29
:1030F0003E7F34240E3F05240B7F042408B5074887
:1031000005F08DFE38B10648FEF70AF80448FDF7D1
:1031100023F9002008BD6FF01200FBE79498000C23
:103120002531000C0A2838B50446074D04D1AB6898
:103130000D2128465B689847AB6803485B68E1B29D
:103140009847204638BD00BF9498000C10291FB541
:1031500028BF10210C460C4BD3F8E02112BA009284
:10316000D3F8E42112BA0192D3F8E82112BA0292FC
:10317000D3F8EC310A461BBA6946039306F0BFFA4E
:10318000204604B010BD00BF0070000A2DE9F043D6
:1031900000250127DFF8E0E000F1020CEBB29942D4
:1031A00002D80020BDE8F08330F825403CF82560C7
:1031B000C4F3422804F00F03B8F1010F5EF8233086
:1031C000C4F304122AD15BB303EB52084FEA14395B
:1031D00098F8304012F0010F15BF04F00F0404F00E
:1031E000F00444EA091449EA040488F8304003EB87
:1031F000020898F8404044F0010488F8404016F076
:10320000010F07FA02F803EB02040BD116F0020FCC
:103210000ED194F8409009F0FB090DE0002BEED19F
:103220000135BBE7D3F8109048EA0909C3F81090BC
:1032300094F8409049F0040984F8409094F8409044
:1032400016F0080F14BF49F0020909F0FD0984F8CF
:1032500040901C6816F0100F14BF48EA040424EADA
:1032600008041C60DC6E07FA02F236064CBF2243EB
:1032700024EA0202DA66D3E7C49F000C70B5054663
:1032800000F07AFA0446074EEB69DB0604D000F042
:1032900073FA031BB34200D970BD022005F099FDFB
:1032A000F2E700BFBFD40100F7B50D4647680669D5
:1032B000BC682368204623F002032360FFF7DEFF8B
:1032C000EB79002B64D1F3712979022960D820466B
:1032D00005F061FD2B7933716B79012B52D1636855
:1032E00023F0400363602046FFF7C8FF6B797371DA
:1032F000AB79042B4CD82B4A2046D35C626822F071
:1033000007026260626813436360FFF7B7FFAB793F
:10331000B3710023F86901938368DB6813B1796A9C
:1033200001AA9847019A2868002A34D05308010B53
:103330000005C01841F100010023FCF761FE4FF6C3
:10334000FF72431E61F10001934271F1000125D229
:103350002368404280B223F460432360A0812B683D
:10336000204633607B7B012B02BF236843F0800340
:103370002360236843F002032360FFF77FFF0020F0
:1033800003B0F0BD032B03D1636843F04003A9E70A
:103390006FF08500F4E76FF01500F1E76FF02100A2
:1033A000EEE700BFACA6000C2DE9F74346680746E0
:1033B000D0F81080F069B468836896F80C901B68A8
:1033C000716A2BB96FF05705284603B0BDE8F0834A
:1033D0009847054610B110F1780FF5D1D6E90701ED
:1033E00083681B68002BEDD09847054610B110F19B
:1033F000780FE9D1BF232375002388F8073033798C
:10340000042B02D96FF08505DEE7544A2046D35CD1
:10341000626822F007026260626813436360FFF72C
:103420002DFF3379204688F80630717905F0B3FC1A
:10343000737988F80430B379012B7ED1636823F067
:10344000400363602046FFF719FFB37988F8053021
:10345000B16832690B68120523F44C1302F4401270
:103460001A4373691B0403F4403313430B6023684E
:1034700043F000532360236823F01C03B9F1000FCD
:1034800062D023602368002143F080432360B06A48
:1034900001AA05F087FB051E96DB019B0022197926
:1034A0001868FFF773FE054600288DD16368204633
:1034B00043F400336360FFF7E1FE6368204643F4A2
:1034C00080336360FFF7DAFEF069716A8368DB6856
:1034D0000BB101AA9847019A3068002A37D05308E7
:1034E000010B0005C01841F100010023FCF788FD25
:1034F0004FF6FF72431E61F10001934271F100012A
:1035000028D22268404283B222F460422260A38122
:1035100033683846C8F80030B3699847737B204653
:10352000012B02BF236843F080032360236843F02C
:1035300002032360FFF7A2FE46E7032B7FF462AF8E
:10354000636843F040037CE743F0040399E76FF0BE
:10355000150539E76FF0210536E700BFACA6000C72
:103560004FF0E0230D4A9969126818699B69002998
:1035700008BF1146002B08BF134610F4803F0848CF
:1035800001D1994205D20168114401604FF0E02158
:10359000096900681044C01A704700BFEC0B002096
:1035A000E80B00202022094B002083F8232042F65C
:1035B000E062074B1A60074B42F6DF6218604FF07B
:1035C000E0235A61072298611A61704700ED00E01C
:1035D000EC0B0020E80B0020684620F007018D4628
:1035E00019B5FFF7BDFF1449144B0868D3E9004231
:1035F000001942F10002C3E9000200230B6042F609
:10360000E0630F4AD2E90041001BB0FBF3F04343F3
:103610001B1941F10001C2E90031EFF311812023B0
:1036200083F31288BFF36F8F01F022FBFDF7E6FAF8
:10363000BDE8194085467047E80B0020C80500200A
:10364000C00500202DE9F041374E89B1421C0AD156
:103650004FF0E022136923F0010313614FF07F4321
:103660003360BDE8F0813568012806DC00240AE0FB
:10367000431C3568F8D140F2755040F276539842B9
:10368000A8BF1846441EEFF31187202383F3128846
:10369000BFF36F8FFFF764FF4FF0E0232349D3F8A8
:1036A00018C0D1E9002380184FF0000243F1000355
:1036B000C1E900031E4B1A601E4B1A68831A2DD4F1
:1036C00042F6E06E42F6DF6814FB0E841C44B4FB45
:1036D000FEF4131A0EFB0433B3F5806F38BF4FF4BA
:1036E0008063154A934228BF13464FF0E0223360AF
:1036F000013B946953610023A4459361ACEB040042
:10370000D1E900320DD20544EB1842F10002C1E9C3
:10371000003287F31188BFF36F8FA2E74FF4806305
:10372000E3E7C318F1E700BFEC0B0020C805002059
:10373000E80B0020C005002060CCFF0038B5EFF397
:103740001185202383F31288BFF36F8F084B1C6809
:10375000084B1B68E41AFFF703FF85F31188BFF3DA
:103760006F8F42F6E0632044B0FBF3F038BD00BF3A
:10377000C8050020C005002038B5EFF311852023CF
:1037800083F31288BFF36F8F044B1C68FFF7E8FECA
:1037900085F31188BFF36F8F204438BDC805002022
:1037A00038B5EFF31185202383F31288BFF36F8FB1
:1037B000064B9C6805F046FB85F31188BFF36F8FBD
:1037C0002046BDE83840FDF729BA00BFF00B0020C5
:1037D00038B50A4B53F82040013053F82050A54229
:1037E00000D838BD606830B1037EDB0701D405F036
:1037F000FEFA0834F3E723689847FAE710A0000CB4
:10380000012270B5294B86B003201A70FFF7E0FF44
:1038100001F0F6FA0420FFF7DBFF254C254D264684
:10382000AE4204F130040FD301F0A8F8204CAC42B2
:1038300026D301F0B7F8FCF765FD1F4A938923F002
:103840000103938106B070BD54F80C3C059354F805
:10385000103C049354F8143C039354F8183C02931E
:1038600054F81C3C019354F8203C009354E90A237B
:1038700054E90C0100F022FD54F8303C5E65CEE7BF
:10388000D4E90A23B3F1FF3F08BFB2F1FF3F05D0EF
:1038900052EA0301206803D100F05AFD3034C6E734
:1038A0000649183001F054F9F8E700BF250C002054
:1038B000D89D000CD89D000C580600207D93000C6C
:1038C000882370B5134E012203FB0066002386B0E7
:1038D000CDE904230F220193CDE9023214234FF4E2
:1038E000A0720D4D0D4903FB0055044602FB00116B
:1038F0000B4B3046009500F0E1FC337C2C7423F038
:1039000004033374074B013403EBC423EE606B6094
:1039100006B070BDD0050020F00B0020281A002052
:10392000CB8F000C281200207FB50020FFF750FF3E
:103930002B4B83F308880025E0232A4C84F822309F
:10394000E57725766576A57684F82050E576636A76
:1039500043F4E0236362636A43F400236362A56374
:10396000E3689BB243F0BF6343F40833E360FDF7C1
:1039700063F8FDF73DF94FF0FF33A362E362FDF713
:1039800015FBFDF7AFF9184800F0D6FC0120FFF752
:103990001FFF0220154CFFF71BFF00F0E7FF144B41
:1039A0004FF480625C61134B134905930123204659
:1039B000CDE90353CDE90155104B009500F07EFC95
:1039C0000646237C204623F00403237405F0AFFC55
:1039D0002846FFF775FF31462046084AFDF7ECF808
:1039E000281A002000ED00E0E00600205806002024
:1039F000F00B0020ECA5000C681B00200138000C27
:103A000038B5064C064DAC4201D3002038BD2046E7
:103A1000D4E9011205F05BFA1434F4E754030020F2
:103A20006803002030B5054B85B0DDE908450293F9
:103A3000CDE9004505F009FA05B030BDB956000CD6
:103A400038B5074C074DAC4201D3002038BD2046A5
:103A500005F061FA08B91C34F5E76FF01500F5E7D9
:103A6000380300205403002073B50C46EFF3118196
:103A7000202585F31288BFF36F8FC5685DB125607F
:103A80002B68C360836901338361002081F311884F
:103A9000BFF36F8F11E052EA030603D16FF00B0002
:103AA0002560F3E7CDE900230246083000F068FE08
:103AB00018B9034B9B685B69236002B070BD00BFFF
:103AC000F00B0020F7B50D4604469DF82010EFF3EB
:103AD0001187202080F31288BFF36F8F266AE06879
:103AE000864240D22668B4421AD0CEB1304605F0A4
:103AF00077FA06F1180005F00AFD2946002554F86A
:103B0000082F706905F0FBFD3046C6F8805005F0BF
:103B10000EFC2046394605F041FC284603B0F0BDB6
:103B2000A268A9B12946E06905F0E9FDE369A26848
:103B300013446269E361934201D12369E361002088
:103B4000236A0133236287F31188BFF36F8FE5E7A0
:103B5000A06923692946984208BF6069801AA0615C
:103B600005F0CDFDEBE752EA03010BD0074904F164
:103B7000080089684D61CDE900233946224600F0EE
:103B8000FFFDCBE76FF02200DDE700BFF00B002068
:103B9000F7B504460846EFF31186202181F3128819
:103BA000BFF36F8F216A00293BD0A268A16905F09D
:103BB000A6FDA369A268256813446269A3619342C4
:103BC00004BF2369A361236AAC4203F1FF3323627C
:103BD00036D02846002D34D0002705F001FA05F133
:103BE000180005F094FC6969A268E06905F087FD9A
:103BF000E369A268284613446269E361934204BF03
:103C00002369E361236A01332362C5F8807005F0FC
:103C10008EFB04F10800314605F0C0FB384603B0C6
:103C2000F0BD52EA030111D00A4989684861CDE923
:103C300000233146224604F1080000F0A1FDEEE722
:103C4000002086F31188BFF36F8FE8E76FF0220042
:103C5000F7E700BFF00B00202DE9F34104461746BB
:103C60001E46EFF31188202383F31288BFF36F8F72
:103C7000304BC2689B6872B18068984217D057EA8F
:103C8000060216D188F31188BFF36F8F6FF00F0013
:103C900002B0BDE8F08193F90E1001322161C4E950
:103CA000023288F31188BFF36F8F0020F0E721699B
:103CB000F3E793F90E1090F90E30994230DA9942F9
:103CC000A8BF194605F0A0F9054622464146CDE9B0
:103CD0000076194800F054FD0028E6D0EFF3118675
:103CE000202383F31288BFF36F8FA068D0B12368BD
:103CF00021699C420AD04BB193F90E309942A8BF7A
:103D000019466FF07F039942B8BF194605F07CF958
:103D100040B13146084805F041FB6FF00A00B7E7B3
:103D20000025D2E7002DF4D186F31188BFF36F8F01
:103D3000F3E700BFF00B0020260C0020F8B58368E5
:103D40000546002B40D0234A926893423FD1C36876
:103D5000012B03D9013BC3600020F8BDEFF31187AD
:103D6000202383F31288BFF36F8F0169806805F009
:103D70004BF92C68A54207D10023C5E9023387F32C
:103D80001188BFF36F8FE7E7002CF5D0D4E900323C
:103D9000002613605A60237CC4E9006623F0020306
:103DA0002374A66004F1180005F0B1FBAC6094F92F
:103DB0000E3020462B61C4F8806005F0B8FA394611
:103DC000054805F0EBFAC7E76FF01500C5E74FF0BF
:103DD000FF30C2E7F00B0020260C002037B511465B
:103DE000EFF31185202282F31288BFF36F8F0468EE
:103DF0009CB12368426823F003039442036008BF28
:103E000043600121204605F083F9044685F31188BB
:103E1000BFF36F8F204603B030BD51EA0302F5D0E7
:103E200000F10802CDE900131046294600F0A8FC75
:103E30000028EFD1014B9B685C69EBE7F00B002099
:103E400070B5EFF31186202383F31288BFF36F8FD1
:103E50000468A0421BD0D4B1D4E90032002513601D
:103E60005A60237CC4E9005523F002032374A56043
:103E700004F1180005F04BFB2046C4F8805005F013
:103E800056FA3146BDE87040064805F087BAD0E9D9
:103E900002329A4218BF0133836086F31188BFF360
:103EA0006F8F70BD260C002013B5EFF31181202415
:103EB00084F31288BFF36F8F846844B1013C84603F
:103EC00081F31188BFF36F8F002002B010BD52EA5A
:103ED000030406D181F31188BFF36F8F6FF00F00D9
:103EE000F3E7CDE900230246014800F049FCECE786
:103EF000260C002070B50546EFF31186202383F3CE
:103F00001288BFF36F8F00232C68A54219D0C4B16B
:103F1000D4E9003213605A600023227CC4E90033E4
:103F200022F002022274A36004F1180005F0EFFAF7
:103F30006FF00A032046C4F8803005F0F8F9012339
:103F4000E2E70022AA6023B986F31188BFF36F8FDE
:103F500070BD3146BDE87040014805F01FBA00BF92
:103F6000260C00202DE9FF4104462027534EEFF395
:103F7000118887F31288BFF36F8FD4F88C50F5B98E
:103F8000022104F1A40005F0F0F8002870D004F13B
:103F90009C0500220121284605F076FA0028F8D178
:103FA00000234FF0FF3202934FF0FF334146CDE93B
:103FB0000023434804F1940200F00AFDD7E7D4F847
:103FC00090202B689542C4F88C3008BFC4F890301C
:103FD000D4F8A43043F00203C4F8A430EB6823F013
:103FE000040343F00103EB606B6888F31188BFF3AF
:103FF0006F8F28469847EFF3118887F31288BFF335
:104000006F8FEB68D80623F001023ED4EA60EB68BC
:104010009A0717D5306823F00203EB6090B10021B6
:10402000036878B1426895423DD10368002934D1D4
:1040300072683360904200D17360002340F8083BFF
:10404000FFF7FEFED4F8A43023F00203C4F8A43036
:10405000DB0530D4D4F88C30003B18BF012388F343
:104060001188BFF36F8F002B81D005F026F97EE712
:10407000D4F8A430D90693D5C4F8A40088F31188E5
:10408000BFF36F8F04B0BDE8F08123F01103EB6044
:1040900005F11000FFF7D4FEB9E70B607368984292
:1040A00008BF7160C9E701461BB11A68184613467C
:1040B000B7E71A46FAE70023D1E700BF100C00204B
:1040C000260C0020F8B5C36804469A070E46C3F3D1
:1040D000400542D45F0742D40B680BB983680B607C
:1040E000E368D80742BFA36802253360376858BF2A
:1040F000012557B31B4B9A68D7F888309A421ED1D6
:1041000005F0B3F880F00100C0B2D7F8A430D907A9
:10411000C3F380021CD5F2B1F8B100232360D7F8B5
:10412000903073B9C7E92344384605F038F8E3689E
:1041300043F00403E3603368A3602846F8BD002021
:10414000E3E71C60C7F89040EEE76FF0150506E066
:104150006FF0120503E01B07DFD56FF00F0500239A
:104160003360EAE7F00B00200146014805F061B832
:1041700088070020F0B50446002089B00E9DC4E9F0
:10418000230004F19400C4E9250004F19C00C4E973
:10419000270055B32879002840F2011008BF0120FC
:1041A000C4F8A40000204FF0FF364FF0FF37CDE9F0
:1041B0000330CDE90100CDE9066720460C4B0094A1
:1041C00000F0EAF855B1296811B1204605F053F81E
:1041D0006B791BB1A38943F00103A381204600F052
:1041E000B7F8C4F8884009B0F0BD0120D8E700BF97
:1041F000653F000C37B501900846EFF3118420218C
:1042000081F31288BFF36F8FC16811F01E0F16D1B2
:1042100053EA020508D101A9FFF754FF84F311887E
:10422000BFF36F8F03B030BD41F00801C160019949
:1042300010308161034900F08BFC0120EEE7002083
:10424000ECE700BFAD91000C01460148FFF7D2BF7B
:1042500088070020F7B50C4616461D460190EFF37F
:104260001187202383F31288BFF36F8F084604F071
:1042700087FF55EA060309D1204601A9FFF722FF6F
:1042800087F31188BFF36F8F03B0F0BDE368324648
:1042900043F00803E360019B0449A36204F11000AA
:1042A0002B4600F055FC0120EAE700BFAD91000C61
:1042B00001460148FFF7CEBF880700202DE9F043F3
:1042C000984685B000F15803C0E91633109B0026CC
:1042D00083810423073222F0070503740F9B01EB4F
:1042E00005090F4683734946C0E906668660C673B2
:1042F0000446FCF711F90E9B073020F007002067F9
:10430000C4E91A7502930D9BA9EB000901930C9B5C
:104310004A460093394643462046FCF731FC054B9C
:1043200066659B6803B15B6F4846636705B0BDE88F
:10433000F08300BFF00B002001230374838100236E
:10434000C0E91A334367014B98607047F00B0020B7
:1043500038B50446EFF31185202383F31288BFF3A9
:104360006F8F037C5B070FD5183005F0D0F8237CE6
:10437000204623F00403237404F0E8FF2946BDE837
:104380003840044805F00AB885F31188BFF36F8FF1
:1043900038BD00BF260C0020F0B5002587B005957C
:1043A000109DDDE9127604950F9D044603950E9D40
:1043B00002950D9D01950C9D0095FFF77FFFB6F1CD
:1043C000FF3F08BFB7F1FF3F05D056EA070305D10D
:1043D0002046FFF7BDFF204607B0F0BD3A46334602
:1043E00004F11800014900F0B3FBF4E77D93000CE1
:1043F0006FF00A01094A9368C3F880100849D8672A
:104400004B6843F080534B60002383F31188BFF364
:104410006F8F9368D3F88000704700BFF00B0020C7
:1044200000ED00E038B590F910200146002A037C29
:1044300004DA03F07F03037404F041FF0D4D2A46B4
:1044400052F8184FAB68944200D004B9EC688B4224
:1044500007D01A7CD20604D1DA897F2A01D9A26951
:104460002AB1A34202D0204600F0F4FA23466B6141
:1044700038BD00BFF00B002070B590F91020037C10
:10448000002A2FDBD9062DD11A4C63F07F03224678
:10449000037452F8183FE169934207D1C0E9002143
:1044A0000860E0610FE09942F8D01B68002BF5D05E
:1044B00093F90E6090F90E50AE42F4DD5968C0E9F0
:1044C000003108605860A569954200D005B9E568DB
:1044D000A3681A7CD20606D1DA897F2A03D9AA6991
:1044E0000AB9636170BDAB4202D0284600F0B2FA4F
:1044F0006561F7E7F00B0020034648B9EFF305824A
:1045000032B9064A51699268914201D0FFF770BFF3
:1045100083F31188BFF36F8F704700BFF00B00204B
:1045200038B5184CA168E0690B68814214BF1A467F
:10453000002249680B605960A368E1692AB9124AF0
:10454000C3E900210B60E3610AE092F90E5093F990
:104550000E00854212DD5168C3E900210B605360F3
:10456000A569094B9D4200D005B9E568A3689D4245
:1045700002D0284600F06EFA656138BD8A42DED06E
:104580001268DBE7F00B0020080C0020002A2DE960
:10459000F0470CBF4FF010094FF00809027C0446A9
:1045A00019EA020F0E460F4628D149EA0203D20942
:1045B00046D10374B9F1080F48D04FF00008DFF876
:1045C000F0A0534653F8185F9D4200D00DB9DAF8B9
:1045D0000C50DAF80830AB4202D0284600F03AFA24
:1045E000B9F1100FCAF8145008D0204601F0ECF9C8
:1045F000B8F1000F02D02F48FFF79EFE2C4B9B68AE
:10460000A3424FD1EFF30583002B4BD1A289D207F0
:1046100011D586F31188BFF36F8F83F31188BFF331
:104620006F8F0423184602DFEFF31187202383F3F3
:104630001288BFF36F8F3846BDE8F047FFF7D8BE4A
:1046400003F07F03037404F03AFEB3E7A36813B1E9
:10465000204604F03CFE04F1180004F058FFA56D5C
:1046600004F15808A84511D04FF0000A75B128464A
:1046700004F02DFE05F1180004F049FF2846C5F8A6
:1046800080A0FFF7F9FEA56DA845EFD1084B9B6808
:104690009C4292D1EFF30588B8F1000818BF4FF0A3
:1046A00001088CE786F31188BFF36F8FBDE8F087B0
:1046B000F00B0020E006002070B50F4D06462B469B
:1046C00053F8184F9C4200D004B9EC68AB681A7CD0
:1046D000D20604D1DA897F2A01D9A2692AB1A3427C
:1046E00002D0204600F0B6F923466B613046BDE8A3
:1046F0007040FFF701BF00BFF00B002070B5EFF373
:104700001186202383F31288BFF36F8F1A4CA168A0
:10471000E0690B68814214BF1A46002249680B60A9
:104720005960A368E1692AB9144AC3E900210B6002
:10473000E3610AE092F90E5093F90E00854216DD0E
:104740005168C3E900210B605360A5690B4B9D4282
:1047500000D005B9E568A3689D4202D0284600F064
:1047600079F965613046BDE87040FFF741BE8A4285
:10477000DAD01268D7E700BFF00B0020080C002049
:10478000F8B5124B0C46DDE9067611469868104ADA
:104790001060EFF31182202282F31288BFF36F8F33
:1047A0009D68284604F09DFDB6F1FF3F08BFB7F1B4
:1047B000FF3F06D03A463346064905F1180000F09F
:1047C000C7F92046BDE8F840FFF712BEF00B002005
:1047D000180C00207D93000CF8B50446EFF3118708
:1047E000202383F31288BFF36F8F037C49B203F059
:1047F0001F02002A0CBF0126002635D103F07F03DB
:104800002A4D037404F05BFD2A46037C817363F038
:104810007F03037452F8183FE869934207D1C4E953
:1048200000200460EC610DE09842F8D01B68002B7A
:10483000F5D093F90EC08C45F6DD5968C4E9003116
:104840000C605C60AC69944200D004B9EC68AB6861
:104850009C4202D0204600F0FDF86C6187F311887D
:10486000BFF36F8F3046F8BD9B071CD5856804F0F9
:1048700026FD81732B689D4209D16B68C4E9005302
:104880001C606C60EAE76A689A42F6D01B68002BED
:10489000F3D093F90E208A42F5DD5A68C4E900325C
:1048A00014605C60DAE78173D8E700BFF00B00208A
:1048B000034648B9EFF3058232B9064A5169926856
:1048C000914201D0FFF794BD83F31188BFF36F8F3E
:1048D000704700BFF00B0020F8B550EA0103064610
:1048E0000C4603D104F0E9FC0020F8BDEFF311877A
:1048F000202383F31288BFF36F8F184D184BA868DD
:10490000186004F025FDA868324623461549183082
:1049100000F01EF9AB6804461A7CDF6742F004021F
:104920001A746FF00A02C3F880200F4A536843F0EC
:1049300080535360002383F31188BFF36F8FAA68FD
:10494000D2E90A12B2F1004F08BF9942CCD104F06B
:1049500013FE201A20EAE070C7E700BFF00B00202A
:10496000180C00207D93000C00ED00E0024B03F1D9
:104970001802C3E906227047F00B0020EFF3118103
:10498000202383F31288BFF36F8F054B9A68D37B84
:10499000013BD37381F31188BFF36F8F704700BF62
:1049A000F00B0020EFF31180202383F31288BFF374
:1049B0006F8F034B9A68D37B0133D373FFF77CBEB1
:1049C000F00B0020014B9868704700BFF00B0020EF
:1049D000D3B5DDE90667089CCDE90067FFF7D0FE97
:1049E0001CB1034B9B685B69236002B0D0BD00BF64
:1049F000F00B0020027C034612F01F0210D10A497E
:104A000088420DD00949086868B1D9897F2909D839
:104A100093F90E20064B1B689A42B8BF00207047DE
:104A20000020704710467047D0050020C0020020CB
:104A30001C0C00200122044BC01A044BC010584328
:104A4000034B1A54704700BF68070020ABAAAAAAFC
:104A5000260C002070B50C4B0C4D1E7CFFF7CAFFD6
:104A6000182303FB06550446284604F050FD002297
:104A7000074B9A553CB1621E2846BDE87040054977
:104A8000D31700F065B870BDF00B00206807002058
:104A9000260C0020354A000C38B5EFF31185202391
:104AA00083F31288BFF36F8F0F4B104A9C68106816
:104AB000A04206D1FFF7CEFF85F31188BFF36F8FB9
:104AC00038BD00211B7C1160094AD35C002BF3D058
:104AD0002046FFF78FFF0028EED0237CDB0601D1B4
:104AE000FFF71EFD2046E5E7F00B0020180C002024
:104AF000260C0020024B1868984208BF002070471F
:104B0000C4020020034B1B680BB9FEF717BE002040
:104B1000704700BF200C002030B570B10B4B5B68B4
:104B200098420AD0036843B1D3E90421D0E904458F
:104B3000121941EB0501C3E90421D0E900321360E9
:104B40005A600023C0E9003330BD00BFC40200201A
:104B5000B3F1FF3F08BFB2F1FF3F2DE9F84F044624
:104B6000994615461F467AD08160EFF311882023BD
:104B700083F31288BFF36F8FB9F1000FDFF8E4A061
:104B800020DBFFF7BFFFDAE90027013549F1000913
:104B90002D1849EBE07306464FF00109C4E90453B0
:104BA000AD1843EB0707FFF7A5FF0346DFF8B8E0B2
:104BB000DEF804A0EBB9C4E900EACAF80040CEF878
:104BC000044028E06FF00103DAE900125B1A4FF0AD
:104BD000FF3161EB02025B1B62EB0902012B72F1F8
:104BE0000001BCBF012300224FF00009C0E90432DC
:104BF000D9E7D3E9041CD4E904208A4270EB0C0BFA
:104C000024DA891A5A686CEB0000C3E90410C4E97D
:104C1000003214605C60FFF76DFF84420ED1134BCD
:104C20001B685BB9B9F1000F02D1FFF76BFF0646B5
:104C3000304604F055FC0021FEF704FD88F311888E
:104C4000BFF36F8F28463946BDE8F88F521A60EBE4
:104C50000C005345C4E90420ADD01B68AAE7002529
:104C60002F46EFE780070020C4020020200C002020
:104C70002DE9F047DFF8A8900246C9F800000D467C
:104C8000FFF738FF00260027DFF898804FEAE27E22
:104C9000D8E9001350B1D0E9044CA2427EEB0C0AD3
:104CA0001ADAA41A6CEB0E06C0E904460024521866
:104CB00043EB0E032046C8E90023C9F8004004F086
:104CC0000FFC2146FEF7BEFC85F31188BFF36F8F02
:104CD000BDE8F047FFF7E0BE611843EBE473C0E9BD
:104CE0000467C8E90013FFF717FF01224FF00043E4
:104CF000C0E9042385F31188BFF36F8F8368984759
:104D0000EFF31185202383F31288BFF36F8FD9F857
:104D10000020121BC9F80020FFF7ECFEB6E700BF29
:104D2000200C00208007002010B5EFF31184202311
:104D300083F31288BFF36F8FFFF7E4FE0346054A43
:104D4000D2E90001181841EBE37184F31188BFF335
:104D50006F8F10BD8007002073B50446EFF31186F6
:104D6000202383F31288BFF36F8F8368594003EACF
:104D700002050A4053400022009309496B46019204
:104D800004F04EFBDDE9003223EA020304F10C00DB
:104D90003146A36004F002FB284602B070BD00BF9C
:104DA0009396000CF8B507460C46164604F05DFADB
:104DB00008B10020F8BD0D4B9B685D6F002DF8D049
:104DC000221DF6D2EFF31184202383F31288BFF360
:104DD0006F8F284647F00401B04784F31188BFF372
:104DE0006F8F0028E5D040F8045BE3E7F00B00206C
:104DF0000146024A0020FFF7D5BF00BFB356000CA2
:104E0000014800F02FBD00BFF1A5000C07B5074B0E
:104E10004FF48062009306494FF0FF330548FFF7D7
:104E2000A9F9002003B05DF804FB00BF28A0000C26
:104E3000681F0020880700202DE9F04F43688BB0E1
:104E400080469246009383789C0740F1F9800025C4
:104E50000878002800F0F68025280AD04B1C019322
:104E600001354146009B98470028C0F2E380019934
:104E7000EEE74E788B1C252E0193F1D000270A22F5
:104E8000B9463C461F2C22D8A6F12003102B20D86F
:104E9000DFE803F0141F1F1A1F1F1F0B1F1F1F1215
:104EA0001F171F1F090044F00104019B13F8016B39
:104EB0000193002EE6D13AE044F0020444F00404E9
:104EC000F3E744F00804F0E744F01004EDE77F2C2A
:104ED00024D8A6F13003092B08D860064EBF02FB88
:104EE000073744F0200402FB0939DEE72A2E0DD1F2
:104EF00061065AF8043B53D4002BA7BF44F02004AA
:104F00009946C3F1000944F02804CEE72E2E05D1BE
:104F1000630600F1978044F04004C6E76C2E2ED063
:104F200028D8682E32D06A2E37D04C2E35D0002F9C
:104F300046F02003B8BF24F04004A3F16502BCBFD3
:104F40000027A4B2022A01D9612B2BD10AF1070A4A
:104F500007279D4E2AF0070A0AF1080A210760D5A3
:104F600006EB070B34465C455DD1AE1BA9EB070988
:104F7000A21959E1742E98D07A2E96D0D7E726063A
:104F800048BF44F4007444F080048EE7E00548BF55
:104F900044F4007444F4807487E744F4207484E794
:104FA0001F4682E7A6F16302122A00F2D880DFE8EA
:104FB00012F013004D00D600D600D600D6004D00EA
:104FC000D600D600D600D600D600E800D100D60024
:104FD000D6001A00D600A0005AF8043B012704AE00
:104FE0008DF81030BAE75AF8046B784B002E08BFE2
:104FF0001E4614F0400F304614BF39464FF0FF31C3
:1050000004F092FB0746A9E741462020009B984701
:1050100000280FDB013CA742F6D34D44A1462D1BCF
:105020009EE74C46F7E7414614F8010B009B984772
:10503000002898DA98F8023043F0040388F8023028
:105040004FF0FF3528460BB0BDE8F08F220630D573
:10505000A3052AD50AF1070A2AF007039A465968D8
:105060005AF8080B24F0100B00291FFA8BFB2FDADB
:1050700040424BF4806B61EB410104AC0A232246B1
:1050800004F05EFB1BF0400FA0EB040200F08E80EA
:105090002BF001049742A4B240F38F80002E40F021
:1050A0008E802BF01104A4B21DE05AF8040BC11736
:1050B000D8E7E0055AF8041B01D40846F7E7A20533
:1050C00047BF48B241F3C01108B241F3C031C9E74C
:1050D00050EA0103D1D16306CFD5002FCDD124F002
:1050E00011043A46A4B23B4640F206410C4262D15A
:1050F00024E024F010040A23A4B214F0800243D068
:1051000014F4007117BF0AF1070A5AF8040B2AF0C9
:10511000070292461CBF51685AF8080B50EA010278
:105120003ED124F0160B62061FFA8BFB3CD5002FF4
:105130003AD124F017043A463B46A4B221075AD488
:10514000E10705D5994572DDA9EB03039F184B468E
:105150009B464AE044F0100410237826CDE7782BD4
:1051600004D1C6F1780343F01003C6E74146252079
:10517000009B98470028FFF65DAF02354146304658
:1051800070E608230026B8E714F480715AF8040B7F
:10519000C4D014F400711ABFC0B2114680B2BDE78A
:1051A00024F006041FFA84FB04AC68E713465C464F
:1051B000E10699D52EB90133C0E71346F8E73B461F
:1051C000F6E70233BAE700BF2FA6000C28A6000CB2
:1051D000CDE9023241462020009B98470028FFF687
:1051E00029AF0BF1010BDDE90232D945F0DCEB1AF6
:1051F00003EB0B055B46E10627D541463020CDE9A0
:105200000232009B98470028FFF614AFDDE9023216
:105210007EB901352F44791B8A4229DB144604AE3E
:1052200094BB2A44A9EB03091546914440E0174674
:105230008EE7023541463046CDE90232009B984761
:105240000028DDE90232E5DAF4E640F206410C42DC
:10525000E0D014F0020F05F10105414614BF2B20E8
:10526000202014F4806FCDE9023218BF2D20E5E72D
:10527000CDE902324146009B302001359847002895
:10528000DDE90232C7DAD5E6013C4146CDE902321A
:10529000305D009B98470028DDE90232C0DAC9E69C
:1052A00041462020009B013598470028FFF6C2AEFA
:1052B000A9EB0503002BF3DCD9E500BF7047836839
:1052C00000EBC101B3F5004F2CBF51F8220031F8BB
:1052D0001200704700EBC1018068B0F5004F2CBF91
:1052E00041F8223021F812307047012208B5FFF74B
:1052F000E6FFD04008BD836800EBC101B3F5004F65
:1053000008D34B681AB143F001034B60704723F098
:105310000103FAE74B881AB143F001034B80704751
:1053200023F00103FAE753000122FFF7D3BF08B5CA
:105330008368B3F5004F06D3FFF7D7FF01288CBF72
:105340000020012008BD0020FCE78368B3F5004F72
:1053500034BF04230823C91A081AC0087047836899
:10536000B3F5004F28BF0139B1FA81F0C0F11F0039
:1053700070472DE9F041174603220E460446FFF719
:105380009EFF8642054607F104080AD10122E36820
:10539000BA4023EA0203E360002344F82830BDE862
:1053A000F081314602222046FFF789FF06462B4650
:1053B00001460322204644F82850FFF78BFF33466E
:1053C00029462046BDE8F0410222FFF783BF38B5E9
:1053D00004460D46FFF7ABFF70B929462046FFF79C
:1053E00084FF01462046FFF7BAFF294602462046C1
:1053F000BDE83840FFF7BDBF38BD2DE9F047054691
:105400008946FFF7ACFF05EB800ADAF81070064614
:1054100077B94FF0FF34EB680136B4401C4015D02B
:1054200094FAA4F2B2FA82F2131D55F8234009E06F
:105430003C464FF0030821462846FFF756FF4845F3
:1054400007D3324621462846FFF793FF2046BDE8A2
:10545000F087214603222846FFF731FFB8F1010803
:105460000446CAF81000D4D08742E4D1D1E72DE930
:10547000F04114460E460546FFF737FFA4EB060839
:10548000371B0744424631462846FFF74CFF3A4651
:1054900021462846FFF747FF43460022214628467B
:1054A000FFF718FF21462846FFF71FFF3B4621184C
:1054B00000222846BDE8F041FFF70CBF2DE9F0417E
:1054C000164604460F46FFF710FF314605462046B4
:1054D000FFF70BFF05442A4639462046FFF723FF16
:1054E00031462046FFF701FF2B46311800222046A7
:1054F000BDE8F041FFF7EEBE2DE9F04104460D4650
:10550000FFF715FFB8BB29462046FFF7EEFE014620
:105510002046FFF724FF04EB80010E6996B90122B3
:10552000E36882401343E36002220D612B46294663
:105530002046FFF7CFFE032229462046BDE8F04172
:10554000FFF7C8BE022231462046FFF7B8FE0746E5
:10555000034629462046FFF7BDFE0322334629466F
:105560002046FFF7B7FE39462B462046FFF7B2FE2E
:1055700002223146E1E7BDE8F08170B500295CD038
:10558000056801222846FFF7E0FE0146044628464A
:10559000FFF795FE104006D180F31188BFF36F8F9F
:1055A0000423184602DF21462846FFF79EFE2618F0
:1055B000314600222846FFF782FE361AB44206D052
:1055C00082F31188BFF36F8F0423184602DF002295
:1055D00021462846FFF78FFE2146FFF786FE261854
:1055E000012231462846FFF76AFEC20708D4314639
:1055F0002846FFF7ECFE324621462846FFF75EFFBD
:10560000002221462846FFF75AFE261A012231467B
:105610002846FFF754FEC30709D431462846FFF752
:10562000D6FE224631462846FFF748FF344621463B
:105630002846BDE87040FFF75FBF70BD70B50568D4
:1056400009B9002070BDAB6801F00704B3F5004F45
:1056500034BF0422082207341444E40804EBD104C4
:105660009C4228BF1C4628462146FFF7C6FE064638
:105670000028E6D001462846FFF737FEA04209D9A8
:105680003444314628462246FFF7F1FE214628469B
:10569000FFF732FF284601223146FFF72CFEAB68A8
:1056A000B3F5004F34BF0423082303EBC6031844AB
:1056B000C8E71146FFF7C2BF2DE9F8434B42066821
:1056C00003EA010731EA03031446B2680ED0B2F5CB
:1056D000004F2CBF08230423BB4228BF3B46B946DA
:1056E000CF1B94B900252846BDE8F883B2F5004FDA
:1056F00034BF04230823994204D82146BDE8F84367
:10570000FFF79CBF4FF00009EBE7B2F5004F34BF45
:1057100004250825FB1AE10804F0070001EBD3017A
:10572000073003F0070303442B4401EBD3019142FC
:1057300028BF11463046FFF760FE80460028D1D0D2
:10574000B36809EBC005B3F5004F34BF0423082349
:105750001D4435447B1E1D44B5FBF7F57D43A5EB89
:10576000090529463046FFF7F0FD2C44073424F0A4
:105770000704A41B804507464FEAE40408D202460A
:1057800041463046FFF773FE41463046FFF7B4FE10
:1057900039463046FFF7A9FD3844844208D23946DD
:1057A00030462246FFF763FE21463046FFF7A4FE4F
:1057B000012239463046FFF79EFD94E7B2F5802F6F
:1057C00034BF042308232DE9F0410026D21A8C1897
:1057D000CD1D25F0070524F00704641BE4080560CF
:1057E00021462846AC60EE60FFF7B9FD820002F169
:1057F0001B07FF083146043205F1100003F08CFF4F
:105800003A4631462846FFF78EFD3346324631464A
:105810002846FFF75FFDA4EB070828463146012222
:10582000FFF769FD42463946FFF77DFD3B463246AC
:1058300039462846FFF74EFD21462846FFF773FDFF
:105840004346324621462846FFF744FD2146284676
:105850000122FFF750FD3946BDE8F041FFF74CBE8D
:10586000002070470FB407B504A951F8040B01914B
:10587000FAF778FD03B05DF804EB04B0704770B53B
:1058800006460C888888241A3069A4B2844285B2FE
:1058900024BF641BA4B22D1BA8B2984228BF18468F
:1058A0003368234413600B8803440B8070BD70B4CD
:1058B000838985880669ED1AADB2731B934228BFB0
:1058C000134670BC0A46011DFFF7D9BF70B40E46DF
:1058D0000146C58831F80A3FEC1AA3B2934228BFAB
:1058E0001346324670BCFFF7CABF10B54B880C8810
:1058F000E41AA4B294420ED31A4492B28B884A801E
:105900000A800069D21A92B2824201D2002010BDF0
:1059100003448B80FAE76FF01500F8E72DE9F341B7
:1059200006460F4615464FF000082A46304601A9A4
:10593000FFF7BDFF044640B102463946019803F027
:10594000DEFE2D1BA0442744EFD142463046311DD8
:10595000FFF7CBFF404602B0BDE8F0812DE9F341EF
:1059600007460E4615464FF000082A46384601A95C
:10597000FFF7ACFF044648B12EB10246019930460C
:1059800003F0BDFE26442D1BA044EED1424638460E
:1059900007F10A01FFF7A9FF404602B0BDE8F08118
:1059A000704703F0B9BE03F0AABE01460068FAF7DB
:1059B0007FBD08B5FAF7ACFDBDE80840FBF71EB99E
:1059C00000210120FAF774BD6FF08500704761B6C1
:1059D00062B680F31188BFF36F8F704772B60023F1
:1059E00083F31188BFF36F8FBFF34F8F30BF62B661
:1059F000BFF36F8F704740E800F313F4803FD8B2D5
:105A000008BF6FF01500704730B50C684B6885B063
:105A10000A894D890094013B24F01F04234402F0BD
:105A20001F0242EA451223F01F0369468DF8082041
:105A30000393FBF78DF905B030BD08B5FBF768FBA4
:105A4000002008BD002303824369C3607047027AC7
