:020000040800F2
:1000000020260020910A000C5B64000C7D0A000C85
:100010007D0A000C7D0A000C7D0A000C7D0A000C94
:10002000000000000000000000000000C50A000CF5
:100030007D0A000C00000000750C000C4540000C0F
:10004000E10C000CE10C000CE10C000CE10C000CCC
:10005000E10C000CE10C000CE10C000CE10C000CBC
:10006000E10C000CE10C000CE10C000CE10C000CAC
:10007000E10C000CE10C000CE10C000CE10C000C9C
:020000040C00EE
:1000000053B94AB9002908BF00281CBF4FF0FF317F
:100010004FF0FF3000F00CB8ADF1080C6DE904CEE4
:1000200000F012F8DDF804E0DDE9022304B07047C7
:10003000704700BF10F8012B11F8013B012A28BFBF
:100040009A42F7D0D01A70472DE9F0478C468E4679
:10005000089E154604461946002B40F0D080724594
:1000600047D9B2FA82F74FB1C7F120030EFA07FC65
:10007000BD40BC4020FA03F343EA0C0C4FEA154E96
:10008000A8B2230CBCFBFEF80EFB18CC08FB00F951
:1000900043EA0C43994528D9EB1808F1FF3204D202
:1000A000994502D9A8F102022B44A3EB0903A4B29B
:1000B000B3FBFEFC0EFB1C330CFB00F044EA0344D4
:1000C000A04214D92C190CF1FF3304D2A04202D95A
:1000D000ACF102032C44241A43EA02401EB1FC4056
:1000E000002334607360BDE8F0874246DDE7634675
:1000F000F1E7002A79D0B2FA82F3002B3FD01946FB
:10010000C1F1200302FA01F500FA01F42EFA03F21C
:100110000EFA01FE20FA03F3AFB243EA0E034FEAF0
:10012000154EB2FBFEFC0EFB1C201A0C0CFB07F854
:1001300042EA004290455AD9AA180CF1FF3004D285
:10014000904502D9ACF102002A44A2EB08029BB20E
:10015000B2FBFEFC0EFB1C220CFB07F743EA02433A
:100160009F4246D9EB180CF1FF3204D29F4202D9CC
:10017000ACF102022B44DB1B42EA004202E0AEEB90
:10018000020301224FEA154EAFB2200CB3FBFEFC76
:100190000EFB1C330CFB07F840EA034398452AD9B1
:1001A000EB180CF1FF3004D2984502D9ACF10200F3
:1001B0002B44A3EB0803A4B2B3FBFEFC0EFB1C33E1
:1001C0000CFB07F744EA0344A74216D92C190CF19B
:1001D000FF3304D2A74202D9ACF102032C44E41B42
:1001E00043EA00400F46114678E71F2188E7604642
:1001F000ABE76246BFE76046DBE76346EFE7734580
:1002000006D916B9002108466DE7C6E9000EF9E7E0
:10021000B3FA83F787B9734501D3824207D8841AAA
:100220006EEB030301209C461EB900215BE73846B4
:10023000FAE7C6E9004CF8E7C7F1200CBB4000FA2A
:1002400007F422FA0CF520FA0CF1BA401D432EFAFD
:100250000CF30EFA07FE4FEA154941EA0E011FFAA8
:1002600085FEB3FBF9F809FB18300B0C08FB0EFAFE
:1002700043EA00439A4540D9EB1808F1FF3004D215
:100280009A4502D9A8F102002B44A3EB0A0389B2D4
:10029000B3FBF9F809FB183308FB0EFE41EA0341F2
:1002A0008E452CD9691808F1FF3304D28E4502D946
:1002B000A8F10203294443EA0040A1EB0E01A0FB90
:1002C00002984145CE46434602D306D14C4504D25E
:1002D0000138B9EB020E68EB0503002EA5D0B4EB94
:1002E0000E0261EB030101FA0CFC22FA07F3F9405C
:1002F0004CEA0303C6E9003197E74046C5E74346A9
:10030000D9E70000002313B50D4C0193019B4BB1BD
:100310000C490D4805F0FAFF002142F210700AF076
:1003200093F8F5E7A3681B6D1BB10421204601AAD1
:10033000984700214FF47A700AF086F8E6E700BF8C
:1003400010A9000CBAB0000CBEB0000C014B1B6829
:10035000184700BFD0000020014B1860704700BF55
:10036000D000002030B5044685B00D461022002193
:1003700068460AF00FFA02238DF80230044B2A4631
:1003800021466846019305F0ABFA05B030BD00BFC9
:100390004D03000C80B505460E461746984605F0FD
:1003A00065F8034600F0AEFC0446DFF818904246BC
:1003B00049F8003039463046A84754F8090000F0A3
:1003C00043FC00BF08000000014B036000207047A1
:1003D00018AF000C0E4A0F4B13B5012818BF1A4670
:1003E000044601460C4806F0D8FC70B901232246A9
:1003F0000A49094806F0CCFD38B90123EF220093E1
:1004000021460223044806F0D0F802B010BD00BF18
:10041000D4000020E800002060040020CFB0000CD1
:1004200008B51549154806F0B6F920BB144913481C
:1004300006F0B1F9F8B91349104806F0ACF9D0B993
:1004400011490E4806F0A7F9A8B90C4806F0A6F81D
:1004500001280CD00020FFF7BDFF60B9074806F067
:10046000CDF840B9BDE80840044806F0F7B8FFF7FA
:10047000B1FF0028EED008BD740100206004002008
:100480005C010020440100202C01002008B5034835
:10049000034A0021121A05F0D8FF08BD10050020FC
:1004A000E0100020074808B5074A0849121A05F06D
:1004B000CEFFBDE808400648064A0749121A05F073
:1004C000C6BF00BF000000200C05002060B7000C74
:1004D000000000200000002060B7000C38B5054681
:1004E0000C4699B1D1E901230F48096805F00EFFC8
:1004F000D4E90423E1680D4805F008FFE1690C48E0
:1005000005F004FFA1690B4805F000FF012D05D19E
:10051000EFF305810848103905F0F8FE214628461A
:10052000BDE8384003F072BEE8B0000C18B1000C12
:1005300048B1000C58B1000C87B1000C30BFFFF778
:10054000FDBF00BF2DE9F04105460B4EDFF82C80C2
:10055000324606EB0807CC1B204609490AF00DF984
:10056000A01942460021083C0AF014F9AC6707F1D3
:100570000800BDE8F08100BF000000000800000096
:1005800018AF000C10B52A4C2A4805F0BFFED4F86D
:10059000E810D4F8E430580602D5274805F0B6FE36
:1005A000D4F8E430D9070BD5244805F0AFFE262057
:1005B0001F4AD2F8E43043F0FF03C2F8E43010BD24
:1005C000D4F8E4309A0704D51D4805F09FFE272093
:1005D000EEE7D4F8E4305B0704D51A4805F096FE40
:1005E0002820E5E7D4F8E430180704D5164805F0CC
:1005F0008DFE2920DCE7D4F8E430D90604D5134871
:1006000005F084FE2A20D3E7D4F8E4309A0604D516
:100610000F4805F07BFE2B20CAE7D4F8E4301B0618
:1006200004D50C4805F072FE2C20C1E72520BFE759
:1006300000ED00E09BB1000CB5B1000CC6B1000CA0
:10064000DDB1000CFCB1000C18B2000C36B2000C8D
:100650004CB2000C67B2000C10B5204C204805F0DD
:1006600055FEA36A990137D51E4805F04FFE1E209E
:10067000A36ADA0103D51C4805F048FE1F20174C79
:10068000A36ADB0203D5194805F040FE2020A36AC7
:100690001C0303D5164805F039FE21200F4CA36A30
:1006A000590303D5134805F031FE2220A36A9A03AB
:1006B00003D5114805F02AFE2320084CA36ADB036A
:1006C00003D50E4805F022FE2420A36A6FEA0343F7
:1006D0006FEA1343A36210BD1D20C9E700ED00E0DF
:1006E0007BB2000C94B2000CA8B2000CC3B2000C98
:1006F000EEB2000C0DB3000C33B3000C4EB3000C83
:1007000070B5244C064624480D4605F0FFFDA36A4B
:10071000D90435D5214805F0F9FD1720A36A1A053B
:1007200003D51F4805F0F2FD18201A4CA36A9B055B
:100730000FD51C4805F0EAFDA16BA36A180407D584
:10074000194805F0E3FD1EB1A36A23F40043A36238
:100750001920104CA36A590503D5144805F0D6FD9D
:100760001A20A36ADA050DD5114805F0CFFD1B202C
:10077000084A936A43F47F43936200232B7070BD51
:100780001620CBE7A36A9B04F2D50A4805F0BEFD0C
:100790001C20EDE700ED00E07AB3000C91B3000CF3
:1007A000A3B3000CB7B3000CD1B3000CE7B3000C3B
:1007B00003B4000C1CB4000C70B5264C0646264849
:1007C0000D4605F0A3FDA36AD80640D5234805F0E1
:1007D0009DFD1120A36A190703D5214805F096FD58
:1007E00012201C4CA36A9A070FD51E4805F08EFDF7
:1007F000616BA36A1B0607D51B4805F087FD1EB178
:10080000A36A23F08003A3621320124CA36ADE07BD
:1008100003D5164805F07AFD1420A36A9C0603D57B
:10082000134805F073FD15200A4B9A6AD10658BF8C
:100830009A6A9A6A920642BF5A6A22F400525A622F
:100840009A6A42F0FF029A6200232B7070BD10205A
:10085000C0E700BF00ED00E04CB4000C63B4000C36
:10086000A3B3000C97B4000CB0B4000CC7B4000CD8
:100870001CB4000C2DE9F0416E4B04465F688AB051
:100880000023C7F3080683F31188BFF36F8F02F0CC
:100890007F40B0F17F4F34D112F0010532D012F019
:1008A000400502F0080804D0B8F1000F26D1012558
:1008B00012E0500748BF0C465F4B216858BF012526
:1008C0000B44012B98BF216C5C4805F01FFDB8F16B
:1008D000000F10D0EFF389844FF00008F31E8DF85D
:1008E0000780092B00F29680DFE803F00E8A8E7FE6
:1008F000869494949492EFF38884EDE70C461D4619
:10090000EAE71D462C46E7E74D484A4E05F0FEFC57
:100910008DF80780F36A9A0704D54A4805F0F6FC7B
:1009200000232AE0F36A002B01DA4748F6E7F36A6E
:100930005B00F5D5454805F0E9FC7369A26943F40D
:1009400080737361BFF34F8FBFF36F8F32F8023C38
:10095000726922F480727261BFF34F8FBFF36F8FA1
:1009600003F47F42B2F55F4F27D1DBB2022B24D1D3
:100970002168374805F0CAFC23689DF80720CAB9EA
:1009800002AE04F12007324620686168083403C2D1
:10099000BC421646F7D1099A002D47D0C2F3080190
:1009A00021B96FEA52226FEA42220992184602A93F
:1009B000FFF794FD0AB0BDE8F0811E4B9A6AD2B2EF
:1009C0002AB101200DF10701FFF7F6FE16E09A6A41
:1009D00012F47F4F05D001200DF10701FFF790FEC3
:1009E0000CE09A6AB2F5803F02D3FFF735FE05E0CE
:1009F000D3F8E430002B93D0FFF7C4FD0346BCE7E7
:100A000000200DF10701DFE700200DF10701E5E708
:100A1000104883E7104B17F4F87F1049104808BFBF
:100A20001946A6F1100205F071FC79E76FF3080290
:100A3000BBE700BF00ED00E0A6ED050115B5000C19
:100A400035B5000C4DB5000C6FB5000C7EB5000C33
:100A50009EB5000CBBB5000CE7B4000CFCB4000C58
:100A6000E0B5000C044B5A6942F010025A615A6911
:100A700022F008025A61704700ED00E0EFF30880B1
:100A8000EFF3098101B57246FFF7F4FE01BD00BF27
:100A90000A4880F30888202080F3118808484FF422
:100AA0000061401880F30988EFF3148002210843A5
:100AB00080F31488BFF36F8F00F05CF820260020CD
:100AC000E01800201EF0040F0CBFEFF30880EFF3D6
:100AD0000980816911F8021C0229FFD001B5724614
:100AE00005F0B7FC01BD00BF00B2002807DB012301
:100AF0004109034A00F01F00834042F8213070474B
:100B000000E100E000B200280CDB012206494309A5
:100B100000F01F008240203341F82320BFF34F8FA5
:100B2000BFF36F8F704700BF00E100E000B2002804
:100B300001F10101ACBF00F16040064B4FEA4111E9
:100B4000C9B2ABBF00F5614000F00F0080F80013A0
:100B50001954704714ED00E0044B054A23F07F035D
:100B60009360BFF34F8FBFF36F8F70470000000893
:100B700000ED00E008B5FFF7EFFF0B4AD2F8883030
:100B800023F47003C2F88830EFF3148323F00403D6
:100B900083F31488BFF36F8FFFF778FCFFF782FCB5
:100BA00000F092F803F0F6FB00ED00E042F8203C84
:100BB000009B0B4942F81C3C019B21F0010142F8CB
:100BC000183C029B42F8081C42F8143C4FF080731A
:100BD00042F8043C0023203A0265C367704700BF17
:100BE0009503000C00B50B4B15469860826F0A4BBD
:100BF0000E461A602C4686F309880020034B98475E
:100C00002046002100220023014C20477764000C7D
:100C10009503000CA8100020E80900201022014BC9
:100C20001A61704700ED00E0054B5A699B689A42D3
:100C30001FBF044A536843F080535360704700BF9E
:100C4000A810002000ED00E0084B9B6883420BD108
:100C5000EFF3058343B1064B5A6842F080525A6065
:100C60005A6A22F400425A6209F035BBA8100020EB
:100C700000ED00E011498A684FF030001044EFF3B6
:100C8000098C80E8F01F202080F31288BFF36F8F5B
:100C90000B4F4FF000664A698A603E60906F094CC6
:100CA0002060D06F0023D36780F3118802F13000F9
:100CB00090E8F01F8CF3098870470000A81000200E
:100CC00004ED00E0E8090020002320210348C218B9
:100CD00001339E2B82F80013F9D1704700E100E048
:100CE00008B5EFF30583064A103B02EBC30152F847
:100CF000330049688847BDE80840FFF795BF00BF4B
:100D000064A9000C0148006870470000E809002051
:100D10001FB50121094B0A4A0A4800F0F7F80023E1
:100D2000064A0393084B0121019301A8D31A0293A9
:100D300000F0F6F805B05DF804FB00BF00000820E5
:100D40000000002018AF000C100500200A7A0B6884
:100D500010B562F304031C46CB68520923F01F034D
:100D600043EA4203044A43F00103C2F89800C2F880
:100D70009C40C2F8A03010BD00ED00E010B5074B5C
:100D8000D3F89030C3F30723013B984202D8FFF712
:100D9000DDFF10BD6FF01500FBE700BF00ED00E0C8
:100DA0002DE9F04F0F46144606464FF000084B4D14
:100DB00085B0B84580F28E80D6F80490B9F1000F66
:100DC00035D0B9F11F0F40F2838019F01F0F7FD18A
:100DD000D6F800A01AF01F0F7AD1504605F05FFB3D
:100DE000834609EB0A00013805F059FB83456FD1B2
:100DF0001BF1160F6CD05C456ADDC5F898B0D5F8CC
:100E00009C10C5F898B0D5F8A03021F01F0143F030
:100E10001F0AD6E900321A44994202F1FF391BD168
:100E2000CA4508D131465FFA8BF005F041FB08F165
:100E300001080C36BDE73146C5F898B0D5F89C30AE
:100E4000E0B263F30402C5F89C2005F031FB10F119
:100E5000160F3DD0441CEAE7C5F898B0D5F8A0209D
:100E6000013B23F01F0302F01F021343CA45314622
:100E7000E0B2C5F8A030E8D005F01AFB10F1160F6B
:100E800026D0C5F898B0D5F89C209DF808300AF116
:100E9000FF3A62F304038DF80830D5F8A0309DF8CE
:100EA00008205B0863F347128DF80820D6E900326A
:100EB0001344009323F01F035344A3EB09030130B1
:100EC00023F01F036946C0B20393FFF757FFBEE745
:100ED0006FF01504204605B0BDE8F08F00ED00E08E
:100EE0000522044BC3F89420BFF34F8FBFF36F8FDD
:100EF000704700BF00ED00E0BFF35F8F0022024BA0
:100F0000C3F89420704700BF00ED00E010B5034C1B
:100F10002278FFF745FF207010BD00BFDC100020D5
:100F20002DE9F74F294D8A4606464FF00008AB469B
:100F3000274FD0451BDAD6F80490B9F1000F3FD007
:100F400031680846019105F0AAFA0199044609EBB7
:100F50000100013805F0A3FA84424FF014021D4B42
:100F600008D002FB08F36FF015024BF8032003B022
:100F7000BDE8F08F14F1160F2C60F8D01978A1425B
:100F8000F5DD02FB08B0C7F89840C7F89840D7F8DD
:100F90009C4000F10801007B64F304000871D7F85D
:100FA000A0000C79400860F347140C71D7F89C102E
:100FB00021F01F016960D7F8A01021F01F012961FD
:100FC00008F1010814350C36B3E700BFEC09002026
:100FD00000ED00E0DC100020F0B55349534DD1F88E
:100FE00090302C68C3F307239C4287B000F29980AD
:100FF0000020FFF781FF4E4BC1F8C030844216D16C
:101000004C4D01A82C70FFF7DFF9002607464A4C2B
:10101000B74213D100202B784349D1F89020C2F376
:101020000722934277DBFFF75BFF002046E0696809
:1010300001EB0011FFF78AFE0130DFE70199300173
:1010400001EB0613DA682240B2F1807F52D00AD851
:10105000B2F5001F34D0B2F5800F3ED0B2F5801F3C
:1010600012D00136D4E7B2F1006F43D0B2F1805F05
:10107000F7D15A689B680958013B22F01F000344CE
:1010800023F01F03012032E05A689B680958013B96
:1010900022F01F0003440120844623F01F0340EA8E
:1010A0004C10CDE902218DF8100002A92878059393
:1010B000FFF764FE00282ADA6FF0150007B0F0BDD4
:1010C0005A689B680958013B22F01F0003444FF007
:1010D000020C012023F01F03E1E75A689B680958BE
:1010E000013B22F01F000344062023F01F034FF0B2
:1010F000000CD4E75A689B680958013B22F01F0096
:1011000003444FF0030C012023F01F03C7E72B78A3
:1011100001332B70A5E7C1F89830C1F8A000013366
:101120007BE74FF0FF30C9E700ED00E024AF000C93
:10113000AAFF4400DC1000200000F0FF08B5024BBD
:101140001B689847002008BD000A0020034B044A92
:101150001860937843F0020393707047000A0020F0
:101160008C01002008B50649064821F00701C1F1AD
:10117000005202F5002205F075F8002008BD00BFFE
:10118000A7390020040A002070B541690446867A18
:101190000A4D59B1437ADB0706D4242303FB0653D7
:1011A000DB691B689B689847002363612420214604
:1011B00000FB0650BDE8704008F08CBF180400200A
:1011C0002422024B02FB0030704700BF18040020AD
:1011D0002421827A054B01FB02331A6A1B7D801A97
:1011E0001B3323F00303B0FBF3F070471804002017
:1011F00038B52424827A064B04FB0233DB69D3E939
:1012000001240C601568FFF7E3FF04FB005038BDB4
:10121000180400202DE9F04385B005466846904645
:101220001C46039109F0EAF9DDE90067EFF3118943
:10123000202383F31288BFF36F8F6B8A002B41D07A
:101240002A8A9A4225D900220023284603F0FCFA74
:101250000446F0B189F31188BFF36F8F039B002B15
:1012600041D032463B46684609F0EDF92421A27A86
:10127000254B204601FB0233DB6903A91B681D686F
:10128000DDE90023A847606170BB2046FFF77CFFC3
:1012900024E0698A4B1E6B8289F31188BFF36F8F3C
:1012A0002B7D2A8A2C6A1B3323F00303521A02FB7C
:1012B0000344154B154AEB1A9B105343A3722B7D25
:1012C000E372CBE789F31188BFF36F8F2346424661
:1012D000284603F0B9FA04460028BFD1002420466E
:1012E00005B0BDE8F0836361012300252381039BE2
:1012F00029466382E27A656004F1180009F04AFA2F
:1013000063692582E360EAE718040020398EE33838
:1013100070B524250C4C00B970BD037A4668002BCB
:10132000FAD0013BDBB20372002BF5D1C3604360FE
:10133000837A05FB03439B6913B198473046EAE77C
:10134000FFF722FFFAE700BF180400202DE9F04F55
:1013500085B08046894615461F4605F01AF90446B1
:1013600087B1404605F01AF9012808D0FFF7CAFCFA
:101370006FF085022D4B1A5005B0BDE8F08FB4FA1E
:1013800084F464096A1C21464046D2B205F08CFC04
:1013900006460028EAD045684FB12868696801AB65
:1013A00003C32A7A01AD1A7007238DF8053009F1BD
:1013B0000C07384605F081FA2A782946824228BF70
:1013C0000246384605F0B2F8D6F80CA0BAF1000F84
:1013D0000AD1B9F81010B8F82E309942CCD9384655
:1013E000C91A05F0BEF8C7E7DAF8040083681B6B7A
:1013F00013B9DAF800A0E9E7214698470028F8D0A9
:10140000051F55F804BFBBF1000FF2D09BF8006038
:10141000002EEED0384605F050FAB04234BF82B20A
:1014200032465946384605F081F8EAE70C000000DC
:101430002DE9F04190F82830044603F01F03012BFA
:101440000F4600F128062FD0022B18D08BB3204670
:1014500094F8291005F045F9024678B3304605F0B6
:1014600034FA1D4D002834D113693BB33A46314656
:10147000204698470346FFF745FC2B5024E0818D1A
:10148000C9B205F04BFD05460028E0D0304605F016
:101490001CFA024668688368CAB99B6873B13A4609
:1014A0003146BDE8F0411847818DC9B205F01DFDF8
:1014B000E9E790F8291005F054FDE4E7FFF722FC76
:1014C0006FF08502044B1A500020BDE8F081DB6804
:1014D000E4E7D368C9E700BF0C0000002DE9F04F36
:1014E0000B7E044633F080080D46164693B040F05C
:1014F00081847AB10846FFF70BFF6B7EDF0703D4C8
:101500009E0711D52B7E7BB9204613B0BDE8F04F66
:1015100005F007BA4A7E00F12809900708D5802B0C
:101520000CD12846FFF7F4FE404613B0BDE8F08F1B
:10153000910700F02384002B40F02084D2072FD5A0
:101540002B8A082B40F0FA83EA68294613680020AA
:10155000A3625368C9F8043004F0D6FF054610B101
:10156000FFF7D6FEEFE0484605F0AFF9E28D70B91F
:10157000B2B12946A06906F03BFF0146002800F001
:101580002984204613B0BDE8F04F05F067BE3AB19C
:101590001146204605F05DFE0546002800F01A843D
:1015A000FFF7B0FB002394F82880B14F18F0600FCC
:1015B000C351C8F3411307D0032B40F0BB81FFF7A1
:1015C000A1FB6FF0850337E0484605F07EF994F8FB
:1015D0002930002840F04E81013B0A2BEFD801A2B0
:1015E00052F823F05B17000CBF15000CE717000C36
:1015F000BF15000C1116000CBF15000CBF15000C18
:10160000BF15000C8116000CBF15000CE316000C72
:10161000618D7F29D3D8A38D002BD0D1E38D002BF2
:10162000CDD118F01F0FCAD194F83030022B05D15C
:10163000FFF768FB4FF0FF333B5076E0A06903698A
:1016400093F880301B0707D5C9B205F09DF9804695
:1016500028B1002D6CD167E7012384F8393094F864
:101660003030012B0AD1638D43B984F83030FFF755
:1016700049FB3B58002B00F0858056E00123F4E73E
:10168000204604F086FF628D0146FF2A97D8E38D3D
:10169000002B94D194F82830D80690D194F83030AB
:1016A000002BC5D02AB12046D2B205F023FB00287A
:1016B000BED0618D94F838308B42D8D02046C9B264
:1016C00005F01FFB80460028C3D1628D0521002A4A
:1016D00014BF02230123204684F8303005F048FE71
:1016E000C5E708F01F08B8F1010F7FF468AFE38D7C
:1016F000002B7FF464AF628DFF2A3FF660AFA18DAF
:10170000FF293FF65CAF94F83030022B90D1204691
:10171000D2B2C9B205F021FD10F1020F804640F0AF
:101720000E81FFF7EFFA47F8008065B14FF000082F
:101730002846FFF7EDFDB8F1000F7FF4F5AEFFF797
:10174000E1FA3B58F3B1484605F0BFF80346A069FB
:10175000002B00F04283802148E3E38D002B7FF4CF
:101760002EAF94F83030002B3FF462AF012BA18DE7
:1017700002D100297FF45CAF18F01F080CD0B8F13B
:10178000020F16D0E38D002B40F0CB82204605F0EF
:10179000B2F80028D7D1B7E600297FF449AF638DAE
:1017A000012BEFD194F86C3061F3C30384F86C30F3
:1017B000E8E7B4F82AA0BAF1000FE3D15FFA81F8A4
:1017C0004146204605F0BAFD0346FFF79BFA3B5021
:1017D000013302D14FF0FF383BE7524641462046E5
:1017E00005F079F843E7E38D002B7FF4E8AE628DD6
:1017F000A38D022A5FFA83FA11D108F01F085AEA72
:1018000008087FF4DCAE0122A069190A05F09CF8F3
:1018100000287FF4D4AE012384F8393027E794F808
:10182000301000293FF404AF012902D1002B7FF4CE
:10183000FFAE18F01F0811D0B8F1020FA2D1002A94
:10184000A0D15146204605F065FD0346FFF75AFA40
:101850003B500133BED001225146C0E7002B7FF43C
:10186000E7AE012A8ED194F86C3043F008039DE76F
:101870000C0000000A2B3FF6A2AE01A252F823F0A2
:10188000AD18000CBF15000CBF15000CBF15000CE7
:10189000BF15000CBF15000C2719000CBF15000C5C
:1018A0009F1C000CBF15000CC91C000CE38D022B03
:1018B0007FF485AE94F83030002B3FF4B9AE012BA5
:1018C000A18D02D100297FF4B3AE18F01F0811D00A
:1018D000B8F1020F1CD04FF0000805F10C0A504679
:1018E00004F0EBFFE38D984218D2FFF70BFA6FF08C
:1018F0000B03A1E600297FF49BAE94F86C304FEA0D
:10190000930808F00208C3F3001348EA0308E4E769
:101910002046C9B205F021FD8046DEE7414650462B
:1019200004F015FEA3E6628D18F01F0F4FEA122394
:10193000D2B209D029462046FFF77AFD8046B8F199
:10194000000F7FF486AE92E6013B0E2B3FF637AEDA
:1019500001A151F823F000BF9519000CD119000C1A
:10196000E119000CBF15000CBF15000C251B000C65
:10197000DD19000CBF15000CBF15000CBF15000CC5
:10198000BF15000CBF15000CBF15000CBF15000CD7
:10199000B91B000C05F10C08404604F08EFF83468D
:1019A0002046B4F82EA004F0F4FD20B101287FF405
:1019B00006AE616F00E0216F002900F01F82DA455A
:1019C00028BFDA460A78524528BF524640462FE0E3
:1019D000002329462046FFF7B9FC48E60123F8E733
:1019E0000321204604F0BDFE824600283FF4E7AD07
:1019F00004F05EFFB4F82EB09AF81530D8B99AF812
:101A000014808DF829308DF82880DAF8103005F12F
:101A10000C0A1B885046ADF82A3004F04EFFC3452F
:101A20005A4628BF4246824228BF024650460AA96B
:101A300004F07CFD1BE64FF00008DAF808208DF872
:101A40001530BF4B8DF814801340BE4A934258D1D5
:101A5000102106A802F0B0F8021EFFF6B0AD0AA9E8
:101A6000102A084628BF1022DFF8DCE20DF1180C1E
:101A7000424501F1020133D80346920002325FFA77
:101A800082F88DF8148005F10C0A5046029304F098
:101A900014FFD845424628BF5A46904228BF1046F8
:101AA00002288346804628BF4FF0020B50465A4614
:101AB000A8EB0B0805A904F039FD4FEA5803019380
:101AC000029B9B4603EB5802934521D118F0010F6E
:101AD0003FF4CDAD5046019A995C04F030FDC6E567
:101AE0001CF8013B08F101084FEA131A03F00F0339
:101AF0001EF80AA01EF8033001F802AC01F8013C00
:101B0000B6E79AF81480DAF810308DF81480BAE746
:101B100050461BF8011BCDE9022304F018FDDDE956
:101B20000223D1E7204604F034FDD4E91C830028C9
:101B300008BF98460023CDF82A30CDF82E300A236E
:101B40008DF82830062320468DF8293004F026FD34
:101B5000012805D0FFF7D6F86FF085033B5086E5E6
:101B6000B8F1000F00F04A81B8F80230ADF82A3021
:101B700098F804308DF82C3098F805308DF82D3019
:101B800098F806308DF82E3098F807308DF82F3001
:101B900098F8113005F10C0840468DF8303004F00B
:101BA0008CFEE28D9DF828300AA99A4228BF1A4679
:101BB000824228BF024609E7204604F0EAFC18B139
:101BC0000128C7D1636F00E0236F002B00F016815E
:101BD0005B88B3F5007FBDD95C4B04F14C0B0A93D5
:101BE00000238DF82C30E36C9B4508BF0023BDF823
:101BF0002A1093B15A7D0F2A08D11A7D0A44ADF8F4
:101C00002A209DF82C2001328DF82C20226D934241
:101C100001D01B68EBE7BDF82A1005F10C0A50460D
:101C2000019104F04AFEB4F82E800199884528BF3E
:101C30008846804528BF80464246052A28BF05229F
:101C400050460AA9019204F071FC019AB8EB02080F
:101C50003FF40DADE36C5B453FF409AD002B3FF461
:101C600006AD5A7D0F2A14D11A7D1969424528BF45
:101C700042465046019304F059FC019B1A7D4245AF
:101C800094BFA8EB0208A8EB0808B8F1000F3FF4D6
:101C9000EEAC226D9A423FF4EAAC1B68DEE794F8A2
:101CA0003030002B3FF4C4ACE38D012B7FF487ACC4
:101CB00005F10C08404604F000FE00283FF415AE84
:101CC00094F83810404608E708F01F08B8F1010FF3
:101CD0007FF4AEAC204604F0FBFF00283FF4A8AC34
:101CE000B4F82CA0BAF1FF0F3FF669AC43681B793A
:101CF0005345FFF464AC5FFA8AF30F2B3FF65FACF9
:101D0000E38D012B7FF45BAC05F10C08404604F039
:101D1000D4FD00283FF4E9AD04EB0A0393F83A1030
:101D2000D0E7484604F0D1FD18B92846FFF7F0FA8D
:101D30002CE52946204605F091FA48B128460FE4E3
:101D400000FF020000030200F0B6000C050F0500C2
:101D5000A069036993F8801011F004017FF4D4ABFB
:101D600006F05AFB054600283FF4EDAC014620463C
:101D700005F074FA00283FF4C7ABDFE752077FF5A0
:101D8000E2AC002B3FF4CDAB2846FFF7C1FA94F844
:101D90003930002B3FF4C8AB94F82930052B05D11E
:101DA000618DA069C9B204F0EFFD064694F82930B0
:101DB000032B09D1638D022B06D1A18D0022A069CE
:101DC000090A04F0C1FD06460023B04684F8393004
:101DD000FFF7AABB6FF00B06B5E4E38D002B3FF4D1
:101DE000BAAC16F10C0118BF0121C90106F019FAAD
:101DF000FFF78ABB6FF00408FFF796BB6FF015087A
:101E000027E400BF0B7810B4062B14D10369D3F874
:101E10009C20EFF31184202383F31288BFF36F8F8C
:101E200000204B681860506A58B9C2E9083384F33F
:101E30001188BFF36F8F00220023034810BC08F005
:101E40009FB803605362F2E7F00300202DE9FF41E1
:101E500020264FF0FF334FF0FF325B4801A902F01C
:101E6000CDFB039B1B69D3F89C40236A93B1EFF32E
:101E7000118286F31288BFF36F8F216A29B1606ADD
:101E80000B688142236208BF636282F31188BFF34B
:101E90006F8FC9B99DF80430062BDAD0072BD8D83C
:101EA00001A252F823F000BFFB1E000CEF1E000C35
:101EB0001B1F000C011F000C3F1F000C351F000CE6
:101EC000531E000CC31F000C0B7E20465D06D1F88C
:101ED0001E2009D1FFF702FB02460028C5D00721CA
:101EE000204605F045FAC0E705F00FF8F4E70022B8
:101EF0000121204605F03CFAABE700221146F8E745
:101F000094F86C3001A943F00403204684F86C3047
:101F100004F05FFD00220321EBE794F86C3001A987
:101F200023F00403204684F86C3004F052FD0022B4
:101F30000221DEE7204601A904F04BFD89E794F871
:101F40006C30A76923F0040384F86C30D7F808805C
:101F50003B69A033D3E8AF3F9A072FD53846D8F86E
:101F60003C309847D8F82430002138469847054639
:101F7000D8F8403038469847ADB92946204604F095
:101F8000C0FE054678B9A06906F065FA831E58427E
:101F9000584194F86C3084F8305023F0680343EAD9
:101FA000401384F86C3000220421204605F0E0F94B
:101FB000002D3FF44EAF2A4607219AE74FF0FF3538
:101FC000F1E70621029A94E7F003002030B589B0CA
:101FD000002200230024CDE906236FF007034FF40D
:101FE0008062CDE90334CDE90144154B15490094D5
:101FF000154802F025FF1549134808F069F9144BFC
:1020000014498B4207D30020134B14498B420CD345
:10201000002009B030BD03F11402D2E8EF0FC2E88E
:10202000E54F002DF9D11833EBE703F11402D2E8A4
:10203000EF4FC2E8E50F002DF9D11833E6E700BFF6
:102040004D1E000CE01000201005002003B6000C0F
:10205000DC040020F4040020F40400200C0500201F
:1020600038B5024605460949806906F052FA044629
:1020700048B985F83800284604F0DFFD044610B161
:10208000A86906F075FA204638BD00BF051E000C91
:1020900070B5054681B101290BD10E4C0E4E16E0EC
:1020A000636828461968FDF7C5FF18B11834B442B3
:1020B000F6D30024204670BD084C094EF7E763684C
:1020C00028461968FDF7B6FF0028F3D01834B4424B
:1020D000F5D3EEE7F40400200C050020DC0400201A
:1020E000F404002070B50646EFF31181202383F33A
:1020F0001288BFF36F8F1B4D2A6881F31188BFF3DD
:102100006F8F526892F86C20D20705D4BDE87040FA
:102110000A22002302F020BEEFF3118283F312881B
:10212000BFF36F8F2C682CB1696823688C422B60D9
:1021300008BF6B6082F31188BFF36F8F44B1606892
:1021400004F10801C36998472146074807F0C8FE13
:102150002B6833B13046BDE870400022002302F006
:10216000C7BD70BD100A0020C003002030B585B087
:10217000CDE90012054600220023144803A902F00D
:10218000A9F90246E8B9DDE90001039B5D60083367
:1021900083E80300EFF31180202383F31288BFF359
:1021A0006F8F039B1A600A4A516861B9C2E9003314
:1021B00080F31188BFF36F8F00220023054802F0DF
:1021C00097FD05B030BD0B605360F1E7C003002000
:1021D000100A00200000002038B54B780469202B3D
:1021E0004568206908D0222B19D0FEF78BFD6FF0CF
:1021F0008502104B1A5010E0CB88072BF5D1D3681D
:102200001A6842609A8802819B79837205F0D5F83A
:1022100022460821284605F0B9F8002038BD4B8831
:102220000921C3F34002838103F001030276437660
:102230002246EFE70C00000008B513464A78212A31
:1022400014D133B9FEF75EFD6FF00B020A4B1A5042
:102250000AE0CA880169072A096928BF07220431F0
:1022600003F10C0004F062F9002008BDFEF74AFDFE
:102270006FF08502004BEAE70C00000073B52025E3
:1022800004698DF80710EFF3118685F31288BFF308
:102290006F8F0122E06B0DF1070104F093F886F3D4
:1022A0001188BFF36F8F01280CD008F00BF888B1AC
:1022B00001220C4BD3E8EF1F002903D1C3E8E02F24
:1022C0000028F7D10A22002304F1480002F010FD93
:1022D00002B070BDA37E002BEAD000210A2008F0D6
:1022E000B3F8D0E7180A002038B5002405690E4974
:1022F000EB6B05F14800C3E90144DC606B6BC3E99B
:102300000144DC6007F0A7FF05F17800074907F0FA
:1023100076FF074905F1240007F071FF284605F014
:102320004CF8204638BD00BF3523000C0124000CBA
:10233000C577000C2DE9F04750F8483C00F1400605
:102340005B68074600213046D3F8009005F095F809
:10235000002851D00121304605F08FF88046002832
:102360004AD1D6E8EF3F43F02002C6E8E12F00292A
:10237000F7D19B0640D4484605F0A1F80022054657
:1023800000231E4804F0B8F8044650B93046052131
:1023900005F00DF93846BDE8F0470A22002302F0A7
:1023A000A7BC824605765AF80C1F428A57F80C0CD7
:1023B00004F028F805460146504604F0B1F85DB136
:1023C000D9F8040005F0EAF8B5FBF0F303FB10556B
:1023D000B5FA85F84FEA58182146484607F82D8C7B
:1023E00004F07DFF40B12046FEF792FF3046BDE885
:1023F000F047052105F0DBB8BDE8F08718040020A0
:1024000070B550F8782C00F1100452680346002192
:102410002046156805F031F800283DD001212046FE
:1024200005F02BF8002837D153F8442C68689388BE
:10243000918916695B1A9BB2F61A05F0AFF8B042A3
:102440002AD8D4E8EF3F43F01002C4E8E12F002976
:10245000F7D1DB0620D4284605F023F800220646F3
:1024600000230E4804F048F80446A8B106766868D0
:1024700005F094F8638A984203D2686805F08EF8F4
:1024800083B221462846638204F029FF20B120460A
:10249000BDE87040FEF73CBF70BD00BF18040020CF
:1024A00070B5054601F09EFE0446064E6B6823B1EA
:1024B00001F098FE031BB34200D970BD022007F063
:1024C0004BFCF3E7BFD40100F8B514468768054616
:1024D000FB6B0E4698472146002200230548FEF775
:1024E00099FE044600B1067628463B6C9847204684
:1024F000F8BD00BF3C040020042903D849B96FF09F
:1025000015007047052914BF6FF015006FF08500A6
:10251000704762B9436803291B6803F5805308D0EC
:10252000042908D0022914BF02220422DA730020F1
:1025300070470122FAE708499A7311F8010B01323A
:10254000352A83F82000F8D10822DA739A7C42F009
:1025500002029A74EBE700BF01B7000C2DE9F043CB
:10256000056989B006464468D5F8A47005F1840071
:1025700007F015FD07F1880008F0E9F85B49C7F896
:10258000A06107F5D47007F066FE95F880304FF033
:10259000400923F0760343F0760385F88030A36981
:1025A000022B01BF95F880304FF4806843F001039F
:1025B00085F8803018BF40F2FF38002563689D42DF
:1025C0002BD300254FF0400963689D4258D3002566
:1025D00087F89C50C7F88C51A7F89651D4E904129B
:1025E0004FF000084FF000096FF007030120CDE91C
:1025F0000689CDE90330CDE9015538463C4B0096BC
:1026000002F01EFC3168384607F062FE3046636A0D
:102610009847284609B0BDE8F083E2686B0102EBF9
:102620004512917C41F040019174E26895B9917C2A
:1026300041F001019174E268A2F81090E26830461E
:102640001A441576E168194405F065FC0028E1D1CB
:102650000135B3E71A44917C41F004019174E268BA
:102660001A44917C41F002019174E2681A44917C11
:1026700041F008019174E2681A44A2F81080DDE785
:10268000A2686B0102EB4512917C41F0200191742C
:10269000A268A5B9917C41F001019174A268A2F8E9
:1026A0001090A26865F07F011A441176A168304647
:1026B000194405F030FC0028ACD1013584E71A44F8
:1026C000917C41F004019174A2681A44917C41F01C
:1026D00002019174A2681A44917C41F0080191743E
:1026E000A2681A44A2F81080DBE700BF0987000C3B
:1026F000F78E000C70B503699022D3F8A45043689C
:10270000002105F1A0001C6808F044F84022FF21D8
:1027100005F5987008F03EF84021284606F0D3F8F9
:102720004FF6FF73984200F09F80514AA5F83001A0
:10273000A5F85001D369372043F48033D36106F004
:102740004DFA012342F2107623602368DB0702D49E
:10275000E369D80708D5013E02D26FF0730070BD5F
:10276000012006F03BFAF0E7002EF6D042F2107698
:10277000236843F400732360236843F48073236069
:10278000236843F002032360E369990705D5013EFE
:10279000E3D3012006F022FAF6E7002EDDD0202355
:1027A0002361A369DA075DD504F58053D3F80425C6
:1027B000002422F0E00242F04002C3F80425D3F8DE
:1027C000082505F5D47022F00102C3F80825D3F8D6
:1027D0000C2522F47E6242F42E62C3F80C25D3F855
:1027E000102522F01F0242F00A02C3F81025D3F888
:1027F000142542F08002C3F81425D3F8182522F0DE
:10280000030242F00102C3F81825D3F8202522F074
:10281000C00242F08002C3F82025D3F8242522F01C
:102820000102C3F82425D3F8282522F0FE0242F045
:102830007A02C3F82825D3F8242542F00202C3F80F
:1028400024250022002385F8D84102F085FA20468D
:1028500085E7013E81D0012006F0C0F9A369DB07BE
:10286000F7D5A1E7034EF9E76FF00B0077E700BF5C
:1028700000800044A08601002DE9F04F036989B073
:10288000D3F8A440436801901D6805F580566B6934
:1028900096F80A807788B2885FFA88F892B2069232
:1028A0009A0642BF20226A61EA605807BFB256D535
:1028B0004FF0040918F0040FC5F814903FD000251C
:1028C00004F5C87084F89C50C4F88C51C4F8945135
:1028D00005F011FF04F5BA7005F00DFF04F5BC70AA
:1028E00005F009FF04F5BE7005F005FF04F5C270A0
:1028F00005F001FF04F5C47005F0FDFEF3884020EB
:102900009BB243F00103F380B57305F060FE4946C6
:1029100000F00F0086F8620086F86300B4F83031EA
:10292000DB08A6F86430B4F85031DB08A6F866304E
:1029300004F1880009B0BDE8F04F06F04DB918F079
:10294000010F04D0082104F1880006F045F918F0C1
:10295000020F04D0102104F1880006F03DF9002296
:10296000B273B17CCBB2490707D5B37C03F0FB034C
:10297000B37484F89C20B37CDBB2DA061FD5B37C39
:1029800043F08003B374002384F89C30B37CDBB243
:10299000DB0752D5326AC4F89420336AC4F8983001
:1029A0001B0C1BD1B37C43F04803B374032384F89E
:1029B0009C30012104F1880006F00EF93DE094F806
:1029C0009C20032A39D801A151F822F09129000C4A
:1029D000312A000C872A000C232A000C100605D58A
:1029E000B37C43F04003B3740123E0E7B27C04F509
:1029F000C87042F04002B2740222A4F8943100235D
:102A000084F89C20D4F89420A4F89631C4F8982136
:102A1000D4F89820C4F88C31C4F89C2105F06BFEE2
:102A2000C7E7F90709D5002384F89C300221C1E7E4
:102A3000FA0702D513F00203F6D04FF001087B0825
:102A4000009305F581530433CDE9023304F5BC73DB
:102A5000049305F580530593009B002B60D101265C
:102A6000069BDDF800A04FEA530805F58055B8F144
:102A7000000F40F01A81069B13F0FE0F00F07B81DF
:102A80004FF4807154E7DB07D7D596F818805FFACA
:102A900088F918F07F0810D1B37C012243F0480375
:102AA000B374032384F89C3004F5C073D3E8EF1F9C
:102AB000C3E8E02F0028B9D0F8E7D4F88C314BB93F
:102AC000012204F5C873D3E8EF1FC3E8E02F002804
:102AD000B3D0F8E703F10C0A504605F070FD40450D
:102AE00028BF404601468346504603F019FD5A462A
:102AF000014605F5815005F078FDB4F8963119F0DE
:102B0000400F98441FFA88F8A4F89681C4D0B4F80E
:102B100094314345C0D9B37C43F04003B37485E797
:102B2000009BDF0752D55FFA88F1EFF3118307931B
:102B3000202383F31288BFF36F8F01F00F03B37369
:102B4000019841F0800196F8129005F0D7F95FFAEC
:102B500089F90746F8B105F0F8F98246414604982C
:102B600005F0B9FD19F0200F17D0B37C059A03F0DA
:102B7000DF03B374B37C43F00803B374B37C9807EA
:102B800042BFB37C43F00803B374059B9B7C03F006
:102B9000FE03937409E08246E0E7BAF1000F04D027
:102BA00097F8149019F0020919D04FF0000900228B
:102BB000059B9A73079B83F31188BFF36F8FB9F15D
:102BC000000F03D04946019805F0CFF9009B08F1AA
:102BD00001085B080093039B043303933CE7BAF8B6
:102BE00010B0BBF1000F20D04146049806F08DF8DC
:102BF000798BBAF81030C1F30A01994228BF1946FF
:102C0000494509D80AF10C0003F0B2FC05F58052E1
:102C1000937C43F00103BCE7DAF80C30039A13F815
:102C2000093009F101091370EAE79AF81930190718
:102C30000AD54146049806F068F89AF819306BF303
:102C4000C3038AF81930E1E7384605F07AF981467E
:102C5000384605F07AF983460028A8D097F814A0E2
:102C60001AF0020AA3D14146049806F04EF8798B77
:102C7000BBF81030C1F30A01994228BF19465145EB
:102C80000AD80BF10C0003F073FC05F58052937C1D
:102C900043F0010393748AE7DBF80C30039A13F8CE
:102CA0000A300AF1010A1370E9E718F0010F17D092
:102CB000F1B2EFF3118B202383F31288BFF36F8FF0
:102CC00001F00F03AB73AA7DD3B252060FD503F008
:102CD000BF03AB7585F80EA08BF31188BFF36F8F20
:102CE000029B4FEA5808043301360293BFE601986D
:102CF0002F8B05F003F9BFB20090C0B305F025F9A2
:102D0000A8B3C7F30D09B9F1000F18D000F10C07F3
:102D1000384605F054FC4845024628BF4A46384626
:102D20001146039203F0FCFB0146DDE9020205F0C7
:102D30005CFC009B5A8BC2F30A02914504D2AB7D26
:102D400003F0FE03AB7508E0384605F038FC50B9D7
:102D5000314604F5C27005F0D8FF314604F5BE7067
:102D600005F0D3FFB6E7AB7D03F0FE03B1E73146D4
:102D700004F5C470F4E709B0BDE8F08F30B540B396
:102D8000B0F1205F4FEA906323D2013BDBB2082B06
:102D90001AD8114A114DD45C114AD15C114AD25C47
:102DA000EB5CC5B2A54214D8C0F305248C4210D800
:102DB000C0F3055191420CD8C0F3853098428CBFC6
:102DC0006FF01500002030BD3F2300241A4619463D
:102DD000E7E76FF01500F6E751B7000C36B7000CC7
:102DE00048B7000C3FB7000C2DE9F3470C4600250F
:102DF000194943682143804616461F68019506F02D
:102E0000A9FC022804D03560002002B0BDE8F0879C
:102E10004FF0060AB4FBFAF95FFA89F529464046F5
:102E200001AA06F022FD0028EFD10AFB1944E4B202
:102E3000032C94BF4C375037AD003D442B6804F051
:102E40000304E400E34013F03F03DDD0019AB2FB3A
:102E5000F3F23260D8E700BF00FFFF0F2DE9F74F14
:102E60000D464FF0000B1C46436880469F68924613
:102E700007EB81073549D0F8109029433E6ACDF819
:102E800004B006F067FC022803D0C4F800B00020AC
:102E90003FE0396A01F00F01514550D0BAF1060FF9
:102EA00002D18B1F052B4AD90B290AD8DFE801F084
:102EB000061E273434373C3C3C3C3C3CD9F80030BF
:102EC00001933A6A012D4FEA124218BFD2B2F304BD
:102ED00031D51D2A28BF1D220123013292B2934011
:102EE0009AB2019BB3FBF2F32360D0E7AB1EDAB2D8
:102EF000092A24D809EB8309D9F80430E0E7012D29
:102F000020D00C220121404601ABFFF7A7FF00288B
:102F1000D7D003B0BDE8F08F4FF40043D0E7404670
:102F200001A900F015F8F2E70639404601AAC9B236
:102F3000FFF75AFFEBE7012A38BF0122D1E76FF014
:102F40008500E6E76FF05B00E3E700BF00FFFF1BD3
:102F500037B50C4641680A68136913F4807303D1CE
:102F60000020236003B030BD136BDB0701D4094B95
:102F7000F6E78B68D56BD3F88010052201AB01F022
:102F80000F01FFF76BFF0028ECD1019BADB26B4343
:102F90002360E7E7006CDC022DE9F84FD0F80490DD
:102FA0008246D9E9004B0F461546CEB2002A00F002
:102FB00022810846FFF7E2FE8046002840F01E818D
:102FC000BB0E082B00F21A81DFE813F00900130092
:102FD0005A009F00BA00C000CA00FE000C016369DD
:102FE0002A7823F0800343EAC21363614046BDE8B8
:102FF000F88FD9F80820A978D2F8803061F303035C
:10300000C2F880306B78A3B9E36A2A7803F07F03B3
:1030100043EAC213DBB2E36201F0E4F80546794EFD
:10302000A36F002BE2D001F0DDF8431BB342F7D9C8
:10303000DCE7236B734F43F00102DBB243F0010383
:103040002263236301F0CEF80646A36F2BB101F093
:10305000C9F8831BBB42F8D9C8E7E26BAB886FF3B2
:103060000F021343E36301F0BDF80646654FA36FFB
:10307000002BC9D001F0B6F8831BBB42F7D9B5E7E6
:103080002F790B2F21DD04F1440252F826302988D4
:103090000B2F61F3090342F8263004F1480252F87D
:1030A0002630A97804F1400461F3050342F8263084
:1030B00054F8263023F4F06322DC0027EA7843EA50
:1030C000C2133B4344F8263090E7D9F80830DFF8C4
:1030D00034B103EB8609D9F884303B4343F0400315
:1030E000C9F8843001F07EF88246D9F884305B0656
:1030F000C9D401F077F8A0EB0A035B45F5D975E771
:103100000B3F3F0207F4E067D8E70623B6FBF3F274
:1031100003FB1263D9B203294FEA820294BF4C34F5
:10312000503414443F2203F003032168DB009A402B
:1031300021EA02012A7802FA03F30B43236055E7E0
:103140002B7803F00303CBF810304FE7DBF81C308B
:103150002A7823F0800343EAC213CBF81C3045E7FA
:10316000D9F80810012E01EB86010A6ADAF810403E
:1031700022F4005222F00F024FEA02422B884FEA5B
:10318000124201D0FF2B01D842EA0342EB78A87823
:1031900003F00F0343EA403313430B6201F022F8BC
:1031A0000746DFF860A0D9F808305B682BB101F062
:1031B00019F8C31B5345F6D918E7002E7FF416AF54
:1031C000EB7884F83A3011E7D9F80830C7F30527CF
:1031D00003EB8703D3F88020297861F30302C3F857
:1031E000802003E7D9F80C102B78CA6822F0FF0280
:1031F0001343CB60FAE66FF01508F7E66FF0850829
:10320000F4E600BFBFD401002DE9F843012743686D
:103210000669D3F800800C4608F1400252F82130CC
:10322000DFF8409043F0020342F8213001F1180327
:103230009F4000F0D7FF0546D8F8103037EA030367
:1032400008D000F0CFFF431B4B45F5D96FF073005A
:10325000BDE8F8830122F36AA24013430020F36221
:10326000F6E700BFFF0D27072DE9F84F0546476831
:1032700008460C46FFF782FD0646002853D121463A
:10328000284606F067FA022800F0A180A10E3A68ED
:10329000BB68092947D8DFE801F0053035524657A9
:1032A0005D674672536943F002035361230E032B9B
:1032B00003F0FC0A70D9BAF1140F04D8454B23FA75
:1032C0000AF3DA0768D4D7F814804FF00009BAF18E
:1032D000140F64D17B68DB68DB0726D43E4B1B7878
:1032E000002B63D100F07EFF834600F07BFF3B4A5A
:1032F000A0EB0B039342F8D962E0D36A43F00203D8
:10330000D362D3E70F20E1B24B1C2A6903EB4303DE
:103310005B0000FA03F3108F034209D02846FFF741
:1033200073FF0028C2D06FF085063046BDE8F88FE5
:10333000012303FA01F1136B0B431363B6E728462D
:10334000E1B206F067FBECE77A68D36943F0020369
:10335000D361ABE714F0FF02A8D003EB82031A6A33
:1033600042F480721A62A1E7C4F3052203EB8203E0
:10337000D3F8802042F04002C3F8802096E7FA6834
:10338000C4F3055302EB83020123D16BC4F38530F0
:1033900083400B43D36389E74FF4FA6895E72146EE
:1033A000284606F0D7F9022898D1BEE7FDF7AAFC17
:1033B0000B4B1B58002B95D00A20002107F044F836
:1033C00009F10109C14582D36FF07306ADE76FF0D3
:1033D0007706AAE710111000DD100020BFD401000D
:1033E00008000000F8B54368234A1D6804696B694A
:1033F000487A1A400B7C00021B0600F4706003F050
:1034000040730343087AC001C0B203438878400187
:1034100000F020000343887A000100F0100003430D
:10342000C878C00000F0080003434878800000F02E
:10343000040003430878400000F0020003431343F4
:103440006B614B6823600B785BB100F0CBFE0646E6
:103450000A4F2B69DB0705D400F0C4FE831BBB4277
:10346000F7D9F8BD636B43F480536363238F43F054
:1034700001032387F5E700BF41F0FFFCFF0D27079D
:103480002DE9F84306690C46338F9D0607D496F85C
:103490003A30052B05D16378002B40F08780BDE8DA
:1034A000F88343681D689A68EB6A23F00203EB62B5
:1034B0008B78012B1ED0EB6AE27803F07F0343EA9E
:1034C000C213DBB2EB626278EB6A520002F00202D6
:1034D00003F0FD031343EB6200F084FE0746DFF8C0
:1034E0001081AB6F002B4FD000F07CFEC31B434517
:1034F000F7D9D4E70978736BCB40D807CFD5D2F88A
:103500008030DFF8F09061F3030343F04003C2F82A
:10351000803000F067FE0746DFF8D480D9F88030AD
:103520005A064CD400F05EFEC31B4345F6D9B6E7FD
:103530002B6B627903F0490343EAC213A279DBB231
:10354000520102F020021343E279DFF8A480120155
:1035500002F010021343227A920002F00402134395
:10356000627A520002F00202134343F001032B631C
:1035700000F038FE0746AB6F002B9CD000F032FE07
:10358000C31B4345F7D98AE76378002B87D000F047
:1035900029FE0746DFF860802B69DB053FF57BAF2E
:1035A00000F020FEC31B4345F6D978E7736B43F464
:1035B00000537363338F43F0200333876FE7EA6B65
:1035C000A3896FF316021A43A37ADFF824801B0441
:1035D00003F4FE031343EB6300F004FE0746AB6FF6
:1035E000002BA5D000F0FEFDC01B4045F7D956E7E3
:1035F000BFD4010000000144FF0D27072DE9F74F5C
:10360000D0F810800E78D8F830500C46F54015F000
:1036100001056AD191F807A0D8F8343023FA0AF3EB
:10362000DF0762D54368BAF10B0F1F68D3F810901B
:1036300041DD07F1440252F826306189BAF10B0FDF
:1036400061F3090342F826303B46217B53F8482FAB
:1036500061F3050243F82620A07907F1400252F8F1
:1036600026104FEAC02021F47E5100F460503FDC68
:103670006379DFF8C8A0DB01DBB203430B431D43D2
:1036800042F82650E2892E4BF96E03EA0243228A61
:103690006FF3DE11D20192B213430B43FB6600F0CD
:1036A000A1FD0546BB6F5A0631D500F09BFD431BBB
:1036B0005345F7D919E09B6803EB860BDBF88430A0
:1036C0004AEA030343F04003CBF8843000F08AFD5C
:1036D0000246DBF8843001925906AAD400F082FD3C
:1036E000019A1649831A8B42F3D903B0BDE8F08FD3
:1036F000AAF10B0A4FEA0A2A0AF4E065B8E70122A8
:10370000D8F83030B2401343C8F83030EDE72379B1
:10371000002BEAD0D9F81C300A4D43F48033C9F8A5
:103720001C3000F05FFD0446D9F80C30DB05E6D410
:1037300000F058FD031BAB42F6D9D6E7BFD4010019
:103740000000FF7FFF0D2707F8B505692B8FDA060C
:103750003DD443680A7C5C68CB7B52009B0002F03E
:10376000020203F0040313438A7B606902F0010242
:1037700020F00700134303436361E36917480A7BA2
:1037800018404B7A12029B0402F4706203F4701327
:1037900013430A7AD201D2B213434A78920002F05C
:1037A000040213430A78520002F002021343034357
:1037B000E3610B785BB100F015FD0646084FE36846
:1037C000DB0705D400F00EFD831BBB42F7D9F8BD23
:1037D0002B8F43F010032B87F9E700BF79F0C3FF6D
:1037E000FF0D27072DE9F84305690E786B6B0C4632
:1037F000F340DA074BD491F807C02B8F23FA0CF370
:10380000DB0744D54768012EB968638A01EB86015E
:103810000A6A22F4745222F00F024FEA02424FEA7F
:10382000124201D0FF2B01D842EA03426379003BE8
:1038300018BF012342EA4332237C0BB142F4805289
:10384000637D207ADB02800200F4806003F4006371
:103850000343207D0CF00F0C400243EA0C0300F4FC
:10386000007003432079DFF85C90000200F4807060
:10387000034313430B6200F0B5FC8046BB685B68F2
:103880003BB100F0AFFCA0EB08034B45F6D9BDE817
:10389000F883B31E092B0FD8E26805EB83035A6047
:1038A00001226B6BB2401343012E6B6302BF2B8F5F
:1038B00043F002032B87EAE7002EF1D1E37985F884
:1038C0003A30EDE7BFD401002DE9F04F8D4BDFF822
:1038D00038E287B0CDE900E3012530234FF460687A
:1038E0006946CDE90283466804460769049540F2BB
:1038F0000119FFF777FD4FF40043CDE9009340F243
:103900000713DFF808A26946CDE902A30023204689
:103910000493FFF719FFB368DFF8F4811D7000F01E
:1039200061FC0546B368D3F804A0BAF1000F09D0D2
:1039300000F058FC431B4345F4D96FF0730007B007
:10394000BDE8F08F05230326DFF8C8B187F83A30C9
:10395000012506274FF002091422002101A806F0D4
:1039600019FF694620468DF80770CDF800B0ADF814
:1039700012508DF80450FFF735FF1422002101A8E2
:1039800006F008FF644B6946204600938DF80770E7
:10399000ADF812908DF80450FFF724FF1422002197
:1039A00001A806F0F7FE5D4B694600930723204609
:1039B0008DF80730ADF812508DF80450FFF712FF64
:1039C0001422002101A806F0E5FE554B694600933C
:1039D000082320468DF80730ADF812508DF80450BA
:1039E000FFF700FF1422002101A806F0D3FE4D4B83
:1039F000694620460093ADF812508DF80450FFF749
:103A0000F1FE4FF00133484A6946CDE900232046D4
:103A100003F17F430293ADF80C50FFF731FD4349AA
:103A2000434B4FF00308CDE900134FF096736946FE
:103A30002046CDE90238CDF810A0FFF7DFFD40F6B3
:103A400001233C486946CDE90003204606F015F8FD
:103A500041F60113384F69462046CDE9007306F060
:103A60000CF840F601434FF40067DFF8D0C0694618
:103A70002046CDE900C306F000F8314B69462046E8
:103A8000CDE9003705F0F9FF2E4B69462046CDE918
:103A9000003705F0F2FF2C4B69462046CDE9003790
:103AA00005F0EBFF013E7FF453AF636832465B687D
:103AB000204626491D612B4606F00FF82B464A4644
:103AC0002046234906F009F82B4642462046214964
:103AD00006F003F82B46042220461F4905F0FDFF9F
:103AE0002A4620461D4906F00DF82A4620461C4964
:103AF00006F008F820462A461A4906F003F8304630
:103B00001DE700BF001BB70001000001000001011C
:103B1000BFD4010000FFFF1B01FFFF1B02FFFF1BC3
:103B200003FFFF1B04FFFF1B0101000100C0FF0B8F
:103B30000100010C00FFFF0F01FFFF0F02FFFF0F4D
:103B400003FFFF0F04FFFF0F05FFFF0F30E7FF1F0D
:103B500037EEFF1F35ECFF1F10D2FF1F3E7F3424CE
:103B60000E3F05240B7F042408B5074806F01AF918
:103B700038B10648FDF7EAFA0448FCF7EDFB0020EF
:103B800008BD6FF01200FBE710A9000C913B000C80
:103B90000A2838B50446074D04D1AB680D212846E4
:103BA0005B689847AB6803485B68E1B2984720467A
:103BB00038BD00BF10A9000C10291FB528BF102167
:103BC0000C460C4BD3F8E02112BA0092D3F8E42152
:103BD00012BA0192D3F8E82112BA0292D3F8EC316A
:103BE0000A461BBA6946039306F0C7FD204604B097
:103BF00010BD00BF0070000A2DE9F0430025012729
:103C0000DFF8E0E000F1020CEBB2994202D80020AC
:103C1000BDE8F08330F825403CF82560C4F3422825
:103C200004F00F03B8F1010F5EF82330C4F304125F
:103C30002AD15BB303EB52084FEA143998F83040AD
:103C400012F0010F15BF04F00F0404F0F00444EA71
:103C5000091449EA040488F8304003EB020898F894
:103C6000404044F0010488F8404016F0010F07FA84
:103C700002F803EB02040BD116F0020F0ED194F8F8
:103C8000409009F0FB090DE0002BEED10135BBE7B8
:103C9000D3F8109048EA0909C3F8109094F84090BE
:103CA00049F0040984F8409094F8409016F0080F09
:103CB00014BF49F0020909F0FD0984F840901C681E
:103CC00016F0100F14BF48EA040424EA08041C602C
:103CD000DC6E07FA02F236064CBF224324EA0202E7
:103CE000DA66D3E740B0000C70B5054600F07AFA0A
:103CF0000446074EEB69DB0604D000F073FA031BA1
:103D0000B34200D970BD022006F026F8F2E700BFEA
:103D1000BFD40100F7B50D4647680669BC68236843
:103D2000204623F002032360FFF7DEFFEB79002B30
:103D300064D1F3712979022960D8204605F0EEFF9D
:103D40002B7933716B79012B52D1636823F04003D7
:103D500063602046FFF7C8FF6B797371AB79042B62
:103D60004CD82B4A2046D35C626822F0070262607E
:103D7000626813436360FFF7B7FFAB79B371002349
:103D8000F86901938368DB6813B1796A01AA9847DF
:103D9000019A2868002A34D05308010B0005C01886
:103DA00041F100010023FCF72BF94FF6FF72431E8F
:103DB00061F10001934271F1000125D22368404274
:103DC00080B223F460432360A0812B6820463360D7
:103DD0007B7B012B02BF236843F0800323602368B1
:103DE00043F002032360FFF77FFF002003B0F0BD24
:103DF000032B03D1636843F04003A9E76FF085000C
:103E0000F4E76FF01500F1E76FF02100EEE700BF77
:103E10005AB7000C2DE9F74346680746D0F81080E2
:103E2000F069B468836896F80C901B68716A2BB9C6
:103E30006FF05705284603B0BDE8F0839847054664
:103E400010B110F1780FF5D1D6E9070183681B682E
:103E5000002BEDD09847054610B110F1780FE9D14D
:103E6000BF232375002388F807303379042B02D948
:103E70006FF08505DEE7544A2046D35C626822F085
:103E800007026260626813436360FFF72DFF3379B6
:103E9000204688F80630717905F040FF737988F87C
:103EA0000430B379012B7ED1636823F04003636053
:103EB0002046FFF719FFB37988F80530B1683269F9
:103EC0000B68120523F44C1302F440121A43736971
:103ED0001B0403F4403313430B60236843F0005387
:103EE0002360236823F01C03B9F1000F62D0236024
:103EF0002368002143F080432360B06A01AA05F0E3
:103F000014FE051E96DB019B002219791868FFF745
:103F100073FE054600288DD16368204643F40033C4
:103F20006360FFF7E1FE6368204643F4803363601B
:103F3000FFF7DAFEF069716A8368DB680BB101AAEA
:103F40009847019A3068002A37D05308010B0005C2
:103F5000C01841F100010023FCF752F84FF6FF7240
:103F6000431E61F10001934271F1000128D22268E1
:103F7000404283B222F460422260A3813368384613
:103F8000C8F80030B3699847737B2046012B02BF05
:103F9000236843F080032360236843F00203236017
:103FA000FFF7A2FE46E7032B7FF462AF636843F09E
:103FB00040037CE743F0040399E76FF0150539E708
:103FC0006FF0210536E700BF5AB7000C4FF0E02331
:103FD0000D4A9969126818699B69002908BF114642
:103FE000002B08BF134610F4803F084801D19942C6
:103FF00005D20168114401604FF0E02109690068B1
:104000001044C01A704700BFA4100020A010002068
:104010002022094B002083F8232042F6E062074B60
:104020001A60074B42F6DF6218604FF0E0235A61D6
:10403000072298611A61704700ED00E0A41000208B
:10404000A0100020684620F007018D4619B5FFF743
:10405000BDFF1449144B0868D3E90042001942F12E
:104060000002C3E9000200230B6042F6E0630F4A3E
:10407000D2E90041001BB0FBF3F043431B1941F1AF
:104080000001C2E90031EFF31181202383F312888C
:10409000BFF36F8F01F040FBFCF7C6FDBDE8194090
:1040A00085467047A0100020800700207807002078
:1040B0002DE9F041374E89B1421C0AD14FF0E02280
:1040C000136923F0010313614FF07F433360BDE8B0
:1040D000F0813568012806DC00240AE0431C3568BD
:1040E000F8D140F2755040F276539842A8BF184676
:1040F000441EEFF31187202383F31288BFF36F8FE1
:10410000FFF764FF4FF0E0232349D3F818C0D1E94B
:10411000002380184FF0000243F10003C1E90003BF
:104120001E4B1A601E4B1A68831A2DD442F6E06E9D
:1041300042F6DF6814FB0E841C44B4FBFEF4131A31
:104140000EFB0433B3F5806F38BF4FF48063154A1C
:10415000934228BF13464FF0E0223360013B94693D
:1041600053610023A4459361ACEB0400D1E9003214
:104170000DD20544EB1842F10002C1E9003287F389
:104180001188BFF36F8FA2E74FF48063E3E7C31892
:10419000F1E700BFA410002080070020A01000203D
:1041A0007807002060CCFF0038B5EFF3118520239D
:1041B00083F31288BFF36F8F084B1C68084B1B6892
:1041C000E41AFFF703FF85F31188BFF36F8F42F600
:1041D000E0632044B0FBF3F038BD00BF800700204F
:1041E0007807002038B5EFF31185202383F3128878
:1041F000BFF36F8F044B1C68FFF7E8FE85F311884F
:10420000BFF36F8F204438BD8007002038B5EFF32F
:104210001185202383F31288BFF36F8F064B9C68B0
:1042200005F0D3FD85F31188BFF36F8F2046BDE8FD
:104230003840FCF709BD00BFA810002038B50A4B74
:1042400053F82040013053F82050A54200D838BD23
:10425000606830B1037EDB0701D405F08BFD0834C4
:10426000F3E723689847FAE78CB0000C012270B599
:10427000294B86B003201A70FFF7E0FF01F014FB12
:104280000420FFF7DBFF254C254D2646AE4204F106
:1042900030040FD301F0C6F8204CAC4226D301F015
:1042A000D5F8FCF72FF81F4A938923F00103938177
:1042B00006B070BD54F80C3C059354F8103C0493C0
:1042C00054F8143C039354F8183C029354F81C3CE3
:1042D000019354F8203C009354E90A2354E90C015B
:1042E00000F040FD54F8303C5E65CEE7D4E90A2387
:1042F000B3F1FF3F08BFB2F1FF3F05D052EA03011F
:10430000206803D100F078FD3034C6E70649183044
:1043100001F072F9F8E700BFDD10002054AE000C88
:1043200054AE000C10080020D7A3000C882370B5F1
:10433000134E012203FB0066002386B0CDE904235F
:104340000F220193CDE9023214234FF4A0720D4DD8
:104350000D4903FB0055044602FB00110B4B304690
:10436000009500F0FFFC337C2C7423F004033374BD
:10437000074B013403EBC423EE606B6006B070BDE5
:1043800088070020A8100020E0200020519F000C8A
:10439000E01800207FB50020FFF750FF2B4B83F380
:1043A00008880025E0232A4C84F82230E57725761A
:1043B0006576A57684F82050E576636A43F4E023B9
:1043C0006362636A43F400236362A563E3689BB29C
:1043D00043F0BF6343F40833E360FCF743FBFCF7AF
:1043E0001DFC4FF0FF33A362E362FCF7F5FDFCF721
:1043F0008FFC184800F0F4FC0120FFF71FFF02209B
:10440000154CFFF71BFF01F005F8144B4FF48062C9
:104410005C61134B1349059301232046CDE90353F7
:10442000CDE90155104B009500F09CFC0646237C1D
:10443000204623F00403237405F0A6FF2846FFF767
:1044400075FF31462046084AFCF7CCFBE0200020EF
:1044500000ED00E09808002010080020A8100020BF
:1044600060B6000C202200206D42000C38B5064CCE
:10447000064DAC4201D3002038BD2046D4E90112DC
:1044800005F0E8FC1434F4E7DC030020F00300201E
:1044900030B5054B85B0DDE908450293CDE900450F
:1044A00005F096FC05B030BD6161000C38B5074CD5
:1044B000074DAC4201D3002038BD204605F0EEFC8C
:1044C00008B91C34F5E76FF01500F5E7C0030020CC
:1044D000DC03002073B50C46EFF31181202585F332
:1044E0001288BFF36F8FC5685DB125602B68C3600C
:1044F000836901338361002081F31188BFF36F8FDB
:1045000011E052EA030603D16FF00B002560F3E7D8
:10451000CDE900230246083000F086FE18B9034BAF
:104520009B685B69236002B070BD00BFA8100020CB
:10453000F7B50D4604469DF82010EFF311872020B3
:1045400080F31288BFF36F8F266AE068864240D2FC
:104550002668B4421AD0CEB1304605F004FD06F10B
:10456000180006F012F82946002554F8082F706943
:1045700006F003F93046C6F8805005F005FF2046E6
:10458000394605F038FF284603B0F0BDA268A9B14E
:104590002946E06906F0F1F8E369A268134462690C
:1045A000E361934201D12369E3610020236A01336F
:1045B000236287F31188BFF36F8FE5E7A069236952
:1045C0002946984208BF6069801AA06106F0D5F8B4
:1045D000EBE752EA03010BD0074904F108008968B0
:1045E0004D61CDE900233946224600F01DFECBE7A0
:1045F0006FF02200DDE700BFA8100020F7B50446E9
:104600000846EFF31186202181F31288BFF36F8FE4
:10461000216A00293BD0A268A16906F0AEF8A3691F
:10462000A268256813446269A361934204BF2369A9
:10463000A361236AAC4203F1FF33236236D02846DC
:10464000002D34D0002705F08EFC05F1180005F090
:104650009CFF6969A268E06906F08FF8E369A268C7
:10466000284613446269E361934204BF2369E3610E
:10467000236A01332362C5F8807005F085FE04F1DA
:104680000800314605F0B7FE384603B0F0BD52EAE7
:10469000030111D00A4989684861CDE900233146F8
:1046A000224604F1080000F0BFFDEEE7002086F38B
:1046B0001188BFF36F8FE8E76FF02200F7E700BFC4
:1046C000A81000202DE9F341044617461E46EFF3DB
:1046D0001188202383F31288BFF36F8F304BC26899
:1046E0009B6872B18068984217D057EA060216D1CB
:1046F00088F31188BFF36F8F6FF00F0002B0BDE831
:10470000F08193F90E1001322161C4E9023288F37D
:104710001188BFF36F8F0020F0E72169F3E793F969
:104720000E1090F90E30994230DA9942A8BF19461E
:1047300005F02DFC054622464146CDE90076194894
:1047400000F072FD0028E6D0EFF31186202383F3FA
:104750001288BFF36F8FA068D0B1236821699C4293
:104760000AD04BB193F90E309942A8BF19466FF0A9
:104770007F039942B8BF194605F009FC40B13146A4
:10478000084805F038FE6FF00A00B7E70025D2E7C9
:10479000002DF4D186F31188BFF36F8FF3E700BFCC
:1047A000A8100020DE100020F8B583680546002B15
:1047B00040D0234A926893423FD1C368012B03D96A
:1047C000013BC3600020F8BDEFF31187202383F382
:1047D0001288BFF36F8F0169806805F0D8FB2C68E1
:1047E000A54207D10023C5E9023387F31188BFF33F
:1047F0006F8FE7E7002CF5D0D4E900320026136074
:104800005A60237CC4E9006623F002032374A66087
:1048100004F1180005F0B9FEAC6094F90E302046A2
:104820002B61C4F8806005F0AFFD3946054805F0FE
:10483000E2FDC7E76FF01500C5E74FF0FF30C2E7B4
:10484000A8100020DE10002037B51146EFF31185C7
:10485000202282F31288BFF36F8F04689CB1236813
:10486000426823F003039442036008BF43600121C0
:10487000204605F010FC044685F31188BFF36F8FC6
:10488000204603B030BD51EA0302F5D000F1080222
:10489000CDE900131046294600F0C6FC0028EFD1F0
:1048A000014B9B685C69EBE7A810002070B5EFF343
:1048B0001186202383F31288BFF36F8F0468A04210
:1048C0001BD0D4B1D4E90032002513605A60237C98
:1048D000C4E9005523F002032374A56004F1180015
:1048E00005F053FE2046C4F8805005F04DFD3146DA
:1048F000BDE87040064805F07EBDD0E902329A421C
:1049000018BF0133836086F31188BFF36F8F70BDCA
:10491000DE10002013B5EFF31181202484F31288F8
:10492000BFF36F8F846844B1013C846081F31188C8
:10493000BFF36F8F002002B010BD52EA030406D10E
:1049400081F31188BFF36F8F6FF00F00F3E7CDE9AC
:1049500000230246014800F067FCECE7DE1000206F
:1049600070B50546EFF31186202383F31288BFF359
:104970006F8F00232C68A54219D0C4B1D4E900324E
:1049800013605A600023227CC4E9003322F0020243
:104990002274A36004F1180005F0F7FD6FF00A031C
:1049A0002046C4F8803005F0EFFC0123E2E7002246
:1049B000AA6023B986F31188BFF36F8F70BD3146AB
:1049C000BDE87040014805F016BD00BFDE100020B4
:1049D0002DE9FF4104462027534EEFF3118887F35A
:1049E0001288BFF36F8FD4F88C50F5B9022104F10F
:1049F000A40005F089FB002870D004F19C0500227A
:104A00000121284605F07EFD0028F8D100234FF053
:104A1000FF3202934FF0FF334146CDE90023434874
:104A200004F1940200F028FDD7E7D4F890202B6819
:104A30009542C4F88C3008BFC4F89030D4F8A43044
:104A400043F00203C4F8A430EB6823F0040343F0FE
:104A50000103EB606B6888F31188BFF36F8F284602
:104A60009847EFF3118887F31288BFF36F8FEB68D5
:104A7000D80623F001023ED4EA60EB689A0717D506
:104A8000306823F00203EB6090B10021036878B135
:104A9000426895423DD10368002934D17268336081
:104AA000904200D17360002340F8083BFFF7FEFE00
:104AB000D4F8A43023F00203C4F8A430DB0530D4CA
:104AC000D4F88C30003B18BF012388F31188BFF362
:104AD0006F8F002B81D005F01DFC7EE7D4F8A43049
:104AE000D90693D5C4F8A40088F31188BFF36F8F5B
:104AF00004B0BDE8F08123F01103EB6005F1100074
:104B0000FFF7D4FEB9E70B607368984208BF716085
:104B1000C9E701461BB11A6818461346B7E71A469B
:104B2000FAE70023D1E700BFC8100020DE10002004
:104B300070B5C3680546C3F340069B070C460DD508
:104B40000122002104F1080005F0D2FA00232360BD
:104B5000054B65605A681AB9C3E90044304670BD18
:104B600014605C60FAE700BFC8100020F8B5C368A5
:104B700004469A070E46C3F3400542D45F0742D469
:104B80000B680BB983680B60E368D80742BFA36862
:104B900002253360376858BF012557B31B4B9A680D
:104BA000D7F888309A421ED105F08CFB80F00100C6
:104BB000C0B2D7F8A430D907C3F380021CD5F2B134
:104BC000F8B100232360D7F8903073B9C7E92344C4
:104BD000384605F0B3FAE36843F00403E360336852
:104BE000A3602846F8BD0020E3E71C60C7F89040AA
:104BF000EEE76FF0150506E06FF0120503E01B0706
:104C0000DFD56FF00F0500233360EAE7A81000201E
:104C10000146014805F00FBB40090020F0B50446ED
:104C2000002089B00E9DC4E9230004F19400C4E97A
:104C3000250004F19C00C4E9270055B32879002819
:104C400040F2011008BF0120C4F8A40000204FF07A
:104C5000FF364FF0FF37CDE90330CDE90100CDE954
:104C6000066720460C4B009400F0EAF855B129681D
:104C700011B1204605F02CFB6B791BB1A38943F0E1
:104C80000103A381204600F0B7F8C4F8884009B0BA
:104C9000F0BD0120D8E700BFD149000C37B5019025
:104CA0000846EFF31184202181F31288BFF36F8F40
:104CB000C16811F01E0F16D153EA020508D101A9EF
:104CC000FFF754FF84F31188BFF36F8F03B030BD3B
:104CD00041F00801C160019910308161034900F081
:104CE0008BFC0120EEE70020ECE700BFB1A1000C37
:104CF00001460148FFF7D2BF40090020F7B50C4636
:104D000016461D460190EFF31187202383F3128886
:104D1000BFF36F8F084605F002FA55EA060309D182
:104D2000204601A9FFF722FF87F31188BFF36F8F99
:104D300003B0F0BDE368324643F00803E360019B33
:104D40000449A36204F110002B4600F055FC012039
:104D5000EAE700BFB1A1000C01460148FFF7CEBF52
:104D6000400900202DE9F043984685B000F1580332
:104D7000C0E91633109B002683810423073222F0FA
:104D8000070503740F9B01EB05090F468373494622
:104D9000C0E906668660C6730446FBF7D3FB0E9B2C
:104DA000073020F007002067C4E91A7502930D9BB5
:104DB000A9EB000901930C9B4A46009339464346F0
:104DC0002046FBF7F3FE054B66659B6803B15B6FFE
:104DD0004846636705B0BDE8F08300BFA810002017
:104DE0000123037483810023C0E91A334367014B15
:104DF00098607047A810002038B50446EFF311857D
:104E0000202383F31288BFF36F8F037C5B070FD5DA
:104E1000183005F0BAFB237C204623F004032374EA
:104E200005F0C1FA2946BDE83840044805F0E3BA68
:104E300085F31188BFF36F8F38BD00BFDE100020EF
:104E4000F0B5002587B00595109DDDE91276049533
:104E50000F9D044603950E9D02950D9D01950C9D99
:104E60000095FFF77FFFB6F1FF3F08BFB7F1FF3FA7
:104E700005D056EA070305D12046FFF7BDFF2046BF
:104E800007B0F0BD3A46334604F11800014900F07E
:104E9000B3FBF4E7D7A3000C6FF00A01094A93684B
:104EA000C3F880100849D8674B6843F080534B60C3
:104EB000002383F31188BFF36F8F9368D3F88000CA
:104EC000704700BFA810002000ED00E038B590F951
:104ED00010200146002A037C04DA03F07F030374E8
:104EE00005F01AFA0D4D2A4652F8184FAB68944255
:104EF00000D004B9EC688B4207D01A7CD20604D1EA
:104F0000DA897F2A01D9A2692AB1A34202D02046B8
:104F100000F0F4FA23466B6138BD00BFA8100020F2
:104F200070B590F91020037C002A2FDBD9062DD113
:104F30001A4C63F07F032246037452F8183FE1696C
:104F4000934207D1C0E900210860E0610FE0994277
:104F5000F8D01B68002BF5D093F90E6090F90E5035
:104F6000AE42F4DD5968C0E9003108605860A569B7
:104F7000954200D005B9E568A3681A7CD20606D12F
:104F8000DA897F2A03D9AA690AB9636170BDAB4285
:104F900002D0284600F0B2FA6561F7E7A8100020B9
:104FA000034648B9EFF3058232B9064A516992685F
:104FB000914201D0FFF770BF83F31188BFF36F8F69
:104FC000704700BFA810002038B5184CA168E069F0
:104FD0000B68814214BF1A46002249680B60596071
:104FE000A368E1692AB9124AC3E900210B60E361B1
:104FF0000AE092F90E5093F90E00854212DD5168D5
:10500000C3E900210B605360A569094B9D4200D0A4
:1050100005B9E568A3689D4202D0284600F06EFA03
:10502000656138BD8A42DED01268DBE7A810002037
:10503000C0100020002A2DE9F0470CBF4FF01009E6
:105040004FF00809027C044619EA020F0E460F468B
:1050500028D149EA0203D20946D10374B9F1080FF5
:1050600048D04FF00008DFF8F0A0534653F8185F1F
:105070009D4200D00DB9DAF80C50DAF80830AB4296
:1050800002D0284600F03AFAB9F1100FCAF81450CD
:1050900008D0204601F0ECF9B8F1000F02D02F48FB
:1050A000FFF79EFE2C4B9B68A3424FD1EFF3058385
:1050B000002B4BD1A289D20711D586F31188BFF3FB
:1050C0006F8F83F31188BFF36F8F0423184602DFBD
:1050D000EFF31187202383F31288BFF36F8F3846D5
:1050E000BDE8F047FFF7D8BE03F07F03037405F077
:1050F00013F9B3E7A36813B1204605F015F904F1DD
:10510000180005F042FAA56D04F15808A84511D021
:105110004FF0000A75B1284605F006F905F11800B0
:1051200005F033FA2846C5F880A0FFF7F9FEA56D13
:10513000A845EFD1084B9B689C4292D1EFF30588BC
:10514000B8F1000818BF4FF001088CE786F311880A
:10515000BFF36F8FBDE8F087A810002098080020EB
:1051600070B50F4D06462B4653F8184F9C4200D0A1
:1051700004B9EC68AB681A7CD20604D1DA897F2ABC
:1051800001D9A2692AB1A34202D0204600F0B6F9A3
:1051900023466B613046BDE87040FFF701BF00BF9A
:1051A000A810002070B5EFF31186202383F3128836
:1051B000BFF36F8F1A4CA168E0690B68814214BF7E
:1051C0001A46002249680B605960A368E1692AB950
:1051D000144AC3E900210B60E3610AE092F90E5022
:1051E00093F90E00854216DD5168C3E900210B607A
:1051F0005360A5690B4B9D4200D005B9E568A368D3
:105200009D4202D0284600F079F965613046BDE83C
:105210007040FFF741BE8A42DAD01268D7E700BF7C
:10522000A8100020C0100020F8B5124B0C46DDE994
:10523000067611469868104A1060EFF3118220221A
:1052400082F31288BFF36F8F9D68284605F076F8C9
:10525000B6F1FF3F08BFB7F1FF3F06D03A463346ED
:10526000064905F1180000F0C7F92046BDE8F840EE
:10527000FFF712BEA8100020D0100020D7A3000C0A
:10528000F8B50446EFF31187202383F31288BFF3A8
:105290006F8F037C49B203F01F02002A0CBF012666
:1052A000002635D103F07F032A4D037405F034F84E
:1052B0002A46037C817363F07F03037452F8183F1E
:1052C000E869934207D1C4E900200460EC610DE075
:1052D0009842F8D01B68002BF5D093F90EC08C458E
:1052E000F6DD5968C4E900310C605C60AC69944239
:1052F00000D004B9EC68AB689C4202D0204600F0B4
:10530000FDF86C6187F31188BFF36F8F3046F8BDED
:105310009B071CD5856804F0FFFF81732B689D42B5
:1053200009D16B68C4E900531C606C60EAE76A68E5
:105330009A42F6D01B68002BF3D093F90E208A42D4
:10534000F5DD5A68C4E9003214605C60DAE7817305
:10535000D8E700BFA8100020034648B9EFF3058244
:1053600032B9064A51699268914201D0FFF794BD63
:1053700083F31188BFF36F8F704700BFA810002020
:10538000F8B550EA010306460C4603D104F0C2FF0B
:105390000020F8BDEFF31187202383F31288BFF3B9
:1053A0006F8F184D184BA868186004F0FEFFA868AE
:1053B000324623461549183000F01EF9AB68044602
:1053C0001A7CDF6742F004021A746FF00A02C3F815
:1053D00080200F4A536843F080535360002383F3C7
:1053E0001188BFF36F8FAA68D2E90A12B2F1004F99
:1053F00008BF9942CCD105F0FDF8201A20EAE070F0
:10540000C7E700BFA8100020D0100020D7A3000CD1
:1054100000ED00E0024B03F11802C3E906227047D9
:10542000A8100020EFF31181202383F31288BFF32B
:105430006F8F054B9A68D37B013BD37381F311883F
:10544000BFF36F8F704700BFA8100020EFF31180EB
:10545000202383F31288BFF36F8F034B9A68D37BAB
:105460000133D373FFF77CBEA8100020014B98686E
:10547000704700BFA8100020D3B5DDE90667089C7F
:10548000CDE90067FFF7D0FE1CB1034B9B685B6959
:10549000236002B0D0BD00BFA8100020027C0346EC
:1054A00012F01F0210D10A4988420DD0094908683C
:1054B00068B1D9897F2909D893F90E20064B1B685A
:1054C0009A42B8BF002070470020704710467047CE
:1054D0008807002018030020D41000200122044B6C
:1054E000C01A044BC0105843034B1A54704700BFF6
:1054F00020090020ABAAAAAADE10002070B50C4B30
:105500000C4D1E7CFFF7CAFF182303FB065504460B
:10551000284605F03AF80022074B9A553CB1621E26
:105520002846BDE870400549D31700F065B870BD46
:10553000A810002020090020DE100020DD54000CFF
:1055400038B5EFF31185202383F31288BFF36F8FF3
:105550000F4B104A9C681068A04206D1FFF7CEFF9F
:1055600085F31188BFF36F8F38BD00211B7C11605C
:10557000094AD35C002BF3D02046FFF78FFF0028A9
:10558000EED0237CDB0601D1FFF71EFD2046E5E7C8
:10559000A8100020D0100020DE100020024B186858
:1055A000984208BF002070471C030020034B1B6873
:1055B0000BB9FEF7F9BD0020704700BFD8100020DE
:1055C00030B570B10B4B5B6898420AD0036843B1A9
:1055D000D3E90421D0E90445121941EB0501C3E9DF
:1055E0000421D0E9003213605A600023C0E900337F
:1055F00030BD00BF1C030020B3F1FF3F08BFB2F174
:10560000FF3F2DE9F84F0446994615461F467AD0CC
:105610008160EFF31188202383F31288BFF36F8F2B
:10562000B9F1000FDFF8E4A020DBFFF7BFFFDAE9F4
:105630000027013549F100092D1849EBE0730646B2
:105640004FF00109C4E90453AD1843EB0707FFF716
:10565000A5FF0346DFF8B8E0DEF804A0EBB9C4E923
:1056600000EACAF80040CEF8044028E06FF00103D9
:10567000DAE900125B1A4FF0FF3161EB02025B1BAB
:1056800062EB0902012B72F10001BCBF0123002271
:105690004FF00009C0E90432D9E7D3E9041CD4E98A
:1056A00004208A4270EB0C0B24DA891A5A686CEBDE
:1056B0000000C3E90410C4E9003214605C60FFF725
:1056C0006DFF84420ED1134B1B685BB9B9F1000F1B
:1056D00002D1FFF76BFF0646304604F03FFF002182
:1056E000FEF7E6FC88F31188BFF36F8F2846394632
:1056F000BDE8F88F521A60EB0C005345C4E9042052
:10570000ADD01B68AAE700252F46EFE73809002037
:105710001C030020D81000202DE9F047DFF8A890E6
:105720000246C9F800000D46FFF738FF00260027A3
:10573000DFF898804FEAE27ED8E9001350B1D0E953
:10574000044CA2427EEB0C0A1ADAA41A6CEB0E0689
:10575000C0E904460024521843EB0E032046C8E972
:105760000023C9F8004004F0F9FE2146FEF7A0FC32
:1057700085F31188BFF36F8FBDE8F047FFF7E0BEF8
:10578000611843EBE473C0E90467C8E90013FFF74D
:1057900017FF01224FF00043C0E9042385F311886D
:1057A000BFF36F8F83689847EFF31185202383F34E
:1057B0001288BFF36F8FD9F80020121BC9F80020A0
:1057C000FFF7ECFEB6E700BFD81000203809002034
:1057D00010B5EFF31184202383F31288BFF36F8F8A
:1057E000FFF7E4FE0346054AD2E90001181841EB31
:1057F000E37184F31188BFF36F8F10BD3809002067
:1058000073B50446EFF31186202383F31288BFF3A8
:105810006F8F8368594003EA02050A405340002213
:10582000009309496B46019204F038FEDDE900322D
:1058300023EA020304F10C003146A36004F0DBFD0F
:10584000284602B070BD00BF0FA7000CF8B5074690
:105850000C46164604F036FD08B10020F8BD0D4B8D
:105860009B685D6F002DF8D0221DF6D2EFF31184F6
:10587000202383F31288BFF36F8F284647F004017B
:10588000B04784F31188BFF36F8F0028E5D040F84C
:10589000045BE3E7A81000200146024A0020FFF75E
:1058A000D5BF00BF5B61000C014800F02FBD00BFF9
:1058B00065B6000C07B5074B4FF4806200930649AC
:1058C0004FF0FF330548FFF7A9F9002003B05DF85A
:1058D00004FB00BFA4B0000C2026002040090020DB
:1058E0002DE9F04F43688BB0804692460093837851
:1058F0009C0740F1F98000250878002800F0F68028
:1059000025280AD04B1C019301354146009B98473E
:105910000028C0F2E3800199EEE74E788B1C252E1B
:105920000193F1D000270A22B9463C461F2C22D809
:10593000A6F12003102B20D8DFE803F0141F1F1A54
:105940001F1F1F0B1F1F1F121F171F1F090044F0CF
:105950000104019B13F8016B0193002EE6D13AE09C
:1059600044F0020444F00404F3E744F00804F0E7D0
:1059700044F01004EDE77F2C24D8A6F13003092B66
:1059800008D860064EBF02FB073744F0200402FB34
:105990000939DEE72A2E0DD161065AF8043B53D4AB
:1059A000002BA7BF44F020049946C3F1000944F03E
:1059B0002804CEE72E2E05D1630600F1978044F02F
:1059C0004004C6E76C2E2ED028D8682E32D06A2E1E
:1059D00037D04C2E35D0002F46F02003B8BF24F02E
:1059E0004004A3F16502BCBF0027A4B2022A01D97A
:1059F000612B2BD10AF1070A07279D4E2AF0070ACF
:105A00000AF1080A210760D506EB070B34465C450E
:105A10005DD1AE1BA9EB0709A21959E1742E98D0EC
:105A20007A2E96D0D7E7260648BF44F4007444F097
:105A300080048EE7E00548BF44F4007444F48074A9
:105A400087E744F4207484E71F4682E7A6F16302E7
